:100000000C9442000C946A000C946A000C946A00F0
:100010000C946A000C946A000C946A000C946A00B8
:100020000C946A000C94D1110C94FA110C942312C4
:100030000C94C7120C944C120C9475120C949E12D2
:100040000C9456110C947F110C94A8110C946A0016
:100050000C942C0D0C94DF0A0C946A000C946A002A
:100060000C946A000C946A000C946A000C946A0068
:100070000C94010D0C942D0B0C946A007106570D15
:100080005414950611241FBECFEFD0E1DEBFCDBFC3
:1000900011E0A0E0B1E0EEEFF1E302C005900D92B7
:1000A000AC38B107D9F713E0ACE8B1E001C01D925C
:1000B000AA33B107E1F710E0C2E8D0E004C022970C
:1000C000FE010E94E415CC37D107C9F70E94260A29
:1000D0000C94F2180C94000089EB91E00E94530EEE
:1000E00084EC91E00E94530E86E092E00C94530E53
:1000F00042E00C94610D60E070E0809127010E9465
:1001000078006FEF70E0809125010E9478006FEF1A
:1001100070E0809123010C9478000F931F930E944C
:10012000720900918D0110918E0120918F01309103
:100130009001601B710B820B930B61337547810536
:100140009105A0F0005D1A482F4F3F4F00938D019D
:1001500010938E0120938F013093900161E371E041
:1001600084E792E01F910F910C943F0E1F910F9125
:10017000089520918C01211105C0BC0184E792E013
:100180000C942B0E0895CF93DF93CDE2D1E061E084
:1001900088810E94F80964E670E080E090E00E94A7
:1001A000840960E088810E94F80964E670E080E0DC
:1001B00090E00E94840961E088810E94F80964E669
:1001C00070E080E090E00E94840960E08881DF9127
:1001D000CF910C94F8090F931F93CF93DF93CDB772
:1001E000DEB727970FB6F894DEBF0FBECDBF8FE105
:1001F0000E940D09BC01882777FD8095982F0E94E9
:1002000069142DEC3CEC4CEA50E40E94191520E0F6
:1002100030E040E85AE30E941915FB01462F5F2F9A
:10022000682F792F4093960150939701609398011E
:10023000709399012AE939E949E95FE3BF010E9416
:10024000631418160CF451C0479A0E947209009169
:100250009101109192012091930130919401601BC2
:10026000710B820B930B00910C0110910D01222751
:1002700017FD2095322F0617170728073907A8F40E
:1002800061E080912D010E94F80968EE73E080E042
:1002900090E00E9484090E9472096093910170931A
:1002A0009201809393019093940180919501811123
:1002B00027C00E947209609391017093920180930C
:1002C00093019093940181E08093950163E371E041
:1002D000CE0101960E94C40ECE0101960E94B90083
:1002E000CE0101960E94530E0BC0479810929501C3
:1002F0001092910110929201109293011092940128
:1003000027960FB6F894DEBF0FBECDBFDF91CF9119
:100310001F910F9108950F931F93CF93DF93CDB744
:10032000DEB727970FB6F894DEBF0FBECDBF809122
:1003300021010E94D409082F10E01093D3010093EB
:10034000D20101301105F1F461E080912B010E948E
:10035000F8098091D0019091D101892B11F565E3C5
:1003600071E0CE0101960E94C40ECE0101960E945A
:10037000B900CE0101960E94530E1093D101009353
:10038000D0010FC060E080912B010E94F80980919C
:10039000D0019091D101019721F41092D1011092D6
:1003A000D00127960FB6F894DEBF0FBECDBFDF9108
:1003B000CF911F910F910895823579F46FEF70E01E
:1003C000809127010E94780060E070E08091250113
:1003D0000E9478006FEF70E010C0873491F46FEFE7
:1003E00070E0809127010E9478006FEF70E08091AB
:1003F00025010E94780060E070E0809123010C9458
:100400007800823411F40C947B0008951F93CF93ED
:10041000DF93CDB7DEB727970FB6F894DEBF0FBED8
:10042000CDBF182F833229F41092C1011092C00160
:1004300035C08A3219F41092CF012AC0E091C00170
:10044000F091C101EA5FFE4F808369EB71E0CE015C
:1004500001960E94F80E612FCE0101960E94880F2E
:10046000BC0189EB91E00E94E10ECE0101960E9451
:10047000530E8091C0019091C10101969093C101EA
:100480008093C0018091BD019091BE01059730F02D
:100490006AE371E089EB91E00E94020F27960FB6A4
:1004A000F894DEBF0FBECDBFDF91CF911F910895AD
:1004B0004F925F926F927F928F929F92AF92BF9274
:1004C000CF92DF92EF92FF920F931F93CF93DF9320
:1004D000CDB7DEB727970FB6F894DEBF0FBECDBFFE
:1004E0007C01562E5A014901612C712C00E010E06C
:1004F00087E0482EA301652DC7010E945A106C01A8
:10050000181619060CF59C01A301B701CE0101963E
:100510000E947810409EC001419E900D1124BE01A2
:100520006F5F7F4F8A0D9B1D0E94E10ECE010196E9
:100530000E94530E0F5F1F4F0815190534F5360141
:100540008FEF681A780AD6CF0097A1F2081519051F
:10055000E4F4F70124813581A301B701CE010196AE
:100560000E94781027E0209FC001219F900D112448
:10057000BE016F5F7F4F8A0D9B1D0E94E10ECE0171
:1005800001960E94530E0F5F1F4FC80127960FB6AA
:10059000F894DEBF0FBECDBFDF91CF911F910F91B9
:1005A000FF90EF90DF90CF90BF90AF909F908F9093
:1005B0007F906F905F904F9008955F926F927F92BF
:1005C0008F929F92AF92BF92CF92DF92EF92FF9263
:1005D0000F931F93CF93DF93CDB7DEB727970FB657
:1005E000F894DEBF0FBECDBF3C0123E1A22EB12C9B
:1005F000E12CF12C03E010E0B7018EE092E00E94C4
:10060000FF08C82ED12C2BC0C0FC05C00E5F1F4FA9
:10061000D594C79424C0B8018EE092E00E94FF08F0
:10062000582EB8016F5F7F4F8EE092E00E94FF0866
:10063000982E812CB401650D711D4AE0CE01019602
:100640000E941C0FB301CE0101960E94CA0F582EC2
:10065000CE0101960E94530E5520C1F211C0C11463
:10066000D10491F68FEFE81AF80A850180E1A80E0F
:10067000B11C83E0E816F10409F0BECF80E001C0B0
:1006800081E027960FB6F894DEBF0FBECDBFDF9195
:10069000CF911F910F91FF90EF90DF90CF90BF907F
:1006A000AF909F908F907F906F905F9008951F9371
:1006B000CF93DF93CDB7DEB727970FB6F894DEBFA1
:1006C0000FBECDBF8AE991E00E948907882309F413
:1006D0009CC00E9406022091C0013091C10180910E
:1006E0000A0190910B012817390709F08EC010926A
:1006F000C1011092C00169EB71E0CE0101960E9428
:10070000F80ECE0101960E94DD02811107C011E0B2
:100710008091C2019091C301039709F410E0CE01CA
:1007200001960E94530E1123F1F082E50E94DC0134
:1007300061E080912D010E94F80968EE73E080E08D
:1007400090E00E9484098091C2019091C3010196BA
:100750009093C3018093C2016AE371E089EB91E059
:100760000E94020F21C069EB71E084EC91E00E94CD
:10077000CA0F882371F067E371E0CE0101960E94F1
:10078000C40ECE0101960E94B900CE0101960E94CE
:10079000530E1092C1011092C0011092C301109229
:1007A000C20181E08093CF018091C2019091C30189
:1007B000039759F58091B801811111C069E371E087
:1007C000CE0101960E94C40ECE0101960E94B9008E
:1007D000CE0101960E94530E81E08093B801609192
:1007E0000C0170910D01882777FD8095982F0E944C
:1007F000840982E50E94DC0161E080912D010E9464
:10080000F8091092C3011092C20127960FB6F8940E
:10081000DEBF0FBECDBFDF91CF911F9108950F9323
:100820001F93CF93DF938C01EB0160E071E00E9496
:100830007C15BE01660F771F6D5F7F4F482F8EE0DE
:1008400092E00E940209A80117FF02C041505F4FC9
:10085000452F550F550BBE016E5F7F4F660F771FFB
:100860008EE092E00E9402098E01D7FF02C0095F6C
:100870001F4F33E0159507953A95E1F71127B80119
:100880008EE092E00E94FF08482FCE0168E070E001
:100890000E947C1521E030E001C0220F8A95EAF722
:1008A000422BB8018EE092E0DF91CF911F910F9122
:1008B0000C940209EF920F93E12C01E028E040E84C
:1008C00055E260E070E084E792E00E94FF0B61E097
:1008D00080912B010E94A60960E0809129010E946D
:1008E000A60961E0809127010E94A60961E080913C
:1008F00025010E94A60961E0809123010E94A609BA
:1009000060E0809121010E94A60961E080912D01A3
:100910000E94A6093F9A0F9861E070E087E594E095
:100920000E940F0462E070E08FE599E00E940F04DE
:1009300063E070E082ED94E00E940F0464E070E0F8
:1009400080E99FE10E940F0465E070E088E590E295
:100950000E940F0466E070E081E99FE10E940F04AD
:1009600067E070E08CEC97E00E940F0468E070E0B4
:1009700088EB97E00E940F046AE371E089EB91E055
:100980000F91EF900C94020F0F931F93CF93DF936F
:100990008C01EB0160E071E00E947C15BE01660FE6
:1009A000771F6D5F7F4F482F8EE092E00E94020913
:1009B000A80117FF02C041505F4F452F550F550B3F
:1009C000BE016E5F7F4F660F771F8EE092E0DF9172
:1009D000CF911F910F910C9402090F931F93CF9306
:1009E000DF938C01EC0197FD279623E0D595C79501
:1009F0002A95E1F7DD27BE018EE092E00E94FF0814
:100A0000482FC80168E070E00E947C1521E030E0CA
:100A100001C0220F8A95EAF74227BE018EE092E0DC
:100A2000DF91CF911F910F910C94020940E060E09B
:100A300070E08EE092E00E94020940E061E070E028
:100A40008EE092E00E94020940E062E070E08EE0F9
:100A500092E00C940209CF92DF92EF92FF92CF9333
:100A6000DF93CDB7DEB7E1970FB6F894DEBF0FBEC8
:100A7000CDBF80910D02882309F426C186E092E063
:100A80000E94BD106BE371E0CE0101960E94C40E7E
:100A9000BE016F5F7F4F86E092E00E942110F82E2A
:100AA000CE0101960E94530EFF2049F081E0909103
:100AB0008C01911180E080938C010E94C3006DE352
:100AC00071E086E092E00E94DB0F8823E9F082E586
:100AD0000E94DC0161E080912D010E94F80968EE1E
:100AE00073E080E090E00E9484098091C2019091BF
:100AF000C30101969093C3018093C2016AE371E040
:100B000089EB91E00E94020F6FE371E086E092E0D2
:100B10000E94DB0F882321F081E08093CF01CCC0BD
:100B20006AE371E0CE0101960E94C40E6AE371E0AF
:100B3000CE0108960E94C40E6AE371E0CE010F96C2
:100B40000E94C40E66E072E0CE0146960E94F80E46
:100B500023E030E0AE014F5F5F4F6BE3CE0146967E
:100B60000E945802CE0146960E94530EBE016F5F4E
:100B70007F4FCE018B960E94F80EBE01685F7F4FBB
:100B8000CE0184960E94F80EBE01615F7F4FCE01B8
:100B90004D960E94F80E61E471E0CE018B960E94A2
:100BA000DB0F882389F0CE0184960E9422116B010D
:100BB0007C01CE014D960E942211DC01CB01B601D1
:100BC0000E940F040E94C30063E471E0CE018B9683
:100BD0000E94DB0F882389F0CE0184960E942211A7
:100BE0006B017C01CE014D960E942211DC01CB01EC
:100BF000B6010E94C4040E94C30066E471E0CE0105
:100C00008B960E94DB0F882309F1BE01635E7F4F44
:100C1000CE0146960E94F80ECE0146960E94DD0255
:100C2000F82ECE0146960E94530EFF2079F0CE0199
:100C300084960E9422116B017C01CE014D960E9488
:100C40002211C6010E94ED040E94C30065E471E018
:100C5000CE018B960E94DB0F8823B1F0BE01635E4C
:100C60007F4FCE0146960E94F80ECE0146960E9416
:100C7000DD02F82ECE0146960E94530EFF2021F091
:100C80000E9416050E94C300CE014D960E94530E8D
:100C9000CE0184960E94530ECE018B960E94530E75
:100CA000CE010F960E94530ECE0108960E94530E5D
:100CB000CE0101960E94530E6AE371E086E092E055
:100CC0000E94020F10920D02E1960FB6F894DEBF5B
:100CD0000FBECDBFDF91CF91FF90EF90DF90CF900F
:100CE0000895EF920F936AE371E086E092E00E942C
:100CF000C40E68E471E084EC91E00E94C40E6AE3E3
:100D000071E089EB91E00E94C40E33E0E32E04E031
:100D10002EE031E041E151E065E171E08AE991E0E6
:100D20000E94D3080F91EF9008950C946C00CF931C
:100D3000DF93D1E018C084E792E00E94580AC82FE0
:100D4000682F86E092E00E94750FCA3061F420E0BF
:100D500030E042E350E064ED71E086E092E00E9412
:100D60003010D0930D0284E792E00E942D0A1816ED
:100D700019060CF3DF91CF910895BF92CF92DF92C5
:100D8000EF92FF920F931F93CF93DF93CDB7DEB710
:100D900027970FB6F894DEBF0FBECDBF0E9497060F
:100DA0000E942B050E948D000E94EB000E948B0187
:100DB0000E945703809129010E94D409B82E2091E6
:100DC000CD013091CE0180910C0190910D01281739
:100DD0003907D4F082E50E94DC018091B8018111CD
:100DE0000EC060E571E0CE0101960E94C40ECE01F6
:100DF00001960E94B900CE0101960E94530E81E037
:100E00008093B80161E038C08091CF01882379F1E7
:100E100087E40E94DC010E9472097093CC01609308
:100E2000CB016AE070E080E090E00E9484090E94BB
:100E300072094091CD015091CE018A01222717FD00
:100E40002095322FC090CB01D090CC01EE24D7FC5E
:100E5000E094FE2C0C191D092E093F09060F171FDF
:100E6000281F391F1093CE010093CD0104C00E94AA
:100E70007B001092B80160E080912D010E94F8097A
:100E800081E0B81203C0B092CF011DC069EB71E0E0
:100E9000CE0101960E94F80ECE0101960E94DD025D
:100EA00011E0882321F08091CF01811110E0CE0163
:100EB00001960E94530E112331F01092CF0110922F
:100EC000CE011092CD0127960FB6F894DEBF0FBE6B
:100ED000CDBFDF91CF911F910F91FF90EF90DF90E9
:100EE000CF90BF900895DC0118968D919C91199731
:100EF0008617970769F019967C936E9318975C96FE
:100F0000ED91FC915D97309719F01A968C910994A8
:100F100008954F925F926F927F92AF92BF92CF925D
:100F2000DF92EF92FF920F931F93CF93DF93EC0129
:100F3000A12CA8C00A2D10E0EC81FD81E00FF11F6B
:100F400060E080810E94F809B12C68018EC0EB2C12
:100F5000F12C8F81E881F981EC0DFD1DB89EE00D2B
:100F6000F11D11249A85808198133CC00E9472095A
:100F70004E845F84688879886419750986099709A1
:100F80004A8C5B8C612C712C641575058605970560
:100F900050F0EA81FB81EE0DFF1D80810E94D40993
:100FA000882309F498C00E9472094E845F8468887F
:100FB00079886419750986099709488C598C612CC0
:100FC000712C641575058605970508F493C0EA81B0
:100FD000FB81EB0DF11D80810E94D409813009F065
:100FE00089C07FC00E9472094E845F8468887988B6
:100FF0006419750986099709488C598C612C712CE4
:10100000641575058605970578F1EA81FB81EE0D7B
:10101000FF1D80810E94D409811126C0EC81FD81D1
:10102000E00FF11F61E080810E94F8092F812E9D61
:10103000C0012F9D900D1124E881F981EC0DFD1D5B
:10104000E80FF91FF0808E859F85A889B9898A8B62
:101050009B8BAC8BBD8B0E9472096E877F87888BC0
:10106000998BF11015C005C0B3948E81B81608F4A1
:101070006ECFEC81FD81E00FF11F61E080810E9465
:10108000F809A3948F81A81608F454CF80E040C0DB
:101090008B85F81239C00E9472090A891B892C8934
:1010A0003D89601B710B820B930B0E891F8920E019
:1010B00030E0061717072807390710F525C081E02B
:1010C00090E09D878C87FA8661E070E0CE010E94F7
:1010D00073078A851DC063E070E0CE010E9473072C
:1010E00062CF62E070E0CE010E9473078A858B8731
:1010F0001A86BFCF88859985039709F0B5CFB9CFF8
:101100008C859D850196DDCF8A85F812D8CFBECF1C
:10111000DF91CF911F910F91FF90EF90DF90CF90D3
:10112000BF90AF907F906F905F904F900895FF9227
:101130000F931F93CF93DF93EC01F12C13C00F2D6E
:1011400010E0EA81FB81E00FF11F60E080810E94E6
:10115000A609EA81FB81E00FF11F61E080810E9416
:10116000F809F3948E81F81650F3F12C13C00F2D6B
:1011700010E0EC81FD81E00FF11F61E080810E94B1
:10118000A609EC81FD81E00FF11F61E080810E94E2
:10119000F809F3948F81F81650F3DF91CF911F91E6
:1011A0000F91FF900895EF920F93FC0153834283B8
:1011B000358324830683E7827183608316861786CE
:1011C000108A118A128A138A148A158A8CE291E095
:1011D000978B868B82E390E0918F808F88EE93E0EF
:1011E000938F828F158E148E128613861186108629
:1011F00015861486CF010F91EF900C949708CB01C0
:101200000C949218CB01642F0C949A1880E480936C
:101210007C0087E880937A000895CF93DF931F9234
:10122000CDB7DEB790912F01913031F489830E94C0
:10123000060910922F01898187702091300140E4C6
:10124000249F90011124822B80937C0080917A004E
:10125000806480937A0080917A0086FDFCCF209193
:10126000780030917900932F80E0FC01E22B9F0100
:10127000C9010F90DF91CF91089580911002909154
:101280001102A0911202B091130230910F02232F8C
:101290002D5F2D3720F40196A11DB11D05C0232F10
:1012A0002A570296A11DB11D20930F0280931002B0
:1012B00090931102A0931202B09313028091140232
:1012C00090911502A0911602B09117020196A11DEE
:1012D000B11D8093140290931502A0931602B0934F
:1012E000170208950F931F938FB7F894009110027F
:1012F0001091110220911202309113028FBFB80198
:10130000C9011F910F9108958F929F92AF92BF9242
:10131000CF92DF92EF92FF926B017C010E947209E3
:101320004B015C010E947209681979098A099B09BD
:101330006C157D058E059F05A8F3FF90EF90DF905B
:10134000CF90BF90AF909F908F900895982F9770F7
:1013500021E030E0092E01C0220F0A94EAF78695B9
:101360008695869581F0813089F0823091F08330C6
:10137000D1F412C080812095822302C08081822B0B
:1013800080839FBF0895EAE2F0E008C0E7E2F0E062
:1013900005C0E4E2F0E002C0E1E2F0E09FB7F894BB
:1013A000662341F3EBCF0895982F977021E030E04A
:1013B00001C0220F9A95EAF786958695869539F0B1
:1013C000813041F0823049F0833051F00895E9E2F4
:1013D000F0E008C0E6E2F0E005C0E3E2F0E002C0C1
:1013E000E0E2F0E09081922381E009F480E008954A
:1013F000982F977021E030E0092E01C0220F0A9447
:10140000EAF786958695869581F0813089F082305D
:1014100091F08330D1F412C080812095822302C0E4
:101420008081822B80839FBF0895EBE2F0E008C0AB
:10143000E8E2F0E005C0E5E2F0E002C0E2E2F0E060
:101440009FB7F894662341F3EBCF08950E942E11C5
:101450000E945A040E94BD06FDCFFC0120893189FB
:10146000C9010895DC0150962D913C915197232B91
:1014700049F05496ED91FC915597E80FF91F268994
:1014800030E002C02FEF3FEFC9010895FC01118A3F
:10149000108A158A148A138A128A0895FC012481FD
:1014A0003581C9010895FC0124813581C901089560
:1014B000FC0180899189892BD1F03FB7F89480890C
:1014C00091890197918B808B84899589DF01A80F81
:1014D000B91F56962C910196803291051CF4958B7C
:1014E000848B02C0158A148A3FBF30E002C02FEF00
:1014F0003FEFC9010895EF92FF921F93CF93DF93BF
:101500001F92CDB7DEB77C01D701DA968D919C9101
:10151000DB974097C8F71FB7F894D696ED91FC91EA
:10152000D7970190F081E02DC701C6966983099590
:1015300069814097C8F4F70182AD93AD019693AFEE
:1015400082AF84AD95ADE80FF91FE05CFF4F60837B
:101550000196D701DD969C938E93DC97409724F0FB
:10156000DD961C921E92DC97F701EA5AFF4F01901C
:10157000F081E02D8081806280831FBF81E090E058
:101580000F90DF91CF911F91FF90EF900895665FCC
:101590007F4F680F791FCB010895665F7F4F680FFB
:1015A000791FCB010895665F7F4F680F791FCB01CC
:1015B0000895665F7F4F680F791FCB0108951F92D2
:1015C0000F920FB60F9211242F938F939F93AF9387
:1015D000BF93EF93FF938091AE029091AF02892B5E
:1015E00021F1E091CE02F091CF028091AE02909174
:1015F000AF0201979093AF028093AE028091B20246
:101600009091B302DC01A655BD4F1A962C9101961C
:10161000803191052CF49093B3028093B20204C000
:101620001092B3021092B20220838091AE02909188
:10163000AF02892B31F4E091CA02F091CB0288E924
:101640008083FF91EF91BF91AF919F918F912F91E7
:101650000F900FBE0F901F9018951F920F920FB60C
:101660000F9211242F938F939F93AF93BF93EF9378
:10167000FF938091520290915302892B21F1E091C6
:101680007202F0917302809152029091530201977D
:101690009093530280935202809156029091570288
:1016A000DC01A25BBD4F1A962C9101968031910509
:1016B0002CF4909357028093560204C01092570264
:1016C0001092560220838091520290915302892BEE
:1016D00031F4E0916E02F0916F0288E98083FF910E
:1016E000EF91BF91AF919F918F912F910F900FBE6E
:1016F0000F901F901895FC01262F1382128248EE3E
:1017000053E060E070E0448355836683778386E529
:1017100091E09183808386E691E09587848780E2DB
:1017200090E097878687118A108A158A148A138A0F
:10173000128A80E791E097AB86AB80E190E091AFB1
:1017400080AF13AE12AE17AE16AE15AE14AE222396
:1017500021F0213009F052C028C0DF01A05BBF4F4B
:1017600085EC90E08D939C93DF01AE5ABF4F84ECE3
:1017700090E08D939C93DF01AC5ABF4F80EC90E0DA
:101780008D939C93DF01AA5ABF4F81EC90E08D931B
:101790009C93DF01A85ABF4F82EC90E08D939C93FD
:1017A000E65AFF4F86EC90E027C0DF01A05BBF4FF9
:1017B0008DEC90E08D939C93DF01AE5ABF4F8CEC83
:1017C00090E08D939C93DF01AC5ABF4F88EC90E082
:1017D0008D939C93DF01AA5ABF4F89EC90E08D93C3
:1017E0009C93DF01A85ABF4F8AEC90E08D939C93A5
:1017F000E65AFF4F8EEC90E09183808308953F92EC
:101800004F925F926F927F928F929F92AF92BF9210
:10181000CF92DF92EF92FF920F931F93CF93DF93BC
:10182000EC014A015B01122F3E2C60E072E18AE775
:1018300090E0A50194010E94901569017A0184E06D
:10184000C80ED11CE11CF11C83E0F694E794D794F8
:10185000C7948A95D1F760E074E284EF90E0A50127
:1018600094010E94901529013A0194E0490E511CFF
:10187000611C711C93E076946794579447949A95F1
:10188000D1F7A30192014427552760E874E88EE15F
:1018900090E00E94B2155901A818B908B7FE03C01C
:1018A000B194A194B108A70196014427552760E49B
:1018B00072E48FE090E00E94B2152819390937FFD1
:1018C00003C0319521953109FE01EC5AFF4F01907B
:1018D000F081E02DA216B3063CF482E08083620121
:1018E00081E0C81AD10804C0108291E0C91AD10859
:1018F0001630C1F018F4153099F405C0173029F0EE
:10190000193071F404C080E00EC084E00CC0FE0108
:10191000EA5AFF4F0190F081E02D8081846080833E
:1019200086E001C082E0023009F4886091E0391657
:1019300021F092E0391204C002C0806301C08062CD
:10194000FE01E85AFF4F0190F081E02D8083FE01F7
:10195000E05BFF4F0190F081E02DD082FE01EE5A56
:10196000FF4F0190F081E02DC082CA5ADF4FE8811D
:10197000F98188E98083DF91CF911F910F91FF90CA
:10198000EF90DF90CF90BF90AF909F908F907F901F
:101990006F905F904F903F9008950F931F93CF9358
:1019A000DF931F92CDB7DEB78C01DC01ED91FC9186
:1019B0000190F081E02D6983099569818097D0F4C9
:1019C000F80184819581019695838483868197812E
:1019D000E80FF91F628701968032910534F4D8012F
:1019E00017969C938E93169703C0F8011782168260
:1019F00081E001C080E00F90DF91CF911F910F91A6
:101A000008951F920F920FB60F9211242F933F93B8
:101A10004F935F936F937F938F939F93AF93BF93F6
:101A2000EF93FF93E0917202F0917302608184E280
:101A300092E00E94CD0CFF91EF91BF91AF919F91E9
:101A40008F917F916F915F914F913F912F910F9067
:101A50000FBE0F901F9018951F920F920FB60F9206
:101A600011242F933F934F935F936F937F938F93A3
:101A70009F93AF93BF93EF93FF93E091CE02F091CA
:101A8000CF02608180E892E00E94CD0CFF91EF913F
:101A9000BF91AF919F918F917F916F915F914F9186
:101AA0003F912F910F900FBE0F901F90189560E0FF
:101AB00084E792E00E947B0B61E088E192E00C9465
:101AC0007B0B1F93CF93DF93182FEB01209721F40B
:101AD00060E00E94F80940E0143079F1153029F1F6
:101AE0001630E9F1173099F1133169F0143109F02A
:101AF00044C011C060E001C061E0812FDF91CF914F
:101B00001F910C94F80960E084E193E00E940314B3
:101B1000AE0160E007C061E084E193E00E9403143D
:101B2000AE0161E084E193E023C060E082EF92E0E7
:101B30000E940314AE0160E007C061E082EF92E012
:101B40000E940314AE0161E082EF92E011C060E0F8
:101B500080ED92E00E940314AE0160E007C061E0F6
:101B600080ED92E00E940314AE0161E080ED92E00E
:101B7000DF91CF911F910C943014C038D10508F437
:101B8000B9CFBACFCF92DF92EF92FF920F931F930C
:101B9000CF93DF936C01EB017A01E60EF71E00E0B4
:101BA00010E00BC06991D601ED91FC910190F0819C
:101BB000E02DC6010995080F191FCE15DF0591F715
:101BC000C801DF91CF911F910F91FF90EF90DF90AF
:101BD000CF9008956115710581F0DB010D90002013
:101BE000E9F7AD0141505109461B570BDC01ED915E
:101BF000FC910280F381E02D099480E090E008954B
:101C0000DC01ED91FC910190F081E02D0994DC0163
:101C1000ED91FC91DB0114964D915C9115976D91BE
:101C20007C910280F381E02D09940F931F93CF9351
:101C3000DF93EC016DE00E94000E8C016AE0CE01A2
:101C40000E94000E9C01200F311FC901DF91CF912E
:101C50001F910F9108950F931F93CF93DF93EC0182
:101C60000E94070E8C01CE010E94150E9C01200FD0
:101C7000311FC901DF91CF911F910F9108950F93EB
:101C80001F93CF93DF93EC010E94EA0D8C01CE01EC
:101C90000E94150E9801280F391FC901DF91CF91BD
:101CA0001F910F910895FC01808191810C948316FE
:101CB000CF93DF93EC0188819981009711F00E9406
:101CC0008316198218821D821C821B821A82DF9160
:101CD000CF9108950F931F93CF93DF93EC018B0166
:101CE0006F5F7F4F888199810E942017009731F0A4
:101CF000998388831B830A8381E001C080E0DF91A0
:101D0000CF911F910F910895CF93DF93EC018881BC
:101D10009981892B31F08A819B818617970708F07A
:101D20000CC0CE010E946A0E882349F08C819D81EF
:101D3000892B19F4E881F981108281E001C080E0EB
:101D4000DF91CF910895EF92FF920F931F93CF935E
:101D5000DF93EC017B018A01BA010E94840E81119C
:101D600004C0CE010E94580E07C01D830C83B7012A
:101D7000888199810E943818CE01DF91CF911F91FF
:101D80000F91FF90EF900895DC0111961C921E9226
:101D900013961C921E92129715961C921E921497DF
:101DA00016961C926115710559F0DB010D9000200B
:101DB000E9F7AD0141505109461B570B0C94A30E96
:101DC0000895CF93DF93EC01FB018617970761F02D
:101DD000608171816115710529F0448155810E94EE
:101DE000A30E02C00E94580ECE01DF91CF9108953C
:101DF000FC011182108213821282158214821682D3
:101E00000C94E10ECF93DF93D82FC92F6115710584
:101E100061F0DB010D900020E9F7AD01415051095F
:101E2000461B570B0E94A30E02C00E94580E8D2F16
:101E30009C2FDF91CF9108950F931F93CF93DF9342
:101E4000CDB7DEB762970FB6F894DEBF0FBECDBF39
:101E50008C01CB01F801118210821382128215824B
:101E60001482168250E0BE016F5F7F4F0E945C18A3
:101E7000BE016F5F7F4FC8010E94020F62960FB6CE
:101E8000F894DEBF0FBECDBFDF91CF911F910F91B0
:101E90000895EF92FF920F931F93CF93DF93EC017E
:101EA0007B010C811D816115710511F480E016C064
:101EB0004115510591F0040F151FB8010E94840EC1
:101EC0008823A1F3288139818C819D81B701820FFC
:101ED000931F0E9438181D830C8381E0DF91CF91FE
:101EE0001F910F91FF90EF900895CF93DF9300D053
:101EF000CDB7DEB769831A8241E050E0BE016F5F63
:101F00007F4F0E94490F0F900F90DF91CF9108955E
:101F1000CF93DF93D82FC92F0E94750F811104C072
:101F20008D2F9C2F0E94580E8D2F9C2FDF91CF91CB
:101F30000895CF93DF93DC01ED91FC91EB01A88133
:101F4000B981309711F01097C9F4109759F0EB014F
:101F50002C813D81232B31F02C9130E0319521955E
:101F6000310914C0309781F0DC0114968D919C9159
:101F70001597892B49F0208130E008C0BD01CF01C1
:101F8000DF91CF910C942F1820E030E0C901DF9150
:101F9000CF910895FC0144815581FB012481358155
:101FA0004217530729F40E94990F21E0892B09F069
:101FB00020E0822F0895DC0114962D913C91159715
:101FC000232B39F481E06115710511F0FB0108C084
:101FD0000895DC01ED91FC916115710529F481E012
:101FE0009081992349F007C0CF010E942F189C01CE
:101FF00081E0232B09F080E00895FA01DB011496BB
:102000004D915C911597DC0114962D913C9115979B
:10201000241B350B2E173F0790F08D919C91009754
:1020200071F0DB016D917C916115710541F08E0FAE
:102030009F1F0E943F189C0181E0232B09F080E044
:102040000895FC0144815581FB01248135814217AB
:10205000530720F040E050E00C94FD0F80E008951D
:102060000F931F93CF93DF93EB0141155105E9F0D7
:102070002097D9F0FC01048115812017310708F061
:1020800013C041505109021B130B4017510708F4AC
:102090008A01FC0160817181620F731FA801CE016A
:1020A0000E944D18C00FD11F1882DF91CF911F9150
:1020B0000F910895CF93DF93FC0184819581481798
:1020C000590780F4C081D181772767FD7095CE01D3
:1020D000840F951F0E942418009721F09C012C1B4F
:1020E0003D0B02C02FEF3FEFC901DF91CF91089563
:1020F000BF92CF92DF92EF92FF920F931F93CF93F5
:10210000DF936C017B01EA0189012417350720F474
:102110008D2FE901042F182F6AE371E0C6010E9498
:10212000C40ED70114968D919C9115978C179D071D
:10213000C8F08017910708F48C01D701ED91FC914C
:102140001197E00FF11FB08010826D917C916C0FA0
:102150007D1FC6010E94020FD701ED91FC91E00F97
:10216000F11FB082C601DF91CF911F910F91FF90B7
:10217000EF90DF90CF90BF900895AF92BF92CF9233
:10218000DF92EF92FF920F931F93CF93DF936C0137
:10219000DC01ED90FC901197E114F10409F447C0C3
:1021A00014960D911C9115970115110509F43FC066
:1021B0005701E501BFEFAB1ABB0A8881992787FD5C
:1021C00090950E941318892BA1F7015011090E0D4B
:1021D0001F1DF8018081992787FD90950E94131893
:1021E000892B69F40F5F1F4F0C1B1D0BD601159631
:1021F0001C930E931497EC16FD0650F404C00C17B4
:102200001D0790F4EFCFA801BE01C7010E941B1863
:10221000D601ED91FC91119714968D919C91159793
:10222000E80FF91F108203C001501109D2CFDF91CE
:10223000CF911F910F91FF90EF90DF90CF90BF90C3
:10224000AF900895FC0180819181009711F00C946A
:10225000EC1760E070E080E090E0089563E084E1D6
:1022600093E00E94ED1321E04DE359E060E084E14A
:1022700093E00E94C31364E084E193E00E94F012B3
:1022800061E082EF92E00E94ED1364E082EF92E061
:102290000E94F01261E080ED92E00E94ED1364E094
:1022A00080ED92E00E94F012789408951F920F92B0
:1022B0000FB60F9211242F933F934F935F936F9319
:1022C0007F938F939F93AF93BF93EF93FF93E0918F
:1022D0002E03F0912F03309709F00995FF91EF91AC
:1022E000BF91AF919F918F917F916F915F914F912E
:1022F0003F912F910F900FBE0F901F9018951F9236
:102300000F920FB60F9211242F933F934F935F9329
:102310006F937F938F939F93AF93BF93EF93FF93AD
:10232000E0913003F0913103309709F00995FF9166
:10233000EF91BF91AF919F918F917F916F915F913D
:102340004F913F912F910F900FBE0F901F901895B6
:102350001F920F920FB60F9211242F933F934F931A
:102360005F936F937F938F939F93AF93BF93EF93FD
:10237000FF93E0912C03F0912D03309709F009951C
:10238000FF91EF91BF91AF919F918F917F916F914D
:102390005F914F913F912F910F900FBE0F901F9023
:1023A00018951F920F920FB60F9211242F933F93FF
:1023B0004F935F936F937F938F939F93AF93BF934D
:1023C000EF93FF93E091EA02F091EB02309709F06E
:1023D0000995FF91EF91BF91AF919F918F917F915F
:1023E0006F915F914F913F912F910F900FBE0F9082
:1023F0001F9018951F920F920FB60F9211242F93D2
:102400003F934F935F936F937F938F939F93AF937C
:10241000BF93EF93FF93E091EC02F091ED023097C0
:1024200009F00995FF91EF91BF91AF919F918F9125
:102430007F916F915F914F913F912F910F900FBEC0
:102440000F901F9018951F920F920FB60F921124A4
:102450002F933F934F935F936F937F938F939F93AC
:10246000AF93BF93EF93FF93E091E802F091E902FD
:10247000309709F00995FF91EF91BF91AF919F912E
:102480008F917F916F915F914F913F912F910F901D
:102490000FBE0F901F9018951F920F920FB60F92BC
:1024A00011242F933F934F935F936F937F938F9359
:1024B0009F93AF93BF93EF93FF93E0910C03F09141
:1024C0000D03309709F00995FF91EF91BF91AF91FE
:1024D0009F918F917F916F915F914F913F912F913C
:1024E0000F900FBE0F901F9018951F920F920FB66E
:1024F0000F9211242F933F934F935F936F937F938A
:102500008F939F93AF93BF93EF93FF93E0910E034D
:10251000F0910F03309709F00995FF91EF91BF916A
:10252000AF919F918F917F916F915F914F913F916B
:102530002F910F900FBE0F901F9018951F920F9222
:102540000FB60F9211242F933F934F935F936F9386
:102550007F938F939F93AF93BF93EF93FF93E091FC
:102560000A03F0910B03309709F00995FF91EF9161
:10257000BF91AF919F918F917F916F915F914F919B
:102580003F912F910F900FBE0F901F9018951F92A3
:102590000F920FB60F9211242F933F934F935F9397
:1025A0006F937F938F939F93AF93BF93EF93FF931B
:1025B000E0911203F0911303309709F00995FF9110
:1025C000EF91BF91AF919F918F917F916F915F91AB
:1025D0004F913F912F910F900FBE0F901F90189524
:1025E000DC012C916150223039F4673068F4E62F19
:1025F000F0E0EA58FE4F06C0693030F4E62FF0E014
:10260000E358FE4F208101C020E0DC011A96ED91D5
:10261000FC911B978081887F822B80830895CF93C4
:10262000DF93EC016883613011F120F0623009F032
:102630006CC048C01B821A8286E490E09D838C8324
:102640008EE690E09F838E8384E490E0998788876C
:1026500085E490E09B878A871D861C8687E490E04E
:102660009F878E87198A188A88E490E022C08FE6B7
:1026700090E09F838E8385E890E09B838A8384E843
:1026800090E09D838C8380E890E09987888781E83B
:1026900090E09B878A8789E890E09D878C8788E80F
:1026A00090E09F878E878BE890E0998B888B8AE8F3
:1026B00090E09B8B8A8B1D8A1C8A1F8A1E8A82E06F
:1026C000898323C01B821A8282EB90E09D838C83D6
:1026D00080E790E09F838E8380EB90E099878887E6
:1026E00081EB90E09B878A871D861C8683EB90E0B8
:1026F0009F878E87198A188A84EB90E09B8B8A8B40
:102700001D8A1C8A1F8A1E8A698360E0CE010E948E
:10271000F012EA81FB81309709F01082EC81FD8193
:102720001082198E188E1B8E1A8E1D8E1C8E1F8E77
:102730001E8E19A218A2DF91CF91089551E0411188
:1027400001C050E06530F0F4E62FF0E0EA57FE4FAC
:10275000408147FD17C0DC011696ED91FC9117975B
:10276000808121E030E0042E01C0220F0A94EAF7B4
:1027700020952823852F042E01C0880F0A94EAF79C
:10278000282B20830895623099F028F4662341F0C5
:102790006130C9F409C0633079F06430A1F410C02D
:1027A000FC01518F408F0FC0FC01538F428F0BC033
:1027B000FC01558F448F07C0FC01578F468F03C023
:1027C000FC0151A340A3452B11F440E003C0222398
:1027D00019F041E00C949E130895DC011896ED91D8
:1027E000FC9119973081262F23703C7F232B208367
:1027F0001A96ED91FC911B9780816C70660F877E15
:10280000682B60830895FC018181681740F59081F1
:10281000992311F0923011F4813049F0662329F0A8
:10282000613029F0623031F404C026E003C024E0B6
:1028300001C022E00084F185E02D308183E090E04A
:10284000022E01C0880F0A94EAF780958323437013
:10285000022E01C0440F0A94EAF7842B8083089566
:10286000FC0181816817F8F4611109C0A485B58560
:10287000109709F05C930684F785E02D13C0613052
:1028800049F4A089B189109709F05C930288F38913
:10289000E02D08C0623039F4A489B5895C930688BC
:1028A000F789E02D4083089560E084E193E00E9481
:1028B0000F1361E082EF92E00E940F1362E080ED5F
:1028C00092E00C940F1340D008F481E00895E8944E
:1028D00009C097FB3EF490958095709561957F4F68
:1028E0008F4F9F4F9923A9F0F92F96E9BB27939516
:1028F000F695879577956795B795F111F8CFFAF426
:10290000BB0F11F460FF1BC06F5F7F4F8F4F9F4F56
:1029100016C0882311F096E911C0772321F09EE8B4
:10292000872F762F05C0662371F096E8862F70E01A
:1029300060E02AF09A95660F771F881FDAF7880FF4
:102940009695879597F90895990F0008550FAA0B4A
:10295000E0E8FEEF16161706E807F907C0F01216B2
:102960001306E407F50798F0621B730B840B950BB5
:1029700039F40A2661F0232B242B252B21F408950A
:102980000A2609F4A140A6958FEF811D811D0895A7
:1029900097F99F6780E870E060E008959FEF80EC12
:1029A000089500240A9416161706180609060895B5
:1029B00000240A9412161306140605060895092E1B
:1029C0000394000C11F4882352F0BB0F40F4BF2B8A
:1029D00011F460FF04C06F5F7F4F8F4F9F4F0895CA
:1029E00057FD9058440F551F59F05F3F71F04795C0
:1029F000880F97FB991F61F09F3F79F087950895A5
:102A0000121613061406551FF2CF4695F1DF08C0C3
:102A1000161617061806991FF1CF869571056105E0
:102A200008940895E894BB2766277727CB0197F988
:102A300008950BD0C4CFB5DF28F0BADF18F0952386
:102A400009F0A6CFABCF1124EECFCADFA0F3959F3C
:102A5000D1F3950F50E0551F629FF001729FBB2785
:102A6000F00DB11D639FAA27F00DB11DAA1F649F31
:102A70006627B00DA11D661F829F2227B00DA11DE4
:102A8000621F739FB00DA11D621F839FA00D611D6A
:102A9000221F749F3327A00D611D231F849F600D8B
:102AA000211D822F762F6A2F11249F5750408AF0C4
:102AB000E1F088234AF0EE0FFF1FBB1F661F771F50
:102AC000881F91505040A9F79E3F510570F060CF8C
:102AD000AACF5F3FECF3983EDCF386957795679538
:102AE000B795F795E7959F5FC1F7FE2B880F911D6E
:102AF0009695879597F9089597FB072E16F40094FD
:102B000007D077FD09D00E94CE1507FC05D03EF412
:102B1000909581959F4F0895709561957F4F089589
:102B2000A1E21A2EAA1BBB1BFD010DC0AA1FBB1FD1
:102B3000EE1FFF1FA217B307E407F50720F0A21B43
:102B4000B30BE40BF50B661F771F881F991F1A94B0
:102B500069F760957095809590959B01AC01BD01DA
:102B6000CF010895052E97FB16F4009407D057FD6A
:102B70000DD00E94901507FC09D07EF490958095A9
:102B8000709561957F4F8F4F9F4F08955095409559
:102B9000309521953F4F4F4F5F4F0895AA1BBB1BA8
:102BA00051E107C0AA1FBB1FA617B70710F0A61B4D
:102BB000B70B881F991F5A95A9F780959095BC016E
:102BC000CD010895EE0FFF1F0590F491E02D0994BB
:102BD0000F931F93CF93DF938230910510F482E01F
:102BE00090E0E0913803F091390320E030E0C0E05C
:102BF000D0E023C04081518148175907A8F04817F9
:102C0000590761F482819381209719F09B838A830D
:102C10002EC0909339038093380329C021153105C4
:102C200029F04217530710F0A90102C0BE01DF01CD
:102C300002811381EF019A01F8013097D9F621152D
:102C4000310509F1281B390B2430310590F4129617
:102C50008D919C9113976115710521F0FB01938370
:102C6000828304C09093390380933803FD01329628
:102C700044C0FD01E20FF31F81939193225031096B
:102C80002D933C933AC02091360330913703232B88
:102C900041F42091020130910301309337032093D6
:102CA000360320910001309101012115310541F4D5
:102CB0002DB73EB74091040150910501241B350BFF
:102CC000E0913603F0913703E217F307A0F42E1BCF
:102CD0003F0B2817390778F0AC014E5F5F4F241780
:102CE000350748F04E0F5F1F50933703409336036C
:102CF0008193919302C0E0E0F0E0CF01DF91CF91AA
:102D00001F910F910895EF92FF920F931F93CF930E
:102D1000DF93009709F48FC0DC01129713961C9281
:102D20001E921297E0903803F0903903E114F104F9
:102D300089F42D913C911197280F391F809136030A
:102D4000909137038217930789F5B0933703A093C7
:102D5000360371C0E70120E030E001C0EA01CA1784
:102D6000DB0738F44A815B819E0141155105B1F7BB
:102D700022C0BC0162507109FB01D383C283008170
:102D80001181AC01400F511F4C175D0761F4488160
:102D90005981400F511F4E5F5F4F518340834A81DD
:102DA0005B81538342832115310529F4B0933903A4
:102DB000A093380340C0F901B383A283E90169916C
:102DC0007991C60FD71FAC17BD0779F4DC015E916E
:102DD0004E91460F571F4E5F5F4F518340831296AF
:102DE0008D919C91139793838283A0E0B0E002C001
:102DF000D7017C01F701828193810097C9F7C70150
:102E0000029620813181820F931F209136033091E9
:102E100037032817390779F4109729F410923903EA
:102E20001092380304C013961C921E921297F092CF
:102E30003703E0923603CDB7DEB7E6E00C94E31833
:102E4000A0E0B0E0E6E2F7E10C94C118EC010097D5
:102E500029F4CB010E94E815EC01B8C0DC01A60FF3
:102E6000B71FFC013297AE17BF0718F4C0E0D0E0DF
:102E7000ADC00081118106171707B0F005301105AC
:102E800008F4A4C0C80104978617970708F49EC0E9
:102E900002501109061B170B0D931D93718360835C
:102EA000CD010E94831692C07B01E01AF10A5C01F9
:102EB000A00EB11EE0913803F0913903812C912CC2
:102EC00080E090E04CC0EA15FB05F1F540815181AE
:102ED0006A0122E0C20ED11CCE14DF04A8F19A01CF
:102EE0002E193F097901690132E0C30ED11C2EEF82
:102EF000A22EBB24BA94AC0EBD1E25E0C216D1048E
:102F000078F04281538113965C934E9312971196F9
:102F1000FC92EE92F501718360833A2F2B2F09C04A
:102F20000E5F1F4F040F151FD5010D931C933281A7
:102F30002381009721F0FC013283238347C0309323
:102F400038032093390342C0808191818816990605
:102F500008F44C0152814381CF01E52FF42F3097C3
:102F600009F0B1CF80913603909137038A159B0504
:102F7000F1F486169706D8F4809100019091010132
:102F8000009741F48DB79EB720910401309105015F
:102F9000821B930BA817B90708F068CFB0933703CB
:102FA000A0933603FE013297718360830FC0CB017B
:102FB0000E94E8157C01009709F458CFA801BE01D2
:102FC0000E941B18CE010E948316E701CE01CDB7E7
:102FD000DEB7ECE00C94DD181F93FC0199278827DD
:102FE000BC01E89411911032E9F3193010F01E3051
:102FF000C8F31B3251F01D3249F4689406C00E9498
:103000007D18610F711D811D911D119110531A3092
:10301000B0F33EF490958095709561957F4F8F4FFA
:103020009F4F1F910895911193C0803219F08950DC
:103030008550D0F70895FB01DC0102C001900D928C
:1030400041505040D8F70895FC018191861721F036
:103050008823D9F7992708953197CF010895FB0167
:10306000DC018D91019080190110D9F3990B08951D
:10307000FB01DC0101900D920020E1F70895FB01B6
:10308000DC014150504030F08D910190801919F4CD
:103090000020B9F7881B990B0895FB01DC01415012
:1030A000504048F001900D920020C9F701C01D92D8
:1030B00041505040E0F70895FB019F01E8944230F1
:1030C000C4F04532B4F44A3029F497FB1EF49095CD
:1030D00081959F4F642F77270E94CE15805D8A339C
:1030E0000CF0895D8193CB010097A1F716F45DE2A6
:1030F00051931082C9010C94AB18592F482F372FC8
:10310000262F660F771F881F991F660F771F881F4E
:10311000991F620F731F841F951F660F771F881FEB
:10312000991F0895F999FECF92BD81BDF89A99270C
:1031300080B50895262FF999FECF1FBA92BD81BDA3
:1031400020BD0FB6F894FA9AF99A0FBE0196089529
:10315000992788270895DC01FC01672F7191772357
:10316000E1F7329704C07C916D9370836291AE1742
:10317000BF07C8F308952F923F924F925F926F92CC
:103180007F928F929F92AF92BF92CF92DF92EF92F7
:10319000FF920F931F93CF93DF93CDB7DEB7CA1B78
:1031A000DB0B0FB6F894DEBF0FBECDBF09942A88A3
:1031B000398848885F846E847D848C849B84AA844B
:1031C000B984C884DF80EE80FD800C811B81AA81D8
:1031D000B981CE0FD11D0FB6F894DEBF0FBECDBFA3
:1031E000ED01089510E0C2E8D0E004C0FE010E94A5
:0E31F000E4152296C438D107C9F7F894FFCF32
:1031FE0000003A032000202020200400881315161A
:10320E0017111213143132333435363738392A3018
:10321E002310000600070005000B000C001800012B
:10322E000148003300310034003000530052004199
:10323E0000430055004444003233393900563B00F8
:10324E003200000000007B0AC20D2D0A320A580A15
:10325E00460A00000000530AD30AD90A00000000F3
:10326E004E0AC70ACD0A0102030405060701020031
:0C327E0003000405060700010203050020
:00000001FF
