:100000000C9442000C946A000C946A000C946A00F0
:100010000C946A000C946A000C946A000C946A00B8
:100020000C946A000C94780B0C94A10B0C94CA0BE2
:100030000C946E0C0C94F30B0C941C0C0C94450C4F
:100040000C94FD0A0C94260B0C944F0B0C946A0034
:100050000C94D9080C948C060C946A000C946A00D9
:100060000C946A000C946A000C946A000C946A0068
:100070000C94AE080C94DA060C946A00570204093A
:10008000FB0D6F0211241FBECFEFD0E1DEBFCDBF4D
:1000900011E0A0E0B1E0ECE9F3E202C005900D92BE
:1000A000A238B107D9F713E0A2E8B1E001C01D9270
:1000B000AC31B107E1F710E0C2E8D0E004C022970C
:1000C000FE010E94630FCC37D107C9F70E94D30508
:1000D0000C94C1110C94000042E00C940E0960E0F5
:1000E00070E0809137010E946C006FEF70E08091AA
:1000F00035010E946C006FEF70E0809133010C9429
:100100006C00EF920F93E12C01E028E040E855E20B
:1001100060E070E086E592E00E94AC0761E08091CB
:100120003B010E94530560E0809139010E94530514
:1001300061E0809137010E94530561E080913501B3
:100140000E94530561E0809133010E94530560E0F5
:10015000809131010E94530561E080913D010E9430
:1001600053053F9A0F980F91EF9008950F931F93A7
:100170008FE10E94BA04BC01882777FD8095982FF3
:100180000E94100E2DEC3CEC4CEA50E40E94C00E94
:1001900020E030E040E85AE30E94C00EFB01462F09
:1001A0005F2F682F792F40938701509388016093C8
:1001B000890170938A012AE939E949E95FE3BF01BE
:1001C0000E940A0E18160CF44AC0479A0E941F0596
:1001D0000091820110918301209184013091850169
:1001E000601B710B820B930B00911C0110911D0180
:1001F000222717FD2095322F0617170728073907E2
:10020000A8F461E080913D010E94A50568EE73E0CD
:1002100080E090E00E9431050E941F0560938201FA
:10022000709383018093840190938501809186016E
:10023000811120C00E941F05609382017093830189
:10024000809384019093850181E08093860161E42D
:1002500071E086E592E01F910F910C94CA094798CE
:1002600010928601109282011092830110928401F3
:10027000109285011F910F910895CF93DF93809184
:1002800031010E948105C82FD0E0D093B601C09300
:10029000B501C130D105B1F461E080913B010E940C
:1002A000A5058091B3019091B401892BD1F463E449
:1002B00071E086E592E00E94CA09D093B401C09330
:1002C000B3010FC060E080913B010E94A5058091C1
:1002D000B3019091B401019721F41092B4011092EE
:1002E000B301DF91CF910895823579F46FEF70E01B
:1002F000809137010E946C0060E070E080913501D0
:100300000E946C006FEF70E010C0873491F46FEFC3
:1003100070E0809137010E946C006FEF70E0809177
:1003200035010E946C0060E070E0809133010C9414
:100330006C00823411F40C946F000895CF93609197
:100340000A0170910B012CE031E040E050E00DC05B
:10035000C191D901A80FB91FAC91AC1310C001967F
:1003600086179707ACF381E00FC0461757072CF4A8
:10037000E6E0F1E080E090E0F3CF80E005C04F5F81
:100380005F4F2C5F3F4FF1CFCF910895833229F417
:100390001092AB011092AA0108958A3219F41092BA
:1003A000B20108952091AA013091AB01F901EA5FF1
:1003B000FE4F80832F5F3F4F3093AB012093AA0104
:1003C00008958BE891E00E943D03882309F46EC0F4
:1003D0000E94C6012091AA013091AB0180910A01CF
:1003E00090910B012817390709F060C01092AB01FA
:1003F0001092AA010E949E01811150C08091AC010F
:100400009091AD01039791F549C08091AC01909115
:10041000AD01039709F04AC08091A90181110FC075
:1004200065E471E086E592E00E94CA0965E471E046
:100430008AEF91E00E94CA0981E08093A90160914E
:100440001C0170911D01882777FD8095982F0E94CF
:10045000310582E50E94740161E080913D010E94B6
:10046000A5051092AD011092AC01089582E50E949D
:10047000740161E080913D010E94A50568EE73E082
:1004800080E090E00E9431058091AC019091AD0137
:1004900001969093AD018093AC01B7CF1092AD015E
:1004A0001092AC0181E08093B201AFCF0895EF923A
:1004B0000F9366E471E089EE91E00E944F0A83E0B9
:1004C000E82E04E02EE131E041E251E065E271E026
:1004D0008BE891E00E9487040F91EF90089589EED8
:1004E00091E00C94DE09CF93DF93D1E018C086E54C
:1004F00092E00E940506C82F682F89EE91E00E94C5
:10050000980ACA3061F420E030E042E350E067EB43
:1005100071E089EE91E00E94AB0AD093F00186E58C
:1005200092E00E94DA05181619060CF3DF91CF91BC
:100530000895CF92DF92EF92FF920F931F93CF9384
:100540000E9473020E94B6000E943D010E94E101D8
:10055000809139010E948105C82F2091B00130910E
:10056000B10180911C0190911D0128173907C4F039
:1005700082E50E9474018091A90181110CC067E499
:1005800071E086E592E00E94CA0967E471E08AEFB3
:1005900091E00E94CA0981E08093A90161E038C01E
:1005A0008091B201882379F187E40E9474010E944E
:1005B0001F057093AF016093AE016AE070E080E0C8
:1005C00090E00E9431050E941F054091B0015091BA
:1005D000B1018A01222717FD2095322FC090AE016C
:1005E000D090AF01EE24D7FCE094FE2C0C191D092D
:1005F0002E093F09060F171F281F391F1093B1013D
:100600000093B00109C00E946F001092A90160E040
:1006100080913D010E94A505C13019F4C093B2013B
:100620000EC00E949E01882321F08091B2018111A9
:1006300006C01092B2011092B1011092B001CF9198
:100640001F910F91FF90EF90DF90CF900895DC0104
:1006500018968D919C9119978617970769F01996AE
:100660007C936E9318975C96ED91FC915D97309713
:1006700019F01A968C91099408954F925F926F9297
:100680007F92AF92BF92CF92DF92EF92FF920F9341
:100690001F93CF93DF93EC01A12CA8C00A2D10E08B
:1006A000EC81FD81E00FF11F60E080810E94A505D3
:1006B000B12C68018EC0EB2CF12C8F81E881F9817F
:1006C000EC0DFD1DB89EE00DF11D11249A85808171
:1006D00098133CC00E941F054E845F846888798807
:1006E00064197509860997094A8C5B8C612C712CF9
:1006F000641575058605970550F0EA81FB81EE0DBE
:10070000FF1D80810E948105882309F498C00E9402
:100710001F054E845F846888798864197509860985
:100720009709488C598C612C712C641575058605C8
:10073000970508F493C0EA81FB81EB0DF11D8081E0
:100740000E948105813009F089C07FC00E941F0589
:100750004E845F84688879886419750986099709C9
:10076000488C598C612C712C64157505860597058C
:1007700078F1EA81FB81EE0DFF1D80810E948105E9
:10078000811126C0EC81FD81E00FF11F61E08081C5
:100790000E94A5052F812E9DC0012F9D900D112433
:1007A000E881F981EC0DFD1DE80FF91FF0808E85C1
:1007B0009F85A889B9898A8B9B8BAC8BBD8B0E9446
:1007C0001F056E877F87888B998BF11015C005C038
:1007D000B3948E81B81608F46ECFEC81FD81E00FE2
:1007E000F11F61E080810E94A505A3948F81A81666
:1007F00008F454CF80E040C08B85F81239C00E94C5
:100800001F050A891B892C893D89601B710B820B8E
:10081000930B0E891F8920E030E006171707280781
:10082000390710F525C081E090E09D878C87FA8616
:1008300061E070E0CE010E9427038A851DC063E05D
:1008400070E0CE010E94270362CF62E070E0CE012B
:100850000E9427038A858B871A86BFCF8885998552
:10086000039709F0B5CFB9CF8C859D850196DDCF73
:100870008A85F812D8CFBECFDF91CF911F910F910B
:10088000FF90EF90DF90CF90BF90AF907F906F90F0
:100890005F904F900895FF920F931F93CF93DF9334
:1008A000EC01F12C13C00F2D10E0EA81FB81E00F69
:1008B000F11F60E080810E945305EA81FB81E00F17
:1008C000F11F61E080810E94A505F3948E81F816E6
:1008D00050F3F12C13C00F2D10E0EC81FD81E00FDF
:1008E000F11F61E080810E945305EC81FD81E00FE2
:1008F000F11F61E080810E94A505F3948F81F816B5
:1009000050F3DF91CF911F910F91FF900895EF92D7
:100910000F93FC0153834283358324830683E7824C
:100920007183608316861786108A118A128A138A49
:10093000148A158A8CE291E0978B868B82E390E093
:10094000918F808F88EE93E0938F828F158E148E17
:10095000128613861186108615861486CF010F9194
:10096000EF900C944B0480E480937C0087E88093A4
:100970007A000895CF93DF931F92CDB7DEB79091A1
:100980003F01913031F489830E94B30410923F01FA
:10099000898187702091400140E4249F90011124B7
:1009A000822B80937C0080917A00806480937A000F
:1009B00080917A0086FDFCCF2091780030917900FB
:1009C000932F80E0FC01E22B9F01C9010F90DF9182
:1009D000CF9108958091F2019091F301A091F401DB
:1009E000B091F5013091F101232F2D5F2D3720F4C7
:1009F0000196A11DB11D05C0232F2A570296A11DE6
:100A0000B11D2093F1018093F2019093F301A09323
:100A1000F401B093F5018091F6019091F701A09156
:100A2000F801B091F9010196A11DB11D8093F60165
:100A30009093F701A093F801B093F90108950F93F3
:100A40001F938FB7F8940091F2011091F301209158
:100A5000F4013091F5018FBFB801C9011F910F91C9
:100A600008958F929F92AF92BF92CF92DF92EF92B2
:100A7000FF926B017C010E941F054B015C010E94EB
:100A80001F05681979098A099B096C157D058E0572
:100A90009F05A8F3FF90EF90DF90CF90BF90AF90AD
:100AA0009F908F900895982F977021E030E0092E45
:100AB00001C0220F0A94EAF786958695869581F003
:100AC000813089F0823091F08330D1F412C080817E
:100AD0002095822302C08081822B80839FBF08954E
:100AE000EAE2F0E008C0E7E2F0E005C0E4E2F0E0AE
:100AF00002C0E1E2F0E09FB7F894662341F3EBCF48
:100B00000895982F977021E030E001C0220F9A9548
:100B1000EAF786958695869539F0813041F08230E6
:100B200049F0833051F00895E9E2F0E008C0E6E2D0
:100B3000F0E005C0E3E2F0E002C0E0E2F0E0908126
:100B4000922381E009F480E00895982F977021E0C6
:100B500030E0092E01C0220F0A94EAF786958695A7
:100B6000869581F0813089F0823091F08330D1F424
:100B700012C080812095822302C08081822B8083D5
:100B80009FBF0895EBE2F0E008C0E8E2F0E005C0A6
:100B9000E5E2F0E002C0E2E2F0E09FB7F8946623FD
:100BA00041F3EBCF08950E94D50A0E9481000E9474
:100BB0009902FDCFFC0120893189C9010895DC012A
:100BC00050962D913C915197232B49F05496ED91DD
:100BD000FC915597E80FF91F268930E002C02FEFEE
:100BE0003FEFC9010895FC01118A108A158A148A01
:100BF000138A128A0895FC0124813581C901089560
:100C0000FC0124813581C9010895FC018089918905
:100C1000892BD1F03FB7F894808991890197918B06
:100C2000808B84899589DF01A80FB91F56962C9176
:100C30000196803291051CF4958B848B02C0158A35
:100C4000148A3FBF30E002C02FEF3FEFC901089583
:100C5000EF92FF921F93CF93DF931F92CDB7DEB732
:100C60007C01D701DA968D919C91DB974097C8F76C
:100C70001FB7F894D696ED91FC91D7970190F0812B
:100C8000E02DC701C6966983099569814097C8F42C
:100C9000F70182AD93AD019693AF82AF84AD95AD70
:100CA000E80FF91FE05CFF4F60830196D701DD96E6
:100CB0009C938E93DC97409724F0DD961C921E92B5
:100CC000DC97F701EA5AFF4F0190F081E02D808117
:100CD000806280831FBF81E090E00F90DF91CF9111
:100CE0001F91FF90EF900895665F7F4F680F791F07
:100CF000CB010895665F7F4F680F791FCB01089580
:100D0000665F7F4F680F791FCB010895665F7F4F45
:100D1000680F791FCB0108951F920F920FB60F92A3
:100D200011242F938F939F93AF93BF93EF93FF93D0
:100D30008091900290919102892B21F1E091B00273
:100D4000F091B1028091900290919102019790935D
:100D50009102809390028091940290919502DC011F
:100D6000A457BD4F1A962C910196803191052CF411
:100D7000909395028093940204C010929502109271
:100D8000940220838091900290919102892B31F4FA
:100D9000E091AC02F091AD0288E98083FF91EF9180
:100DA000BF91AF919F918F912F910F900FBE0F9098
:100DB0001F9018951F920F920FB60F9211242F9328
:100DC0008F939F93AF93BF93EF93FF9380913402E0
:100DD00090913502892B21F1E0915402F091550256
:100DE000809134029091350201979093350280935F
:100DF00034028091380290913902DC01A05DBD4F30
:100E00001A962C910196803191052CF49093390219
:100E10008093380204C01092390210923802208365
:100E20008091340290913502892B31F4E091500287
:100E3000F091510288E98083FF91EF91BF91AF91CA
:100E40009F918F912F910F900FBE0F901F9018952B
:100E5000FC01262F1382128248EE53E060E070E01E
:100E600044835583668377838DE491E09183808307
:100E70008DE591E09587848780E290E0978786876B
:100E8000118A108A158A148A138A128A87E691E0D9
:100E900097AB86AB80E190E091AF80AF13AE12AE1E
:100EA00017AE16AE15AE14AE222321F0213009F094
:100EB00052C028C0DF01A05BBF4F85EC90E08D934E
:100EC0009C93DF01AE5ABF4F84EC90E08D939C93CE
:100ED000DF01AC5ABF4F80EC90E08D939C93DF0113
:100EE000AA5ABF4F81EC90E08D939C93DF01A85AE2
:100EF000BF4F82EC90E08D939C93E65AFF4F86ECB7
:100F000090E027C0DF01A05BBF4F8DEC90E08D9398
:100F10009C93DF01AE5ABF4F8CEC90E08D939C9375
:100F2000DF01AC5ABF4F88EC90E08D939C93DF01BA
:100F3000AA5ABF4F89EC90E08D939C93DF01A85A89
:100F4000BF4F8AEC90E08D939C93E65AFF4F8EEC56
:100F500090E09183808308953F924F925F926F92C9
:100F60007F928F929F92AF92BF92CF92DF92EF9239
:100F7000FF920F931F93CF93DF93EC014A015B0124
:100F8000122F3E2C60E072E18AE790E0A501940107
:100F90000E94230F69017A0184E0C80ED11CE11C74
:100FA000F11C83E0F694E794D794C7948A95D1F71F
:100FB00060E074E284EF90E0A50194010E94230FA9
:100FC00029013A0194E0490E511C611C711C93E007
:100FD00076946794579447949A95D1F7A301920118
:100FE0004427552760E874E88EE190E00E94450FA1
:100FF0005901A818B908B7FE03C0B194A194B1086B
:10100000A70196014427552760E472E48FE090E041
:101010000E94450F2819390937FF03C031952195E2
:101020003109FE01EC5AFF4F0190F081E02DA2162C
:10103000B3063CF482E08083620181E0C81AD108E3
:1010400004C0108291E0C91AD1081630C1F018F41A
:10105000153099F405C0173029F0193071F404C027
:1010600080E00EC084E00CC0FE01EA5AFF4F019000
:10107000F081E02D80818460808386E001C082E081
:10108000023009F4886091E0391621F092E03912BB
:1010900004C002C0806301C08062FE01E85AFF4FB5
:1010A0000190F081E02D8083FE01E05BFF4F019015
:1010B000F081E02DD082FE01EE5AFF4F0190F081C9
:1010C000E02DC082CA5ADF4FE881F98188E9808328
:1010D000DF91CF911F910F91FF90EF90DF90CF9014
:1010E000BF90AF909F908F907F906F905F904F9048
:1010F0003F9008950F931F93CF93DF931F92CDB727
:10110000DEB78C01DC01ED91FC910190F081E02DC6
:101110006983099569818097D0F4F801848195816C
:1011200001969583848386819781E80FF91F6287F2
:1011300001968032910534F4D80117969C938E93D2
:10114000169703C0F8011782168281E001C080E083
:101150000F90DF91CF911F910F9108951F920F92E1
:101160000FB60F9211242F933F934F935F936F937A
:101170007F938F939F93AF93BF93EF93FF93E091F0
:101180005402F0915502608186E092E00E947A0854
:10119000FF91EF91BF91AF919F918F917F916F914F
:1011A0005F914F913F912F910F900FBE0F901F9025
:1011B00018951F920F920FB60F9211242F933F9301
:1011C0004F935F936F937F938F939F93AF93BF934F
:1011D000EF93FF93E091B002F091B102608182E65B
:1011E00092E00E947A08FF91EF91BF91AF919F9199
:1011F0008F917F916F915F914F913F912F910F90C0
:101200000FBE0F901F90189560E086E592E00E9457
:10121000280761E08AEF91E00C9428071F93CF9391
:10122000DF93182FEB01209721F460E00E94A505C1
:1012300040E0143079F1153029F11630E9F117301A
:1012400099F1133169F0143109F044C011C060E024
:1012500001C061E0812FDF91CF911F910C94A50512
:1012600060E086EF92E00E94AA0DAE0160E007C048
:1012700061E086EF92E00E94AA0DAE0161E086EF88
:1012800092E023C060E084ED92E00E94AA0DAE01DE
:1012900060E007C061E084ED92E00E94AA0DAE011B
:1012A00061E084ED92E011C060E082EB92E00E9488
:1012B000AA0DAE0160E007C061E082EB92E00E94FF
:1012C000AA0DAE0161E082EB92E0DF91CF911F9118
:1012D0000C94D70DC038D10508F4B9CFBACFCF924E
:1012E000DF92EF92FF920F931F93CF93DF936C01E6
:1012F000EB017A01E60EF71E00E010E00BC06991E9
:10130000D601ED91FC910190F081E02DC601099587
:10131000080F191FCE15DF0591F7C801DF91CF9196
:101320001F910F91FF90EF90DF90CF90089561157E
:10133000710581F0DB010D900020E9F7AD0141500E
:101340005109461B570BDC01ED91FC910280F381A2
:10135000E02D099480E090E00895DC01ED91FC918E
:101360000190F081E02D09940F931F93CF93DF93A9
:10137000EC016DE00E94AD098C016AE0CE010E9493
:10138000AD099C01200F311FC901DF91CF911F9141
:101390000F9108950F931F93CF93DF93EC010E9459
:1013A00097098C01CE010E94B4099801280F391FBA
:1013B000C901DF91CF911F910F910895FC018081A8
:1013C00091810C940210CF93DF93EC018881998175
:1013D000009711F00E940210198218821D821C824F
:1013E0001B821A82DF91CF9108950F931F93CF93A1
:1013F000DF93EC018B016F5F7F4F888199810E94A1
:101400009F10009731F0998388831B830A8381E0C2
:1014100001C080E0DF91CF911F910F910895CF938C
:10142000DF93EC0188819981892B31F08A819B813E
:101430008617970708F00CC0CE010E94F509882393
:1014400049F08C819D81892B19F4E881F981108202
:1014500081E001C080E0DF91CF910895EF92FF928B
:101460000F931F93CF93DF93EC017B018A01BA01A5
:101470000E940F0A811104C0CE010E94E30907C037
:101480001D830C83B701888199810E947411CE015C
:10149000DF91CF911F910F91FF90EF900895DC01A4
:1014A00011961C921E9213961C921E9212971596DC
:1014B0001C921E92149716961C926115710559F094
:1014C000DB010D900020E9F7AD0141505109461BA9
:1014D000570B0C942E0A0895EF92FF920F931F93CF
:1014E000CF93DF93EC017B010C811D8161157105A8
:1014F00011F480E016C04115510591F0040F151F3D
:10150000B8010E940F0A8823A1F3288139818C81B8
:101510009D81B701820F931F0E9474111D830C835C
:1015200081E0DF91CF911F910F91FF90EF9008958F
:10153000CF93DF9300D0CDB7DEB769831A8241E045
:1015400050E0BE016F5F7F4F0E946C0A0F900F90BA
:10155000DF91CF9108950F931F93CF93DF93EB010A
:1015600041155105E9F02097D9F0FC01048115815E
:101570002017310708F013C041505109021B130B0B
:101580004017510708F48A01FC0160817181620FE4
:10159000731FA801CE010E947B11C00FD11F1882BA
:1015A000DF91CF911F910F91089563E086EF92E054
:1015B0000E94940D21E04AEE54E060E086EF92E054
:1015C0000E946A0D64E086EF92E00E94970C61E051
:1015D00084ED92E00E94940D64E084ED92E00E941C
:1015E000970C61E082EB92E00E94940D64E082EB44
:1015F00092E00E94970C789408951F920F920FB674
:101600000F9211242F933F934F935F936F937F9388
:101610008F939F93AF93BF93EF93FF93E09110034A
:10162000F0911103309709F00995FF91EF91BF9167
:10163000AF919F918F917F916F915F914F913F916A
:101640002F910F900FBE0F901F9018951F920F9221
:101650000FB60F9211242F933F934F935F936F9385
:101660007F938F939F93AF93BF93EF93FF93E091FB
:101670001203F0911303309709F00995FF91EF9150
:10168000BF91AF919F918F917F916F915F914F919A
:101690003F912F910F900FBE0F901F9018951F92A2
:1016A0000F920FB60F9211242F933F934F935F9396
:1016B0006F937F938F939F93AF93BF93EF93FF931A
:1016C000E0910E03F0910F03309709F00995FF9117
:1016D000EF91BF91AF919F918F917F916F915F91AA
:1016E0004F913F912F910F900FBE0F901F90189523
:1016F0001F920F920FB60F9211242F933F934F9387
:101700005F936F937F938F939F93AF93BF93EF9369
:10171000FF93E091CC02F091CD02309709F009954A
:10172000FF91EF91BF91AF919F918F917F916F91B9
:101730005F914F913F912F910F900FBE0F901F908F
:1017400018951F920F920FB60F9211242F933F936B
:101750004F935F936F937F938F939F93AF93BF93B9
:10176000EF93FF93E091CE02F091CF02309709F012
:101770000995FF91EF91BF91AF919F918F917F91CB
:101780006F915F914F913F912F910F900FBE0F90EE
:101790001F9018951F920F920FB60F9211242F933E
:1017A0003F934F935F936F937F938F939F93AF93E9
:1017B000BF93EF93FF93E091CA02F091CB02309771
:1017C00009F00995FF91EF91BF91AF919F918F9192
:1017D0007F916F915F914F913F912F910F900FBE2D
:1017E0000F901F9018951F920F920FB60F92112411
:1017F0002F933F934F935F936F937F938F939F9319
:10180000AF93BF93EF93FF93E091EE02F091EF025D
:10181000309709F00995FF91EF91BF91AF919F919A
:101820008F917F916F915F914F913F912F910F9089
:101830000FBE0F901F9018951F920F920FB60F9228
:1018400011242F933F934F935F936F937F938F93C5
:101850009F93AF93BF93EF93FF93E091F002F091CA
:10186000F102309709F00995FF91EF91BF91AF9187
:101870009F918F917F916F915F914F913F912F91A8
:101880000F900FBE0F901F9018951F920F920FB6DA
:101890000F9211242F933F934F935F936F937F93F6
:1018A0008F939F93AF93BF93EF93FF93E091EC02DD
:1018B000F091ED02309709F00995FF91EF91BF91FA
:1018C000AF919F918F917F916F915F914F913F91D8
:1018D0002F910F900FBE0F901F9018951F920F928F
:1018E0000FB60F9211242F933F934F935F936F93F3
:1018F0007F938F939F93AF93BF93EF93FF93E09169
:10190000F402F091F502309709F00995FF91EF91FB
:10191000BF91AF919F918F917F916F915F914F9107
:101920003F912F910F900FBE0F901F901895DC01E3
:101930002C916150223039F4673068F4E62FF0E0E2
:10194000E359FE4F06C0693030F4E62FF0E0EC5862
:10195000FE4F208101C020E0DC011A96ED91FC9140
:101960001B978081887F822B80830895CF93DF939C
:10197000EC016883613011F120F0623009F06CC035
:1019800048C01B821A8286E490E09D838C838EE699
:1019900090E09F838E8384E490E09987888785E434
:1019A00090E09B878A871D861C8687E490E09F874E
:1019B0008E87198A188A88E490E022C08FE690E02A
:1019C0009F838E8385E890E09B838A8384E890E000
:1019D0009D838C8380E890E09987888781E890E0F8
:1019E0009B878A8789E890E09D878C8788E890E0CC
:1019F0009F878E878BE890E0998B888B8AE890E0B0
:101A00009B8B8A8B1D8A1C8A1F8A1E8A82E089838F
:101A100023C01B821A8282EB90E09D838C8380E737
:101A200090E09F838E8380EB90E09987888781EB9D
:101A300090E09B878A871D861C8683EB90E09F87BA
:101A40008E87198A188A84EB90E09B8B8A8B1D8A7B
:101A50001C8A1F8A1E8A698360E0CE010E94970C4F
:101A6000EA81FB81309709F01082EC81FD811082C0
:101A7000198E188E1B8E1A8E1D8E1C8E1F8E1E8E1A
:101A800019A218A2DF91CF91089551E0411101C030
:101A900050E06530F0F4E62FF0E0E358FE4F40816F
:101AA00047FD17C0DC011696ED91FC9117978081D8
:101AB00021E030E0042E01C0220F0A94EAF72095BD
:101AC0002823852F042E01C0880F0A94EAF7282BBB
:101AD00020830895623099F028F4662341F0613044
:101AE000C9F409C0633079F06430A1F410C0FC017E
:101AF000518F408F0FC0FC01538F428F0BC0FC01F0
:101B0000558F448F07C0FC01578F468F03C0FC01DF
:101B100051A340A3452B11F440E003C0222319F048
:101B200041E00C94450D0895DC011896ED91FC916F
:101B300019973081262F23703C7F232B20831A9600
:101B4000ED91FC911B9780816C70660F877E682BEE
:101B500060830895FC018181681740F59081992385
:101B600011F0923011F4813049F0662329F0613090
:101B700029F0623031F404C026E003C024E001C043
:101B800022E00084F185E02D308183E090E0022E98
:101B900001C0880F0A94EAF7809583234370022ED0
:101BA00001C0440F0A94EAF7842B80830895FC0156
:101BB00081816817F8F4611109C0A485B585109773
:101BC00009F05C930684F785E02D13C0613049F479
:101BD000A089B189109709F05C930288F389E02D00
:101BE00008C0623039F4A489B5895C930688F78906
:101BF000E02D4083089560E086EF92E00E94B60CED
:101C000061E084ED92E00E94B60C62E082EB92E02B
:101C10000C94B60C40D008F481E00895E89409C013
:101C200097FB3EF490958095709561957F4F8F4F0F
:101C30009F4F9923A9F0F92F96E9BB279395F69525
:101C4000879577956795B795F111F8CFFAF4BB0FA3
:101C500011F460FF1BC06F5F7F4F8F4F9F4F16C007
:101C6000882311F096E911C0772321F09EE8872F91
:101C7000762F05C0662371F096E8862F70E060E04D
:101C80002AF09A95660F771F881FDAF7880F9695C6
:101C9000879597F90895990F0008550FAA0BE0E86A
:101CA000FEEF16161706E807F907C0F0121613061E
:101CB000E407F50798F0621B730B840B950B39F45E
:101CC0000A2661F0232B242B252B21F408950A26C4
:101CD00009F4A140A6958FEF811D811D089597F904
:101CE0009F6780E870E060E008959FEF80EC0895C2
:101CF00000240A94161617061806090608950024EB
:101D00000A9412161306140605060895092E039464
:101D1000000C11F4882352F0BB0F40F4BF2B11F4D8
:101D200060FF04C06F5F7F4F8F4F9F4F089557FD37
:101D30009058440F551F59F05F3F71F04795880F39
:101D400097FB991F61F09F3F79F0879508951216D0
:101D500013061406551FF2CF4695F1DF08C016167C
:101D600017061806991FF1CF86957105610508942D
:101D70000895E894BB2766277727CB0197F9089544
:101D80000BD0C4CFB5DF28F0BADF18F0952309F0E7
:101D9000A6CFABCF1124EECFCADFA0F3959FD1F32E
:101DA000950F50E0551F629FF001729FBB27F00D09
:101DB000B11D639FAA27F00DB11DAA1F649F66275E
:101DC000B00DA11D661F829F2227B00DA11D621FAD
:101DD000739FB00DA11D621F839FA00D611D221F67
:101DE000749F3327A00D611D231F849F600D211D4B
:101DF000822F762F6A2F11249F5750408AF0E1F0EE
:101E000088234AF0EE0FFF1FBB1F661F771F881F36
:101E100091505040A9F79E3F510570F060CFAACF76
:101E20005F3FECF3983EDCF3869577956795B79521
:101E3000F795E7959F5FC1F7FE2B880F911D96954B
:101E4000879597F90895A1E21A2EAA1BBB1BFD01E5
:101E50000DC0AA1FBB1FEE1FFF1FA217B307E40789
:101E6000F50720F0A21BB30BE40BF50B661F771FE1
:101E7000881F991F1A9469F76095709580959095C1
:101E80009B01AC01BD01CF010895052E97FB16F40F
:101E9000009407D057FD0DD00E94230F07FC09D0F6
:101EA0007EF490958095709561957F4F8F4F9F4FF1
:101EB000089550954095309521953F4F4F4F5F4F76
:101EC0000895EE0FFF1F0590F491E02D09940F93F4
:101ED0001F93CF93DF938230910510F482E090E05E
:101EE000E0911A03F0911B0320E030E0C0E0D0E065
:101EF00023C04081518148175907A8F04817590756
:101F000061F482819381209719F09B838A832EC08C
:101F100090931B0380931A0329C02115310529F0E2
:101F20004217530710F0A90102C0BE01DF01028170
:101F30001381EF019A01F8013097D9F62115310587
:101F400009F1281B390B2430310590F412968D913C
:101F50009C9113976115710521F0FB019383828396
:101F600004C090931B0380931A03FD01329644C072
:101F7000FD01E20FF31F81939193225031092D93BC
:101F80003C933AC02091180330911903232B41F45C
:101F9000209102013091030130931903209318031B
:101FA00020910001309101012115310541F42DB737
:101FB0003EB74091040150910501241B350BE0917F
:101FC0001803F0911903E217F307A0F42E1B3F0B3F
:101FD0002817390778F0AC014E5F5F4F241735079B
:101FE00048F04E0F5F1F50931903409318038193DD
:101FF000919302C0E0E0F0E0CF01DF91CF911F911B
:102000000F910895EF92FF920F931F93CF93DF9359
:10201000009709F48FC0DC01129713961C921E9250
:102020001297E0901A03F0901B03E114F10489F475
:102030002D913C911197280F391F80911803909191
:1020400019038217930789F5B0931903A093180316
:1020500071C0E70120E030E001C0EA01CA17DB07E8
:1020600038F44A815B819E0141155105B1F722C0C8
:10207000BC0162507109FB01D383C28300811181CD
:10208000AC01400F511F4C175D0761F44881598125
:10209000400F511F4E5F5F4F518340834A815B81E8
:1020A000538342832115310529F4B0931B03A09378
:1020B0001A0340C0F901B383A283E90169917991C0
:1020C000C60FD71FAC17BD0779F4DC015E914E91A6
:1020D000460F571F4E5F5F4F5183408312968D917D
:1020E0009C91139793838283A0E0B0E002C0D70154
:1020F0007C01F701828193810097C9F7C70102969D
:1021000020813181820F931F209118033091190390
:102110002817390779F4109729F410921B031092AD
:102120001A0304C013961C921E921297F092190380
:10213000E0921803CDB7DEB7E6E00C94B211A0E050
:10214000B0E0E5EAF0E10C949011EC01009729F47D
:10215000CB010E94670FEC01B8C0DC01A60FB71FCE
:10216000FC013297AE17BF0718F4C0E0D0E0ADC055
:102170000081118106171707B0F00530110508F42A
:10218000A4C0C80104978617970708F49EC00250A0
:102190001109061B170B0D931D9371836083CD01ED
:1021A0000E94021092C07B01E01AF10A5C01A00EAD
:1021B000B11EE0911A03F0911B03812C912C80E059
:1021C00090E04CC0EA15FB05F1F5408151816A01B0
:1021D00022E0C20ED11CCE14DF04A8F19A012E1900
:1021E0003F097901690132E0C30ED11C2EEFA22E06
:1021F000BB24BA94AC0EBD1E25E0C216D10478F003
:102200004281538113965C934E9312971196FC92E0
:10221000EE92F501718360833A2F2B2F09C00E5F78
:102220001F4F040F151FD5010D931C93328123817D
:10223000009721F0FC013283238347C030931A03B7
:1022400020931B0342C0808191818816990608F46F
:102250004C0152814381CF01E52FF42F309709F0D3
:10226000B1CF80911803909119038A159B05F1F461
:1022700086169706D8F4809100019091010100978D
:1022800041F48DB79EB72091040130910501821B66
:10229000930BA817B90708F068CFB0931903A09360
:1022A0001803FE013297718360830FC0CB010E9437
:1022B000670F7C01009709F458CFA801BE010E9466
:1022C0006B11CE010E940210E701CE01CDB7DEB73F
:1022D000ECE00C94AC11FB01DC0102C001900D920A
:1022E00041505040D8F70895FB01DC0101900D9258
:1022F0000020E1F70895FB01DC014150504048F017
:1023000001900D920020C9F701C01D92415050402C
:10231000E0F708952F923F924F925F926F927F92D3
:102320008F929F92AF92BF92CF92DF92EF92FF92E5
:102330000F931F93CF93DF93CDB7DEB7CA1BDB0B91
:102340000FB6F894DEBF0FBECDBF09942A88398836
:1023500048885F846E847D848C849B84AA84B9843D
:10236000C884DF80EE80FD800C811B81AA81B98149
:10237000CE0FD11D0FB6F894DEBF0FBECDBFED015D
:10238000089510E0C2E8D0E004C0FE010E94630F8F
:0C2390002296C438D107C9F7F894FFCF9B
:10239C0000001C03200020202020040031323334A4
:1023AC0030303030313939363131313188131516FE
:1023BC0017111213143132333435363738392A3079
:1023CC002310000600070005000B000C001800018C
:1023DC000133003100300032000000000028066F8D
:1023EC0009DA05DF050506F305000000000006808C
:1023FC0006860600000000FB0574067A060102033F
:10240C00040506070102000300040506070001028B
:02241C000305B6
:00000001FF
