:100000000C9442000C946A000C946A000C946A00F0
:100010000C946A000C946A000C946A000C946A00B8
:100020000C946A000C94CB110C94F4110C941D12D6
:100030000C94C1120C9446120C946F120C949812EA
:100040000C9450110C9479110C94A2110C946A0028
:100050000C94100D0C94C30A0C946A000C946A0062
:100060000C946A000C946A000C946A000C946A0068
:100070000C94E50C0C94110B0C946A0083053B0D59
:100080004E14A10511241FBECFEFD0E1DEBFCDBFBE
:1000900011E0A0E0B1E0E2EFF1E302C005900D92C3
:1000A000A438B107D9F713E0A4E8B1E001C01D926C
:1000B000AB32B107E1F710E0C2E8D0E004C022970C
:1000C000FE010E94DE15CC37D107C9F70E940A0A4B
:1000D0000C94EC180C94000042E00C94450D60E088
:1000E00070E0809127010E946C006FEF70E08091BA
:1000F00025010E946C006FEF70E0809123010C9449
:100100006C000F931F930E94560900918501109176
:1001100086012091870130918801601B710B820B51
:10012000930B6133754781059105A0F0005D1A4876
:100130002F4F3F4F00938501109386012093870135
:100140003093880161E371E085E692E01F910F91A1
:100150000C94230E1F910F91089520918401211179
:1001600005C0BC0185E692E00C940F0E0895CF9374
:10017000DF93CDE2D1E061E088810E94DC0964E692
:1001800070E080E090E00E94680960E088810E9451
:10019000DC0964E670E080E090E00E94680961E0BC
:1001A00088810E94DC0964E670E080E090E00E94B3
:1001B000680960E08881DF91CF910C94DC090F938E
:1001C0001F93CF93DF93CDB7DEB727970FB6F89481
:1001D000DEBF0FBECDBF8FE10E94F108BC018827B2
:1001E00077FD8095982F0E9463142DEC3CEC4CEA2F
:1001F00050E40E94131520E030E040E85AE30E94EA
:100200001315FB01462F5F2F682F792F40938E0126
:1002100050938F0160939001709391012AE939E91D
:1002200049E95FE3BF010E945D1418160CF451C048
:10023000479A0E9456090091890110918A012091E4
:100240008B0130918C01601B710B820B930B009121
:100250000C0110910D01222717FD2095322F061752
:10026000170728073907A8F461E080912D010E9443
:10027000DC0968EE73E080E090E00E9468090E946B
:1002800056096093890170938A0180938B01909342
:100290008C0180918D01811127C00E9456096093C5
:1002A000890170938A0180938B0190938C0181E086
:1002B00080938D0163E371E0CE0101960E94A80E48
:1002C000CE0101960E94AD00CE0101960E94370E2C
:1002D0000BC0479810928D011092890110928A01EB
:1002E00010928B0110928C0127960FB6F894DEBF06
:1002F0000FBECDBFDF91CF911F910F9108950F9346
:100300001F93CF93DF93CDB7DEB727970FB6F8943F
:10031000DEBF0FBECDBF809121010E94B809082F1A
:1003200010E01093C4010093C30101301105F1F4F2
:1003300061E080912B010E94DC098091C1019091C4
:10034000C201892B11F565E371E0CE0101960E948F
:10035000A80ECE0101960E94AD00CE0101960E942A
:10036000370E1093C2010093C1010FC060E080916D
:100370002B010E94DC098091C1019091C20101977B
:1003800021F41092C2011092C10127960FB6F89481
:10039000DEBF0FBECDBFDF91CF911F910F910895AA
:1003A000823579F46FEF70E0809127010E946C0034
:1003B00060E070E0809125010E946C006FEF70E0BA
:1003C00010C0873491F46FEF70E0809127010E9494
:1003D0006C006FEF70E0809125010E946C0060E07E
:1003E00070E0809123010C946C00823411F40C9421
:1003F0006F0008951F93CF93DF93CDB7DEB7279794
:100400000FB6F894DEBF0FBECDBF182F833229F48C
:100410001092B9011092B80135C08A3219F41092C5
:10042000C0012AC0E091B801F091B901EA5FFE4F26
:10043000808361EB71E0CE0101960E94DC0E612F9A
:10044000CE0101960E94820FBC0181EB91E00E94D7
:10045000C50ECE0101960E94370E8091B801909191
:10046000B90101969093B9018093B8018091B501CB
:100470009091B601059730F068E471E081EB91E06E
:100480000E94E60E27960FB6F894DEBF0FBECDBFD2
:10049000DF91CF911F9108954F925F926F927F925B
:1004A0008F929F92AF92BF92CF92DF92EF92FF9284
:1004B0000F931F93CF93DF93CDB7DEB727970FB678
:1004C000F894DEBF0FBECDBF7C01562E5A01490104
:1004D000612C712C00E010E087E0482EA301652D0F
:1004E000C7010E9454106C01181619060CF59C01E6
:1004F000A301B701CE0101960E947210409EC00177
:10050000419E900D1124BE016F5F7F4F8A0D9B1D90
:100510000E94C50ECE0101960E94370E0F5F1F4F3D
:100520000815190534F536018FEF681A780AD6CF09
:100530000097A1F208151905E4F4F701248135812B
:10054000A301B701CE0101960E94721027E0209FFF
:10055000C001219F900D1124BE016F5F7F4F8A0D56
:100560009B1D0E94C50ECE0101960E94370E0F5FA3
:100570001F4FC80127960FB6F894DEBF0FBECDBF40
:10058000DF91CF911F910F91FF90EF90DF90CF906F
:10059000BF90AF909F908F907F906F905F904F90A3
:1005A00008955F926F927F928F929F92AF92BF92C7
:1005B000CF92DF92EF92FF920F931F93CF93DF932F
:1005C000CDB7DEB727970FB6F894DEBF0FBECDBF0D
:1005D0003C0123E1A22EB12CE12CF12C03E010E030
:1005E000B7018FEF91E00E94E308C82ED12C2BC0F9
:1005F000C0FC05C00E5F1F4FD594C79424C0B8013E
:100600008FEF91E00E94E308582EB8016F5F7F4F93
:100610008FEF91E00E94E308982E812CB401650DC4
:10062000711D4AE0CE0101960E94000FB301CE0178
:1006300001960E94C40F582ECE0101960E94370EDB
:100640005520C1F211C0C114D10491F68FEFE81A00
:10065000F80A850180E1A80EB11C83E0E816F104D8
:1006600009F0BECF80E001C081E027960FB6F89474
:10067000DEBF0FBECDBFDF91CF911F910F91FF90D5
:10068000EF90DF90CF90BF90AF909F908F907F9032
:100690006F905F9008950F931F93CF93DF938C011A
:1006A000EB0160E071E00E947615BE01660F771FD6
:1006B0006D5F7F4F482F8FEF91E00E94E608A80101
:1006C00017FF02C041505F4F452F550F550BBE011C
:1006D0006E5F7F4F660F771F8FEF91E00E94E608F5
:1006E0008E01D7FF02C0095F1F4F33E015950795B4
:1006F0003A95E1F71127B8018FEF91E00E94E308E6
:10070000482FCE0168E070E00E94761521E030E0CD
:1007100001C0220F8A95EAF7422BB8018FEF91E0D2
:10072000DF91CF911F910F910C94E608EF920F93F8
:10073000E12C01E028E040E855E260E070E085E669
:1007400092E00E94E30B61E080912B010E948A09F4
:1007500060E0809129010E948A0961E0809127016F
:100760000E948A0961E0809125010E948A0961E066
:10077000809123010E948A0960E0809121010E94FA
:100780008A0961E080912D010E948A093F9A0F98A1
:1007900061E070E087E594E00E944B0368E471E05B
:1007A00081EB91E00F91EF900C94E60E0F931F9365
:1007B000CF93DF938C01EB0160E071E00E9476152E
:1007C000BE01660F771F6D5F7F4F482F8FEF91E05F
:1007D0000E94E608A80117FF02C041505F4F452F55
:1007E000550F550BBE016E5F7F4F660F771F8FEF62
:1007F00091E0DF91CF911F910F910C94E6080F9338
:100800001F93CF93DF938C01EC0197FD279623E094
:10081000D595C7952A95E1F7DD27BE018FEF91E0C9
:100820000E94E308482FC80168E070E00E94761536
:1008300021E030E001C0220F8A95EAF74227BE018D
:100840008FEF91E0DF91CF911F910F910C94E6080B
:1008500040E060E070E08FEF91E00E94E60840E049
:1008600061E070E08FEF91E00E94E60840E062E016
:1008700070E08FEF91E00C94E608CF92DF92EF9258
:10088000FF92CF93DF93CDB7DEB7E1970FB6F89421
:10089000DEBF0FBECDBF8091FE01882309F426C1C3
:1008A00087EF91E00E94B71067E371E0CE010196F7
:1008B0000E94A80EBE016F5F7F4F87EF91E00E94FC
:1008C0001B10F82ECE0101960E94370EFF2049F032
:1008D00081E090918401911180E0809384010E94D5
:1008E000B70069E371E087EF91E00E94D50F88239C
:1008F000E9F082E50E94D00161E080912D010E9423
:10090000DC0968EE73E080E090E00E946809809165
:10091000BA019091BB0101969093BB018093BA01FB
:1009200068E471E081EB91E00E94E60E6BE371E018
:1009300087EF91E00E94D50F882321F081E080931A
:10094000C001CCC068E471E0CE0101960E94A80EFF
:1009500068E471E0CE0108960E94A80E68E471E098
:10096000CE010F960E94A80E67EF71E0CE01469669
:100970000E94DC0E23E030E0AE014F5F5F4F6BE37F
:10098000CE0146960E944C02CE0146960E94370E3A
:10099000BE016F5F7F4FCE018B960E94DC0EBE01C1
:1009A000685F7F4FCE0184960E94DC0EBE01615FBE
:1009B0007F4FCE014D960E94DC0E6DE371E0CE01BB
:1009C0008B960E94D50F882389F0CE0184960E94D1
:1009D0001C116B017C01CE014D960E941C11DC01A3
:1009E000CB01B6010E944B030E94B7006FE371E098
:1009F000CE018B960E94D50F882389F0CE01849674
:100A00000E941C116B017C01CE014D960E941C11AD
:100A1000DC01CB01B6010E94D6030E94B70062E45C
:100A200071E0CE018B960E94D50F882309F1BE019B
:100A3000635E7F4FCE0146960E94DC0ECE01469645
:100A40000E94D102F82ECE0146960E94370EFF205A
:100A500079F0CE0184960E941C116B017C01CE01BD
:100A60004D960E941C11C6010E94FF030E94B70010
:100A700061E471E0CE018B960E94D50F8823B1F01E
:100A8000BE01635E7F4FCE0146960E94DC0ECE0112
:100A900046960E94D102F82ECE0146960E94370E4D
:100AA000FF2021F00E9428040E94B700CE014D963D
:100AB0000E94370ECE0184960E94370ECE018B968F
:100AC0000E94370ECE010F960E94370ECE01089677
:100AD0000E94370ECE0101960E94370E68E471E045
:100AE00087EF91E00E94E60E1092FE01E1960FB6AC
:100AF000F894DEBF0FBECDBFDF91CF91FF90EF9096
:100B0000DF90CF900895EF920F9368E471E087EF44
:100B100091E00E94A80E68E471E081EB91E00E94F0
:100B2000A80E33E0E32E04E02EE031E041E151E095
:100B300065E171E082E991E00E94B7080F91EF90C2
:100B4000089581EB91E00E94370E87EF91E00C94BD
:100B5000370ECF93DF93D1E018C085E692E00E9474
:100B60003C0AC82F682F87EF91E00E94590FCA30C6
:100B700061F420E030E042E350E065EC71E087EFA3
:100B800091E00E942A10D093FE0185E692E00E9437
:100B9000110A181619060CF3DF91CF910895CF931F
:100BA000DF93CDB7DEB727970FB6F894DEBF0FBE41
:100BB000CDBF64E471E0CE0101960E94A80E61EB06
:100BC00071E0CE0101960E946C0FBC0185E692E0B7
:100BD0000E940F0ECE0101960E94370E02C00E94A5
:100BE000A9058091FE018823D1F30E943D04279638
:100BF0000FB6F894DEBF0FBECDBFDF91CF91089541
:100C00001F93CF93DF93CDB7DEB727970FB6F89436
:100C1000DEBF0FBECDBF82E991E00E946D07882341
:100C200009F485C00E94FA012091B8013091B90100
:100C300080910A0190910B012817390709F077C0BC
:100C40001092B9011092B80161EB71E0CE010196EA
:100C50000E94DC0ECE0101960E94D102811107C0D4
:100C600011E08091BA019091BB01039709F410E063
:100C7000CE0101960E94370E1123F1F082E50E9409
:100C8000D00161E080912D010E94DC0968EE73E0E3
:100C900080E090E00E9468098091BA019091BB01C8
:100CA00001969093BB018093BA0168E471E081EBF7
:100CB00091E00E94E60E0AC01092B9011092B801AC
:100CC0001092BB011092BA010E94CF058091BA0127
:100CD0009091BB01039759F58091B001811111C02A
:100CE00067E471E0CE0101960E94A80ECE01019644
:100CF0000E94AD00CE0101960E94370E81E08093E4
:100D0000B00160910C0170910D01882777FD8095ED
:100D1000982F0E94680982E50E94D00161E08091CD
:100D20002D010E94DC091092BB011092BA01279696
:100D30000FB6F894DEBF0FBECDBFDF91CF911F91EC
:100D40000895BF92CF92DF92EF92FF920F931F937D
:100D5000CF93DF93CDB7DEB727970FB6F894DEBFFA
:100D60000FBECDBF0E94A9050E943D040E948100D4
:100D70000E94DF000E947F010E94000680912901ED
:100D80000E94B809B82E2091BE013091BF01809118
:100D90000C0190910D0128173907D4F082E50E94CB
:100DA000D0018091B00181110EC069E471E0CE01E3
:100DB00001960E94A80ECE0101960E94AD00CE01C0
:100DC00001960E94370E81E08093B00161E038C047
:100DD0008091C001882379F187E40E94D0010E94AC
:100DE00056097093BD016093BC016AE070E080E039
:100DF00090E00E9468090E9456094091BE015091FE
:100E0000BF018A01222717FD2095322FC090BC0117
:100E1000D090BD01EE24D7FCE094FE2C0C191D09E6
:100E20002E093F09060F171F281F391F1093BF01F6
:100E30000093BE0104C00E946F001092B00160E0F8
:100E400080912D010E94DC0981E0B81203C0B092AC
:100E5000C0011DC061EB71E0CE0101960E94DC0E65
:100E6000CE0101960E94D10211E0882321F08091E9
:100E7000C001811110E0CE0101960E94370E1123AE
:100E800031F01092C0011092BF011092BE0127965E
:100E90000FB6F894DEBF0FBECDBFDF91CF911F918B
:100EA0000F91FF90EF90DF90CF90BF900895DC01FD
:100EB00018968D919C9119978617970769F0199646
:100EC0007C936E9318975C96ED91FC915D973097AB
:100ED00019F01A968C91099408954F925F926F922F
:100EE0007F92AF92BF92CF92DF92EF92FF920F93D9
:100EF0001F93CF93DF93EC01A12CA8C00A2D10E023
:100F0000EC81FD81E00FF11F60E080810E94DC092F
:100F1000B12C68018EC0EB2CF12C8F81E881F98116
:100F2000EC0DFD1DB89EE00DF11D11249A85808108
:100F300098133CC00E9456094E845F846888798863
:100F400064197509860997094A8C5B8C612C712C90
:100F5000641575058605970550F0EA81FB81EE0D55
:100F6000FF1D80810E94B809882309F498C00E945F
:100F700056094E845F8468887988641975098609E2
:100F80009709488C598C612C712C64157505860560
:100F9000970508F493C0EA81FB81EB0DF11D808178
:100FA0000E94B809813009F089C07FC00E945609AB
:100FB0004E845F8468887988641975098609970961
:100FC000488C598C612C712C641575058605970524
:100FD00078F1EA81FB81EE0DFF1D80810E94B80946
:100FE000811126C0EC81FD81E00FF11F61E080815D
:100FF0000E94DC092F812E9DC0012F9D900D112490
:10100000E881F981EC0DFD1DE80FF91FF0808E8558
:101010009F85A889B9898A8B9B8BAC8BBD8B0E94DD
:1010200056096E877F87888B998BF11015C005C094
:10103000B3948E81B81608F46ECFEC81FD81E00F79
:10104000F11F61E080810E94DC09A3948F81A816C2
:1010500008F454CF80E040C08B85F81239C00E945C
:1010600056090A891B892C893D89601B710B820BEB
:10107000930B0E891F8920E030E006171707280719
:10108000390710F525C081E090E09D878C87FA86AE
:1010900061E070E0CE010E9457078A851DC063E0C1
:1010A00070E0CE010E94570762CF62E070E0CE018F
:1010B0000E9457078A858B871A86BFCF88859985B6
:1010C000039709F0B5CFB9CF8C859D850196DDCF0B
:1010D0008A85F812D8CFBECFDF91CF911F910F91A3
:1010E000FF90EF90DF90CF90BF90AF907F906F9088
:1010F0005F904F900895FF920F931F93CF93DF93CC
:10110000EC01F12C13C00F2D10E0EA81FB81E00F00
:10111000F11F60E080810E948A09EA81FB81E00F73
:10112000F11F61E080810E94DC09F3948E81F81642
:1011300050F3F12C13C00F2D10E0EC81FD81E00F76
:10114000F11F61E080810E948A09EC81FD81E00F3E
:10115000F11F61E080810E94DC09F3948F81F81611
:1011600050F3DF91CF911F910F91FF900895EF926F
:101170000F93FC0153834283358324830683E782E4
:101180007183608316861786108A118A128A138AE1
:10119000148A158A8CE291E0978B868B82E390E02B
:1011A000918F808F88EE93E0938F828F158E148EAF
:1011B000128613861186108615861486CF010F912C
:1011C000EF900C947B08CB010C948C18CB01642F0E
:1011D0000C94941880E480937C0087E880937A00D4
:1011E0000895CF93DF931F92CDB7DEB790912F0173
:1011F000913031F489830E94EA0810922F0189818D
:1012000087702091300140E4249F90011124822BAB
:1012100080937C0080917A00806480937A00809132
:101220007A0086FDFCCF2091780030917900932FD1
:1012300080E0FC01E22B9F01C9010F90DF91CF916B
:1012400008958091010290910202A0910302B09151
:10125000040230910002232F2D5F2D3720F40196D8
:10126000A11DB11D05C0232F2A570296A11DB11D36
:10127000209300028093010290930202A093030244
:10128000B09304028091050290910602A09107029A
:10129000B09108020196A11DB11D809305029093A3
:1012A0000602A0930702B093080208950F931F93BC
:1012B0008FB7F8940091010210910202209103026D
:1012C000309104028FBFB801C9011F910F91089599
:1012D0008F929F92AF92BF92CF92DF92EF92FF9246
:1012E0006B017C010E9456094B015C010E9456096A
:1012F000681979098A099B096C157D058E059F057A
:10130000A8F3FF90EF90DF90CF90BF90AF909F90A9
:101310008F900895982F977021E030E0092E01C03A
:10132000220F0A94EAF786958695869581F081309A
:1013300089F0823091F08330D1F412C08081209501
:10134000822302C08081822B80839FBF0895EAE2BE
:10135000F0E008C0E7E2F0E005C0E4E2F0E002C03F
:10136000E1E2F0E09FB7F894662341F3EBCF0895F4
:10137000982F977021E030E001C0220F9A95EAF78C
:1013800086958695869539F0813041F0823049F016
:10139000833051F00895E9E2F0E008C0E6E2F0E0C1
:1013A00005C0E3E2F0E002C0E0E2F0E090819223C9
:1013B00081E009F480E00895982F977021E030E0F3
:1013C000092E01C0220F0A94EAF786958695869524
:1013D00081F0813089F0823091F08330D1F412C0F5
:1013E00080812095822302C08081822B80839FBFD1
:1013F0000895EBE2F0E008C0E8E2F0E005C0E5E2C5
:10140000F0E002C0E2E2F0E09FB7F894662341F317
:10141000EBCF08950E9428110E9496030E94A10616
:10142000FDCFFC0120893189C9010895DC01509666
:101430002D913C915197232B49F05496ED91FC91BD
:101440005597E80FF91F268930E002C02FEF3FEFD4
:10145000C9010895FC01118A108A158A148A138A19
:10146000128A0895FC0124813581C9010895FC0187
:1014700024813581C9010895FC0180899189892BD6
:10148000D1F03FB7F894808991890197918B808B37
:1014900084899589DF01A80FB91F56962C91019672
:1014A000803291051CF4958B848B02C0158A148AB6
:1014B0003FBF30E002C02FEF3FEFC9010895EF9228
:1014C000FF921F93CF93DF931F92CDB7DEB77C01BE
:1014D000D701DA968D919C91DB974097C8F71FB79B
:1014E000F894D696ED91FC91D7970190F081E02D7C
:1014F000C701C6966983099569814097C8F4F701C9
:1015000082AD93AD019693AF82AF84AD95ADE80FF8
:10151000F91FE05CFF4F60830196D701DD969C9335
:101520008E93DC97409724F0DD961C921E92DC97F8
:10153000F701EA5AFF4F0190F081E02D808180622F
:1015400080831FBF81E090E00F90DF91CF911F91CA
:10155000FF90EF900895665F7F4F680F791FCB0172
:101560000895665F7F4F680F791FCB010895665F0E
:101570007F4F680F791FCB010895665F7F4F680F1B
:10158000791FCB0108951F920F920FB60F9211246D
:101590002F938F939F93AF93BF93EF93FF9380917C
:1015A0009F029091A002892B21F1E091BF02F0915E
:1015B000C00280919F029091A00201979093A00297
:1015C00080939F028091A3029091A402DC01A55612
:1015D000BD4F1A962C910196803191052CF4909371
:1015E000A4028093A30204C01092A4021092A3024A
:1015F000208380919F029091A002892B31F4E09189
:10160000BB02F091BC0288E98083FF91EF91BF910A
:10161000AF919F918F912F910F900FBE0F901F90C0
:1016200018951F920F920FB60F9211242F938F933C
:101630009F93AF93BF93EF93FF9380914302909159
:101640004402892B21F1E0916302F09164028091C0
:101650004302909144020197909344028093430285
:101660008091470290914802DC01A15CBD4F1A961F
:101670002C910196803191052CF49093480280932F
:10168000470204C0109248021092470220838091C2
:10169000430290914402892B31F4E0915F02F09172
:1016A000600288E98083FF91EF91BF91AF919F9194
:1016B0008F912F910F900FBE0F901F901895FC01E6
:1016C000262F1382128248EE53E060E070E04483DC
:1016D0005583668377838FE491E0918380838FE5E0
:1016E00091E09587848780E290E097878687118ACA
:1016F000108A158A148A138A128A89E691E097ABB8
:1017000086AB80E190E091AF80AF13AE12AE17AE22
:1017100016AE15AE14AE222321F0213009F052C0CE
:1017200028C0DF01A05BBF4F85EC90E08D939C93B8
:10173000DF01AE5ABF4F84EC90E08D939C93DF01A4
:10174000AC5ABF4F80EC90E08D939C93DF01AA5A76
:10175000BF4F81EC90E08D939C93DF01A85ABF4F5F
:1017600082EC90E08D939C93E65AFF4F86EC90E0DC
:1017700027C0DF01A05BBF4F8DEC90E08D939C9361
:10178000DF01AE5ABF4F8CEC90E08D939C93DF014C
:10179000AC5ABF4F88EC90E08D939C93DF01AA5A1E
:1017A000BF4F89EC90E08D939C93DF01A85ABF4F07
:1017B0008AEC90E08D939C93E65AFF4F8EEC90E07C
:1017C0009183808308953F924F925F926F927F92B0
:1017D0008F929F92AF92BF92CF92DF92EF92FF9241
:1017E0000F931F93CF93DF93EC014A015B01122FFC
:1017F0003E2C60E072E18AE790E0A50194010E942E
:101800008A1569017A0184E0C80ED11CE11CF11C23
:1018100083E0F694E794D794C7948A95D1F760E073
:1018200074E284EF90E0A50194010E948A152901D9
:101830003A0194E0490E511C611C711C93E07694AE
:101840006794579447949A95D1F7A301920144273E
:10185000552760E874E88EE190E00E94AC155901CC
:10186000A818B908B7FE03C0B194A194B108A701A4
:1018700096014427552760E472E48FE090E00E94CF
:10188000AC152819390937FF03C031952195310965
:10189000FE01EC5AFF4F0190F081E02DA216B30635
:1018A0003CF482E08083620181E0C81AD10804C060
:1018B000108291E0C91AD1081630C1F018F4153021
:1018C00099F405C0173029F0193071F404C080E094
:1018D0000EC084E00CC0FE01EA5AFF4F0190F08177
:1018E000E02D80818460808386E001C082E0023048
:1018F00009F4886091E0391621F092E0391204C0B1
:1019000002C0806301C08062FE01E85AFF4F01906F
:10191000F081E02D8083FE01E05BFF4F0190F081BC
:10192000E02DD082FE01EE5AFF4F0190F081E02DB4
:10193000C082CA5ADF4FE881F98188E98083DF914C
:10194000CF911F910F91FF90EF90DF90CF90BF90BC
:10195000AF909F908F907F906F905F904F903F904F
:1019600008950F931F93CF93DF931F92CDB7DEB7E8
:101970008C01DC01ED91FC910190F081E02D6983F7
:10198000099569818097D0F4F80184819581019649
:101990009583848386819781E80FF91F628701967A
:1019A0008032910534F4D80117969C938E93169744
:1019B00003C0F8011782168281E001C080E00F9019
:1019C000DF91CF911F910F9108951F920F920FB643
:1019D0000F9211242F933F934F935F936F937F93B5
:1019E0008F939F93AF93BF93EF93FF93E091630225
:1019F000F0916402608185E192E00E94B10CFF9158
:101A0000EF91BF91AF919F918F917F916F915F9176
:101A10004F913F912F910F900FBE0F901F901895EF
:101A20001F920F920FB60F9211242F933F934F9353
:101A30005F936F937F938F939F93AF93BF93EF9336
:101A4000FF93E091BF02F091C002608181E792E0D4
:101A50000E94B10CFF91EF91BF91AF919F918F9137
:101A60007F916F915F914F913F912F910F900FBE9A
:101A70000F901F90189560E085E692E00E945F0B42
:101A800061E089E092E00C945F0B1F93CF93DF93AA
:101A9000182FEB01209721F460E00E94DC0940E060
:101AA000143079F1153029F11630E9F1173099F138
:101AB000133169F0143109F044C011C060E001C075
:101AC00061E0812FDF91CF911F910C94DC0960E0E0
:101AD00085E093E00E94FD13AE0160E007C061E085
:101AE00085E093E00E94FD13AE0161E085E093E0A4
:101AF00023C060E083EE92E00E94FD13AE0160E03F
:101B000007C061E083EE92E00E94FD13AE0161E048
:101B100083EE92E011C060E081EC92E00E94FD1340
:101B2000AE0160E007C061E081EC92E00E94FD132D
:101B3000AE0161E081EC92E0DF91CF911F910C94B6
:101B40002A14C038D10508F4B9CFBACFCF92DF92AA
:101B5000EF92FF920F931F93CF93DF936C01EB01F2
:101B60007A01E60EF71E00E010E00BC06991D60185
:101B7000ED91FC910190F081E02DC6010995080FCF
:101B8000191FCE15DF0591F7C801DF91CF911F9185
:101B90000F91FF90EF90DF90CF9008956115710540
:101BA00081F0DB010D900020E9F7AD0141505109B2
:101BB000461B570BDC01ED91FC910280F381E02D77
:101BC000099480E090E00895DC01ED91FC91019092
:101BD000F081E02D0994DC01ED91FC91DB0114967C
:101BE0004D915C9115976D917C910280F381E02D70
:101BF00009940F931F93CF93DF93EC016DE00E9444
:101C0000E40D8C016AE0CE010E94E40D9C01200FDE
:101C1000311FC901DF91CF911F910F9108950F934B
:101C20001F93CF93DF93EC010E94EB0D8C01CE014B
:101C30000E94F90D9C01200F311FC901DF91CF9146
:101C40001F910F9108950F931F93CF93DF93EC0192
:101C50000E94CE0D8C01CE010E94F90D9801280F33
:101C6000391FC901DF91CF911F910F910895FC0198
:101C7000808191810C947D16CF93DF93EC01888154
:101C80009981009711F00E947D16198218821D8299
:101C90001C821B821A82DF91CF9108950F931F93AC
:101CA000CF93DF93EC018B016F5F7F4F8881998128
:101CB0000E941A17009731F0998388831B830A8347
:101CC00081E001C080E0DF91CF911F910F910895D5
:101CD000CF93DF93EC0188819981892B31F08A8140
:101CE0009B818617970708F00CC0CE010E944E0E0C
:101CF000882349F08C819D81892B19F4E881F98131
:101D0000108281E001C080E0DF91CF910895EF92D1
:101D1000FF920F931F93CF93DF93EC017B018A0116
:101D2000BA010E94680E811104C0CE010E943C0ECF
:101D300007C01D830C83B701888199810E943218E6
:101D4000CE01DF91CF911F910F91FF90EF900895F9
:101D5000DC0111961C921E9213961C921E921297F1
:101D600015961C921E92149716961C926115710579
:101D700059F0DB010D900020E9F7AD014150510908
:101D8000461B570B0C94870E0895CF93DF93EC01FD
:101D9000FB018617970761F06081718161157105FC
:101DA00029F0448155810E94870E02C00E943C0E9A
:101DB000CE01DF91CF910895FC0111821082138230
:101DC00012821582148216820C94C50ECF93DF9373
:101DD000D82FC92F6115710561F0DB010D9000202E
:101DE000E9F7AD0141505109461B570B0E94870E80
:101DF00002C00E943C0E8D2F9C2FDF91CF91089541
:101E00000F931F93CF93DF93CDB7DEB762970FB6D3
:101E1000F894DEBF0FBECDBF8C01CB01F80111825B
:101E200010821382128215821482168250E0BE0143
:101E30006F5F7F4F0E945618BE016F5F7F4FC801D2
:101E40000E94E60E62960FB6F894DEBF0FBECDBFBD
:101E5000DF91CF911F910F910895EF92FF920F9311
:101E60001F93CF93DF93EC017B010C811D816115E2
:101E7000710511F480E016C04115510591F0040F71
:101E8000151FB8010E94680E8823A1F328813981AB
:101E90008C819D81B701820F931F0E9432181D8390
:101EA0000C8381E0DF91CF911F910F91FF90EF9014
:101EB0000895CF93DF9300D0CDB7DEB769831A8240
:101EC00041E050E0BE016F5F7F4F0E942D0F0F90E9
:101ED0000F90DF91CF910895CF93DF93D82FC92F23
:101EE000FB0144815581608171810E942D0F811118
:101EF00004C08D2F9C2F0E943C0E8D2F9C2FDF91B4
:101F0000CF910895CF93DF93D82FC92F0E94590FF7
:101F1000811104C08D2F9C2F0E943C0E8D2F9C2F71
:101F2000DF91CF910895CF93DF93DC01ED91FC9188
:101F3000EB01A881B981309711F01097C9F410977F
:101F400059F0EB012C813D81232B31F02C9130E0B5
:101F500031952195310914C0309781F0DC01149638
:101F60008D919C911597892B49F0208130E008C014
:101F7000BD01CF01DF91CF910C94291820E030E012
:101F8000C901DF91CF910895FC0144815581FB0186
:101F9000248135814217530729F40E94930F21E0D1
:101FA000892B09F020E0822F0895DC0114962D91F1
:101FB0003C911597232B39F481E06115710511F0DF
:101FC000FB0108C00895DC01ED91FC9161157105DC
:101FD00029F481E09081992349F007C0CF010E9444
:101FE00029189C0181E0232B09F080E00895FA0173
:101FF000DB0114964D915C911597DC0114962D919F
:102000003C911597241B350B2E173F0790F08D91AF
:102010009C91009771F0DB016D917C9161157105C8
:1020200041F08E0F9F1F0E9439189C0181E0232BE5
:1020300009F080E00895FC0144815581FB01248171
:1020400035814217530720F040E050E00C94F70F21
:1020500080E008950F931F93CF93DF93EB01411519
:102060005105E9F02097D9F0FC0104811581201772
:10207000310708F013C041505109021B130B4017E0
:10208000510708F48A01FC0160817181620F731F9E
:10209000A801CE010E944718C00FD11F1882DF91FE
:1020A000CF911F910F910895CF93DF93FC0184810D
:1020B00095814817590780F4C081D181772767FD42
:1020C0007095CE01840F951F0E941E18009721F075
:1020D0009C012C1B3D0B02C02FEF3FEFC901DF918C
:1020E000CF910895BF92CF92DF92EF92FF920F931C
:1020F0001F93CF93DF936C017B01EA0189012417C1
:10210000350720F48D2FE901042F182F68E471E0C2
:10211000C6010E94A80ED70114968D919C91159727
:102120008C179D07C8F08017910708F48C01D70120
:10213000ED91FC911197E00FF11FB08010826D912D
:102140007C916C0F7D1FC6010E94E60ED701ED91B8
:10215000FC91E00FF11FB082C601DF91CF911F917A
:102160000F91FF90EF90DF90CF90BF900895AF92C6
:10217000BF92CF92DF92EF92FF920F931F93CF9374
:10218000DF936C01DC01ED90FC901197E114F104F8
:1021900009F447C014960D911C911597011511056E
:1021A00009F43FC05701E501BFEFAB1ABB0A8881B4
:1021B000992787FD90950E940D18892BA1F7015052
:1021C00011090E0D1F1DF8018081992787FD90953B
:1021D0000E940D18892B69F40F5F1F4F0C1B1D0BFC
:1021E000D60115961C930E931497EC16FD0650F429
:1021F00004C00C171D0790F4EFCFA801BE01C70162
:102200000E941518D601ED91FC91119714968D91AD
:102210009C911597E80FF91F108203C00150110916
:10222000D2CFDF91CF911F910F91FF90EF90DF9070
:10223000CF90BF90AF900895FC018081918100976D
:1022400011F00C94E61760E070E080E090E00895F3
:1022500063E085E093E00E94E71321E041E259E06A
:1022600060E085E093E00E94BD1364E085E093E0C8
:102270000E94EA1261E083EE92E00E94E71364E0BC
:1022800083EE92E00E94EA1261E081EC92E00E940B
:10229000E71364E081EC92E00E94EA1278940895DA
:1022A0001F920F920FB60F9211242F933F934F93CB
:1022B0005F936F937F938F939F93AF93BF93EF93AE
:1022C000FF93E0911F03F0912003309709F00995E7
:1022D000FF91EF91BF91AF919F918F917F916F91FE
:1022E0005F914F913F912F910F900FBE0F901F90D4
:1022F00018951F920F920FB60F9211242F933F93B0
:102300004F935F936F937F938F939F93AF93BF93FD
:10231000EF93FF93E0912103F0912203309709F0AE
:102320000995FF91EF91BF91AF919F918F917F910F
:102330006F915F914F913F912F910F900FBE0F9032
:102340001F9018951F920F920FB60F9211242F9382
:102350003F934F935F936F937F938F939F93AF932D
:10236000BF93EF93FF93E0911D03F0911E0330970D
:1023700009F00995FF91EF91BF91AF919F918F91D6
:102380007F916F915F914F913F912F910F900FBE71
:102390000F901F9018951F920F920FB60F92112455
:1023A0002F933F934F935F936F937F938F939F935D
:1023B000AF93BF93EF93FF93E091DB02F091DC02C8
:1023C000309709F00995FF91EF91BF91AF919F91DF
:1023D0008F917F916F915F914F913F912F910F90CE
:1023E0000FBE0F901F9018951F920F920FB60F926D
:1023F00011242F933F934F935F936F937F938F930A
:102400009F93AF93BF93EF93FF93E091DD02F09121
:10241000DE02309709F00995FF91EF91BF91AF91DE
:102420009F918F917F916F915F914F913F912F91EC
:102430000F900FBE0F901F9018951F920F920FB61E
:102440000F9211242F933F934F935F936F937F933A
:102450008F939F93AF93BF93EF93FF93E091D90234
:10246000F091DA02309709F00995FF91EF91BF9151
:10247000AF919F918F917F916F915F914F913F911C
:102480002F910F900FBE0F901F9018951F920F92D3
:102490000FB60F9211242F933F934F935F936F9337
:1024A0007F938F939F93AF93BF93EF93FF93E091AD
:1024B000FD02F091FE02309709F00995FF91EF912E
:1024C000BF91AF919F918F917F916F915F914F914C
:1024D0003F912F910F900FBE0F901F9018951F9254
:1024E0000F920FB60F9211242F933F934F935F9348
:1024F0006F937F938F939F93AF93BF93EF93FF93CC
:10250000E091FF02F0910003309709F00995FF91E7
:10251000EF91BF91AF919F918F917F916F915F915B
:102520004F913F912F910F900FBE0F901F901895D4
:102530001F920F920FB60F9211242F933F934F9338
:102540005F936F937F938F939F93AF93BF93EF931B
:10255000FF93E091FB02F091FC02309709F009959E
:10256000FF91EF91BF91AF919F918F917F916F916B
:102570005F914F913F912F910F900FBE0F901F9041
:1025800018951F920F920FB60F9211242F933F931D
:102590004F935F936F937F938F939F93AF93BF936B
:1025A000EF93FF93E0910303F0910403309709F058
:1025B0000995FF91EF91BF91AF919F918F917F917D
:1025C0006F915F914F913F912F910F900FBE0F90A0
:1025D0001F901895DC012C916150223039F467303E
:1025E00068F4E62FF0E0E159FE4F06C0693030F4A0
:1025F000E62FF0E0EA58FE4F208101C020E0DC0128
:102600001A96ED91FC911B978081887F822B8083A5
:102610000895CF93DF93EC016883613011F120F0CE
:10262000623009F06CC048C01B821A8286E490E0D8
:102630009D838C838EE690E09F838E8384E490E07C
:102640009987888785E490E09B878A871D861C860A
:1026500087E490E09F878E87198A188A88E490E043
:1026600022C08FE690E09F838E8385E890E09B8375
:102670008A8384E890E09D838C8380E890E099874A
:10268000888781E890E09B878A8789E890E09D872A
:102690008C8788E890E09F878E878BE890E0998B05
:1026A000888B8AE890E09B8B8A8B1D8A1C8A1F8A04
:1026B0001E8A82E0898323C01B821A8282EB90E00B
:1026C0009D838C8380E790E09F838E8380EB90E0F6
:1026D0009987888781EB90E09B878A871D861C8677
:1026E00083EB90E09F878E87198A188A84EB90E0AD
:1026F0009B8B8A8B1D8A1C8A1F8A1E8A698360E0D5
:10270000CE010E94EA12EA81FB81309709F0108223
:10271000EC81FD811082198E188E1B8E1A8E1D8EF3
:102720001C8E1F8E1E8E19A218A2DF91CF910895C4
:1027300051E0411101C050E06530F0F4E62FF0E0C7
:10274000E158FE4F408147FD17C0DC011696ED9120
:10275000FC911797808121E030E0042E01C0220F08
:102760000A94EAF720952823852F042E01C0880FAC
:102770000A94EAF7282B20830895623099F028F410
:10278000662341F06130C9F409C0633079F06430E8
:10279000A1F410C0FC01518F408F0FC0FC01538F7A
:1027A000428F0BC0FC01558F448F07C0FC01578F2F
:1027B000468F03C0FC0151A340A3452B11F440E018
:1027C00003C0222319F041E00C9498130895DC0112
:1027D0001896ED91FC9119973081262F23703C7F3C
:1027E000232B20831A96ED91FC911B9780816C70AE
:1027F000660F877E682B60830895FC0181816817CE
:1028000040F59081992311F0923011F4813049F014
:10281000662329F0613029F0623031F404C026E0EB
:1028200003C024E001C022E00084F185E02D308166
:1028300083E090E0022E01C0880F0A94EAF78095A9
:1028400083234370022E01C0440F0A94EAF7842BBD
:1028500080830895FC0181816817F8F4611109C033
:10286000A485B585109709F05C930684F785E02D63
:1028700013C0613049F4A089B189109709F05C93C5
:102880000288F389E02D08C0623039F4A489B58943
:102890005C930688F789E02D4083089560E085E029
:1028A00093E00E94091361E083EE92E00E94091315
:1028B00062E081EC92E00C94091340D008F481E0CE
:1028C0000895E89409C097FB3EF490958095709523
:1028D00061957F4F8F4F9F4F9923A9F0F92F96E96C
:1028E000BB279395F695879577956795B795F111E1
:1028F000F8CFFAF4BB0F11F460FF1BC06F5F7F4F7E
:102900008F4F9F4F16C0882311F096E911C077238F
:1029100021F09EE8872F762F05C0662371F096E898
:10292000862F70E060E02AF09A95660F771F881F67
:10293000DAF7880F9695879597F90895990F00080B
:10294000550FAA0BE0E8FEEF16161706E807F90781
:10295000C0F012161306E407F50798F0621B730B1C
:10296000840B950B39F40A2661F0232B242B252B9D
:1029700021F408950A2609F4A140A6958FEF811D40
:10298000811D089597F99F6780E870E060E00895E1
:102990009FEF80EC089500240A9416161706180677
:1029A0000906089500240A94121613061406050653
:1029B0000895092E0394000C11F4882352F0BB0FE4
:1029C00040F4BF2B11F460FF04C06F5F7F4F8F4F47
:1029D0009F4F089557FD9058440F551F59F05F3F82
:1029E00071F04795880F97FB991F61F09F3F79F031
:1029F00087950895121613061406551FF2CF4695B3
:102A0000F1DF08C0161617061806991FF1CF869534
:102A10007105610508940895E894BB276627772718
:102A2000CB0197F908950BD0C4CFB5DF28F0BADFFA
:102A300018F0952309F0A6CFABCF1124EECFCADF53
:102A4000A0F3959FD1F3950F50E0551F629FF001C1
:102A5000729FBB27F00DB11D639FAA27F00DB11D1A
:102A6000AA1F649F6627B00DA11D661F829F2227A3
:102A7000B00DA11D621F739FB00DA11D621F839F2A
:102A8000A00D611D221F749F3327A00D611D231F00
:102A9000849F600D211D822F762F6A2F11249F574E
:102AA00050408AF0E1F088234AF0EE0FFF1FBB1F71
:102AB000661F771F881F91505040A9F79E3F510510
:102AC00070F060CFAACF5F3FECF3983EDCF38695C1
:102AD00077956795B795F795E7959F5FC1F7FE2BBB
:102AE000880F911D9695879597F9089597FB072E66
:102AF00016F4009407D077FD09D00E94C81507FC92
:102B000005D03EF4909581959F4F089570956195FD
:102B10007F4F0895A1E21A2EAA1BBB1BFD010DC019
:102B2000AA1FBB1FEE1FFF1FA217B307E407F5077D
:102B300020F0A21BB30BE40BF50B661F771F881F59
:102B4000991F1A9469F760957095809590959B01EF
:102B5000AC01BD01CF010895052E97FB16F400943A
:102B600007D057FD0DD00E948A1507FC09D07EF4CE
:102B700090958095709561957F4F8F4F9F4F0895E9
:102B800050954095309521953F4F4F4F5F4F089599
:102B9000AA1BBB1B51E107C0AA1FBB1FA617B70783
:102BA00010F0A61BB70B881F991F5A95A9F780959F
:102BB0009095BC01CD010895EE0FFF1F0590F49193
:102BC000E02D09940F931F93CF93DF9382309105EB
:102BD00010F482E090E0E0912903F0912A0320E0D4
:102BE00030E0C0E0D0E023C0408151814817590750
:102BF000A8F04817590761F482819381209719F052
:102C00009B838A832EC090932A038093290329C033
:102C10002115310529F04217530710F0A90102C010
:102C2000BE01DF0102811381EF019A01F8013097A3
:102C3000D9F62115310509F1281B390B243031054E
:102C400090F412968D919C9113976115710521F066
:102C5000FB019383828304C090932A03809329030A
:102C6000FD01329644C0FD01E20FF31F8193919361
:102C7000225031092D933C933AC020912703309183
:102C80002803232B41F4209102013091030130935A
:102C90002803209327032091000130910101211581
:102CA000310541F42DB73EB7409104015091050123
:102CB000241B350BE0912703F0912803E217F3075B
:102CC000A0F42E1B3F0B2817390778F0AC014E5F9C
:102CD0005F4F2417350748F04E0F5F1F50932803AE
:102CE000409327038193919302C0E0E0F0E0CF018D
:102CF000DF91CF911F910F910895EF92FF920F9363
:102D00001F93CF93DF93009709F48FC0DC011297D4
:102D100013961C921E921297E0902903F0902A03BA
:102D2000E114F10489F42D913C911197280F391F7A
:102D300080912703909128038217930789F5B09318
:102D40002803A093270371C0E70120E030E001C011
:102D5000EA01CA17DB0738F44A815B819E014115FD
:102D60005105B1F722C0BC0162507109FB01D38348
:102D7000C28300811181AC01400F511F4C175D07C8
:102D800061F448815981400F511F4E5F5F4F51835D
:102D900040834A815B81538342832115310529F4A5
:102DA000B0932A03A093290340C0F901B383A283FF
:102DB000E90169917991C60FD71FAC17BD0779F466
:102DC000DC015E914E91460F571F4E5F5F4F51835E
:102DD000408312968D919C91139793838283A0E0F8
:102DE000B0E002C0D7017C01F70182819381009796
:102DF000C9F7C701029620813181820F931F20916C
:102E00002703309128032817390779F4109729F4FC
:102E100010922A031092290304C013961C921E924A
:102E20001297F0922803E0922703CDB7DEB7E6E0D1
:102E30000C94DD18A0E0B0E0E0E2F7E10C94BB18E0
:102E4000EC01009729F4CB010E94E215EC01B8C017
:102E5000DC01A60FB71FFC013297AE17BF0718F4AD
:102E6000C0E0D0E0ADC00081118106171707B0F0B7
:102E70000530110508F4A4C0C80104978617970708
:102E800008F49EC002501109061B170B0D931D93E9
:102E900071836083CD010E947D1692C07B01E01A90
:102EA000F10A5C01A00EB11EE0912903F0912A0302
:102EB000812C912C80E090E04CC0EA15FB05F1F5E7
:102EC000408151816A0122E0C20ED11CCE14DF0480
:102ED000A8F19A012E193F097901690132E0C30E68
:102EE000D11C2EEFA22EBB24BA94AC0EBD1E25E041
:102EF000C216D10478F04281538113965C934E93AD
:102F000012971196FC92EE92F501718360833A2F2D
:102F10002B2F09C00E5F1F4F040F151FD5010D93F6
:102F20001C9332812381009721F0FC01328323839B
:102F300047C03093290320932A0342C080819181A6
:102F40008816990608F44C0152814381CF01E52F80
:102F5000F42F309709F0B1CF809127039091280387
:102F60008A159B05F1F486169706D8F48091000126
:102F700090910101009741F48DB79EB72091040113
:102F800030910501821B930BA817B90708F068CF91
:102F9000B0932803A0932703FE01329771836083C7
:102FA0000FC0CB010E94E2157C01009709F458CFB5
:102FB000A801BE010E941518CE010E947D16E701EE
:102FC000CE01CDB7DEB7ECE00C94D7181F93FC010F
:102FD00099278827BC01E89411911032E9F3193040
:102FE00010F01E30C8F31B3251F01D3249F46894C2
:102FF00006C00E947718610F711D811D911D1191EE
:1030000010531A30B0F33EF4909580957095619509
:103010007F4F8F4F9F4F1F910895911193C0803222
:1030200019F089508550D0F70895FB01DC0102C0EA
:1030300001900D9241505040D8F70895FC018191C4
:10304000861721F08823D9F7992708953197CF0162
:103050000895FB01DC018D91019080190110D9F3D5
:10306000990B0895FB01DC0101900D920020E1F71E
:103070000895FB01DC014150504030F08D910190EA
:10308000801919F40020B9F7881B990B0895FB01EA
:10309000DC014150504048F001900D920020C9F7EA
:1030A00001C01D9241505040E0F70895FB019F017F
:1030B000E8944230C4F04532B4F44A3029F497FB26
:1030C0001EF4909581959F4F642F77270E94C81515
:1030D000805D8A330CF0895D8193CB010097A1F765
:1030E00016F45DE251931082C9010C94A518592F72
:1030F000482F372F262F660F771F881F991F660FBF
:10310000771F881F991F620F731F841F951F660FFB
:10311000771F881F991F0895F999FECF92BD81BD31
:10312000F89A992780B50895262FF999FECF1FBAEE
:1031300092BD81BD20BD0FB6F894FA9AF99A0FBEE0
:1031400001960895992788270895DC01FC01672FCF
:1031500071917723E1F7329704C07C916D9370836E
:103160006291AE17BF07C8F308952F923F924F9216
:103170005F926F927F928F929F92AF92BF92CF9207
:10318000DF92EF92FF920F931F93CF93DF93CDB710
:10319000DEB7CA1BDB0B0FB6F894DEBF0FBECDBF88
:1031A00009942A88398848885F846E847D848C8459
:1031B0009B84AA84B984C884DF80EE80FD800C8162
:1031C0001B81AA81B981CE0FD11D0FB6F894DEBF45
:1031D0000FBECDBFED01089510E0C2E8D0E004C0FD
:1031E000FE010E94DE152296C438D107C9F7F89473
:0231F000FFCF0F
:1031F20000002B0320002020202004008813151635
:1032020017111213143132333435363738392A3024
:103212002310000600070005000B000C0018000137
:103222000148003300310053005200410043005571
:1032320000444400563B0030003200000000005FB2
:103242000AA60D110A160A3C0A2A0A0000000037D3
:103252000AB70ABD0A00000000320AAB0AB10A012D
:103262000203040506070102000300040506070025
:04327200010203054D
:00000001FF
