:100000000C9442000C946A000C946A000C946A00F0
:100010000C946A000C946A000C946A000C946A00B8
:100020000C946A000C945D100C9486100C94AF1024
:100030000C9453110C94D8100C9401110C942A11A7
:100040000C94E20F0C940B100C9434100C946A0076
:100050000C94150C0C94C8090C946A000C946A005A
:100060000C946A000C946A000C946A000C946A0068
:100070000C94EA0B0C94160A0C946A000805400CC8
:10008000E012260511241FBECFEFD0E1DEBFCDBFA9
:1000900011E0A0E0B1E0ECE4FFE202C005900D92B7
:1000A000AA37B107D9F713E0AAE7B1E001C01D9262
:1000B000AC31B107E1F710E0C2E8D0E004C022970C
:1000C000FE010E947014CC37D107C9F70E940F09B6
:1000D0000C9499170C94000042E00C944A0C60E0D8
:1000E00070E0809127010E946C006FEF70E08091BA
:1000F00025010E946C006FEF70E0809123010C9449
:100100006C00CF93DF93CDE2D1E061E088810E9463
:10011000E10864E670E080E090E00E946D0860E035
:1001200088810E94E10864E670E080E090E00E942F
:100130006D0861E088810E94E10864E670E080E07B
:1001400090E00E946D0860E08881DF91CF910C946F
:10015000E1080F931F938FE10E94F607BC018827E7
:1001600077FD8095982F0E94F5122DEC3CEC4CEA1F
:1001700050E40E94A51320E030E040E85AE30E94DA
:10018000A513FB01462F5F2F682F792F40937F0126
:100190005093800160938101709382012AE939E9CB
:1001A00049E95FE3BF010E94EF1218160CF44AC040
:1001B000479A0E945B0800917A0110917B0120917F
:1001C0007C0130917D01601B710B820B930B0091C0
:1001D0000C0110910D01222717FD2095322F0617D3
:1001E000170728073907A8F461E080912D010E94C4
:1001F000E10868EE73E080E090E00E946D080E94E4
:100200005B0860937A0170937B0180937C019093EB
:100210007D0180917E01811120C00E945B08609366
:100220007A0170937B0180937C0190937D0181E042
:1002300080937E0161E371E086E592E01F910F916A
:100240000C94280D479810927E0110927A0110921A
:100250007B0110927C0110927D011F910F910895F6
:10026000CF93DF93809121010E94BD08C82FD0E079
:10027000D093B501C093B401C130D105B1F461E0B0
:1002800080912B010E94E1088091B2019091B3010D
:10029000892BD1F463E371E086E592E00E94280D9A
:1002A000D093B301C093B2010FC060E080912B01E5
:1002B0000E94E1088091B2019091B301019721F46D
:1002C0001092B3011092B201DF91CF91089582355F
:1002D00079F46FEF70E0809127010E946C0060E07C
:1002E00070E0809125010E946C006FEF70E010C0FB
:1002F000873491F46FEF70E0809127010E946C00C9
:100300006FEF70E0809125010E946C0060E070E06A
:10031000809123010C946C00823411F40C946F00D2
:100320000895833229F41092AA011092A901089528
:100330008A3219F41092B10108952091A9013091E7
:10034000AA01F901EA5FFE4F80832F5F3F4F309390
:10035000AA012093A90108954F925F926F927F9214
:100360008F929F92AF92BF92CF92DF92EF92FF92C5
:100370000F931F93CF93DF93CDB7DEB727970FB6B9
:10038000F894DEBF0FBECDBF7C01562E5A01490145
:10039000612C712C00E010E087E0482EA301652D50
:1003A000C7010E944B0F6C01C30101968C159D057E
:1003B0000CF59601A301B701CE0101960E94690FC9
:1003C000409EC001419E900D1124BE016F5F7F4F82
:1003D0008A0D9B1D0E94CA0DCE0101960E943C0D04
:1003E0000F5F1F4F0815190534F536018FEF681A96
:1003F000780AD4CFD7FED2CF08151905E4F4F70157
:1004000024813581A301B701CE0101960E94690FB5
:1004100027E0209FC001219F900D1124BE016F5F36
:100420007F4F8A0D9B1D0E94CA0DCE0101960E942E
:100430003C0D0F5F1F4FC80127960FB6F894DEBF23
:100440000FBECDBFDF91CF911F910F91FF90EF9025
:10045000DF90CF90BF90AF909F908F907F906F90E4
:100460005F904F9008955F926F927F928F929F92CC
:10047000AF92BF92CF92DF92EF92FF920F931F93B2
:10048000CF93DF93CDB7DEB727970FB6F894DEBFD3
:100490000FBECDBF3C01BC0186E592E00E94140D69
:1004A00023E1A22EB12CE12CF12C03E010E0B701E6
:1004B00080EF91E00E94E807C82ED12C2BC0C0FC31
:1004C00005C00E5F1F4FD594C79424C0B80180EFBC
:1004D00091E00E94E807582EB8016F5F7F4F80EFD0
:1004E00091E00E94E807982E812CB401650D711DE2
:1004F0004AE0CE0101960E94050EB301CE0101969D
:100500000E94EE0E582ECE0101960E943C0D552001
:10051000C1F211C0C114D10491F68FEFE81AF80AA4
:10052000850180E1A80EB11C83E0E816F10409F012
:10053000BECF80E001C081E027960FB6F894DEBF01
:100540000FBECDBFDF91CF911F910F91FF90EF9024
:10055000DF90CF90BF90AF909F908F907F906F90E3
:100560005F9008951F93CF93DF93CDB7DEB72797A2
:100570000FB6F894DEBF0FBECDBF83E891E00E94B6
:100580007206882309F47EC00E9491012091A9017E
:100590003091AA0180910A0190910B012817390727
:1005A00009F070C01092AA011092A90162EA71E0EC
:1005B000CE0101960E94E10DCE0101960E94330208
:1005C000811107C011E08091AB019091AC010397BC
:1005D00009F410E0CE0101960E943C0D1123C1F0F8
:1005E00082E50E94670161E080912D010E94E1088F
:1005F00068EE73E080E090E00E946D088091AB01AE
:100600009091AC0101969093AC018093AB010BC02B
:100610001092AA011092A9011092AC011092AB01A4
:1006200081E08093B1018091AB019091AC0103977F
:1006300049F58091A10181110FC065E371E086E564
:1006400092E00E94280D65E371E08AEF91E00E943C
:10065000280D81E08093A10160910C0170910D0142
:10066000882777FD8095982F0E946D0882E50E946B
:10067000670161E080912D010E94E1081092AC01B8
:100680001092AB0127960FB6F894DEBF0FBECDBF18
:10069000DF91CF911F9108950F931F93CF93DF9315
:1006A0008C01EB0160E071E00E940814BE01660F4E
:1006B000771F6D5F7F4F482F80EF91E00E94EB071F
:1006C000A80117FF02C041505F4F452F550F550B32
:1006D000BE016E5F7F4F660F771F80EF91E00E9433
:1006E000EB078E01D7FF02C0095F1F4F33E015955E
:1006F00007953A95E1F71127B80180EF91E00E9444
:10070000E807482FCE0168E070E00E94081421E05D
:1007100030E001C0220F8A95EAF7422BB80180EF42
:1007200091E0DF91CF911F910F910C94EB070F9304
:100730001F93CF93DF938C01EB0160E071E00E9487
:100740000814BE01660F771F6D5F7F4F482F80EF43
:1007500091E00E94EB07A80117FF02C041505F4FD4
:10076000452F550F550BBE016E5F7F4F660F771FEC
:1007700080EF91E0DF91CF911F910F910C94EB07E7
:10078000EF920F93E12C01E028E040E855E260E0B1
:1007900070E086E592E00E94E80A61E080912B011A
:1007A0000E948F0860E0809129010E948F0861E01B
:1007B000809127010E948F0861E0809125010E94AD
:1007C0008F0861E0809123010E948F0860E0809192
:1007D00021010E948F0861E080912D010E948F0805
:1007E0003F9A0F9861E070E087E594E00E944C0327
:1007F00061E070E08EEA98E00F91EF900C9497031F
:100800000F931F93CF93DF938C01EC0197FD2796F5
:1008100023E0D595C7952A95E1F7DD27BE0180EF46
:1008200091E00E94E807482FC80168E070E00E944C
:10083000081421E030E001C0220F8A95EAF7422730
:10084000BE0180EF91E0DF91CF911F910F910C9449
:10085000EB0740E060E070E080EF91E00E94EB0782
:1008600040E061E070E080EF91E00E94EB0740E043
:1008700062E070E080EF91E00C94EB07CF92DF92A2
:10088000EF92FF92CF93DF93CDB7DEB7AA970FB663
:10089000F894DEBF0FBECDBF8091EF01882309F42D
:1008A000AAC066E371E0CE0101960E94AD0D66E339
:1008B00071E0CE0108960E94AD0D66E371E0CE01B5
:1008C0000F960E94AD0D68EE71E0CE0146960E9433
:1008D000E10D23E030E0AE014F5F5F4F6BE3CE01EF
:1008E00046960E94AC01CE0146960E943C0DBE0188
:1008F0006F5F7F4FCE0184960E94E10DBE01685F5D
:100900007F4FCE014D960E94E10DBE01615F7F4F8A
:10091000CE0146960E94E10D67E371E0CE01849618
:100920000E94FF0E882389F0CE014D960E94AE0FE3
:100930006B017C01CE0146960E94AE0FDC01CB011B
:10094000B6010E944C030E94810069E371E0CE0170
:1009500084960E94FF0E882389F0CE014D960E9456
:10096000AE0F6B017C01CE0146960E94AE0FDC01FA
:10097000CB01B6010E9497030E9481006CE371E0F5
:10098000CE0184960E94FF0E882379F0CE014D9609
:100990000E94AE0F6B017C01CE0146960E94AE0F05
:1009A000C6010E9400040E9481006BE371E0CE0149
:1009B00084960E94FF0E882321F00E9429040E9441
:1009C00081001092EF01CE0146960E943C0DCE01AF
:1009D0004D960E943C0DCE0184960E943C0DCE01A6
:1009E0000F960E943C0DCE0108960E943C0DCE0150
:1009F00001960E943C0DAA960FB6F894DEBF0FBE7A
:100A0000CDBFDF91CF91FF90EF90DF90CF90089511
:100A1000EF920F9366E371E088EE91E00E94AD0DD6
:100A200066E371E082EA91E00E94AD0D33E0E32ECF
:100A300004E02EE031E041E151E065E171E083E85E
:100A400091E00E94BC070F91EF90089582EA91E037
:100A50000E943C0D88EE91E00C943C0DCF93DF9307
:100A6000D1E018C086E592E00E944109C82F682FA6
:100A700088EE91E00E94770ECA3061F420E030E009
:100A800042E350E066EB71E088EE91E00E94210FB6
:100A9000D093EF0186E592E00E9416091816190618
:100AA0000CF3DF91CF910895BF92CF92DF92EF9236
:100AB000FF920F931F93CF93DF93CDB7DEB72797A6
:100AC0000FB6F894DEBF0FBECDBF66E371E082EAD9
:100AD00091E00E94EB0D60910601CE0101960E940B
:100AE000320ECE0101960E94AE0FAB01BC0182EA2C
:100AF00091E00E948A0ECE0101960E943C0D609109
:100B00000701CE0101960E94320ECE0101960E948D
:100B1000AE0FAB01BC0182EA91E00E948A0ECE01C9
:100B200001960E943C0D60910801CE0101960E9441
:100B3000320ECE0101960E94AE0FAB01BC0182EADB
:100B400091E00E948A0ECE0101960E943C0D6091B8
:100B50000901CE0101960E94320ECE0101960E943B
:100B6000AE0FAB01BC0182EA91E00E948A0ECE0179
:100B700001960E943C0D0E942E050E943E040E9498
:100B8000A9000E9430010E94B202809129010E94B6
:100B9000BD08B82E2091AF013091B00180910C01B9
:100BA00090910D0128173907C4F082E50E94670172
:100BB0008091A10181110CC06EE371E086E592E0A5
:100BC0000E94280D6EE371E08AEF91E00E94280DEB
:100BD00081E08093A10161E038C08091B101882358
:100BE00079F187E40E9467010E945B087093AE016F
:100BF0006093AD016AE070E080E090E00E946D08D3
:100C00000E945B084091AF015091B0018A012227F8
:100C100017FD2095322FC090AD01D090AE01EE248B
:100C2000D7FCE094FE2C0C191D092E093F09060F74
:100C3000171F281F391F1093B0010093AF0109C07F
:100C40000E946F001092A10160E080912D010E942E
:100C5000E10881E0B81203C0B092B1011DC062EAA0
:100C600071E0CE0101960E94E10DCE0101960E9435
:100C7000330211E0882321F08091B101811110E04D
:100C8000CE0101960E943C0D112331F01092B1016A
:100C90001092B0011092AF0127960FB6F894DEBF04
:100CA0000FBECDBFDF91CF911F910F91FF90EF90BD
:100CB000DF90CF90BF900895DC0118968D919C91A4
:100CC00019978617970769F019967C936E93189772
:100CD0005C96ED91FC915D97309719F01A968C9186
:100CE000099408954F925F926F927F92AF92BF9254
:100CF000CF92DF92EF92FF920F931F93CF93DF93E8
:100D0000EC01A12CA8C00A2D10E0EC81FD81E00FC0
:100D1000F11F60E080810E94E108B12C68018EC063
:100D2000EB2CF12C8F81E881F981EC0DFD1DB89E33
:100D3000E00DF11D11249A85808198133CC00E941A
:100D40005B084E845F846888798864197509860910
:100D500097094A8C5B8C612C712C6415750586058E
:100D6000970550F0EA81FB81EE0DFF1D80810E9406
:100D7000BD08882309F498C00E945B084E845F84F4
:100D8000688879886419750986099709488C598C8F
:100D9000612C712C641575058605970508F493C0C0
:100DA000EA81FB81EB0DF11D80810E94BD0881303D
:100DB00009F089C07FC00E945B084E845F84688808
:100DC00079886419750986099709488C598C612CB2
:100DD000712C641575058605970578F1EA81FB810C
:100DE000EE0DFF1D80810E94BD08811126C0EC819F
:100DF000FD81E00FF11F61E080810E94E1082F81F9
:100E00002E9DC0012F9D900D1124E881F981EC0DDC
:100E1000FD1DE80FF91FF0808E859F85A889B9898F
:100E20008A8B9B8BAC8BBD8B0E945B086E877F8708
:100E3000888B998BF11015C005C0B3948E81B816BC
:100E400008F46ECFEC81FD81E00FF11F61E080813D
:100E50000E94E108A3948F81A81608F454CF80E083
:100E600040C08B85F81239C00E945B080A891B8933
:100E70002C893D89601B710B820B930B0E891F8996
:100E800020E030E0061717072807390710F525C0BE
:100E900081E090E09D878C87FA8661E070E0CE016A
:100EA0000E945C068A851DC063E070E0CE010E944E
:100EB0005C0662CF62E070E0CE010E945C068A852B
:100EC0008B871A86BFCF88859985039709F0B5CFA0
:100ED000B9CF8C859D850196DDCF8A85F812D8CF54
:100EE000BECFDF91CF911F910F91FF90EF90DF90D8
:100EF000CF90BF90AF907F906F905F904F9008958C
:100F0000FF920F931F93CF93DF93EC01F12C13C04B
:100F10000F2D10E0EA81FB81E00FF11F60E080817E
:100F20000E948F08EA81FB81E00FF11F61E0808160
:100F30000E94E108F3948E81F81650F3F12C13C04F
:100F40000F2D10E0EC81FD81E00FF11F61E0808149
:100F50000E948F08EC81FD81E00FF11F61E080812C
:100F60000E94E108F3948F81F81650F3DF91CF913E
:100F70001F910F91FF900895EF920F93FC015383FF
:100F80004283358324830683E782718360831686D8
:100F90001786108A118A128A138A148A158A8CE29B
:100FA00091E0978B868B82E390E0918F808F88EE23
:100FB00093E0938F828F158E148E1286138611867E
:100FC000108615861486CF010F91EF900C94800740
:100FD000CB010C943C17CB01642F0C94441780E494
:100FE00080937C0087E880937A000895CF93DF9305
:100FF0001F92CDB7DEB790912F01913031F48983E4
:101000000E94EF0710922F01898187702091300193
:1010100040E4249F90011124822B80937C008091D6
:101020007A00806480937A0080917A0086FDFCCFFC
:101030002091780030917900932F80E0FC01E22B21
:101040009F01C9010F90DF91CF9108958091F20126
:101050009091F301A091F401B091F5013091F1016B
:10106000232F2D5F2D3720F40196A11DB11D05C042
:10107000232F2A570296A11DB11D2093F1018093C1
:10108000F2019093F301A093F401B093F5018091E4
:10109000F6019091F701A091F801B091F901019644
:1010A000A11DB11D8093F6019093F701A093F80163
:1010B000B093F90108950F931F938FB7F89400919F
:1010C000F2011091F3012091F4013091F5018FBFED
:1010D000B801C9011F910F9108958F929F92AF920D
:1010E000BF92CF92DF92EF92FF926B017C010E9440
:1010F0005B084B015C010E945B08681979098A0949
:101100009B096C157D058E059F05A8F3FF90EF9058
:10111000DF90CF90BF90AF909F908F900895982FC1
:10112000977021E030E0092E01C0220F0A94EAF7FF
:1011300086958695869581F0813089F0823091F090
:101140008330D1F412C080812095822302C0808137
:10115000822B80839FBF0895EAE2F0E008C0E7E2B7
:10116000F0E005C0E4E2F0E002C0E1E2F0E09FB7A9
:10117000F894662341F3EBCF0895982F977021E000
:1011800030E001C0220F9A95EAF7869586958695FC
:1011900039F0813041F0823049F0833051F00895C8
:1011A000E9E2F0E008C0E6E2F0E005C0E3E2F0E0EA
:1011B00002C0E0E2F0E09081922381E009F480E057
:1011C0000895982F977021E030E0092E01C0220F7A
:1011D0000A94EAF786958695869581F0813089F0A4
:1011E000823091F08330D1F412C080812095822327
:1011F00002C08081822B80839FBF0895EBE2F0E0E4
:1012000008C0E8E2F0E005C0E5E2F0E002C0E2E29A
:10121000F0E09FB7F894662341F3EBCF08950E9466
:10122000BA0F0E94C0030E945405FDCFFC01208923
:101230003189C9010895DC0150962D913C91519757
:10124000232B49F05496ED91FC915597E80FF91F27
:10125000268930E002C02FEF3FEFC9010895FC015D
:10126000118A108A158A148A138A128A0895FC0139
:1012700024813581C9010895FC0124813581C9018A
:101280000895FC0180899189892BD1F03FB7F894AA
:10129000808991890197918B808B84899589DF0161
:1012A000A80FB91F56962C910196803291051CF417
:1012B000958B848B02C0158A148A3FBF30E002C030
:1012C0002FEF3FEFC9010895EF92FF921F93CF9345
:1012D000DF931F92CDB7DEB77C01D701DA968D91EF
:1012E0009C91DB974097C8F71FB7F894D696ED917D
:1012F000FC91D7970190F081E02DC701C6966983D4
:10130000099569814097C8F4F70182AD93AD0196C4
:1013100093AF82AF84AD95ADE80FF91FE05CFF4F4E
:1013200060830196D701DD969C938E93DC9740975E
:1013300024F0DD961C921E92DC97F701EA5AFF4FCB
:101340000190F081E02D8081806280831FBF81E069
:1013500090E00F90DF91CF911F91FF90EF90089553
:10136000665F7F4F680F791FCB010895665F7F4FDF
:10137000680F791FCB010895665F7F4F680F791F53
:10138000CB010895665F7F4F680F791FCB010895E9
:101390001F920F920FB60F9211242F938F939F934A
:1013A000AF93BF93EF93FF9380919002909191023E
:1013B000892B21F1E091B002F091B102809190026D
:1013C0009091910201979093910280939002809165
:1013D000940290919502DC01A457BD4F1A962C916E
:1013E0000196803191052CF490939502809394029C
:1013F00004C0109295021092940220838091900272
:1014000090919102892B31F4E091AC02F091AD0200
:1014100088E98083FF91EF91BF91AF919F918F9168
:101420002F910F900FBE0F901F9018951F920F9243
:101430000FB60F9211242F938F939F93AF93BF9367
:10144000EF93FF938091340290913502892B21F123
:10145000E0915402F091550280913402909135024E
:1014600001979093350280933402809138029091D5
:101470003902DC01A05DBD4F1A962C910196803196
:1014800091052CF4909339028093380204C0109295
:1014900039021092380220838091340290913502F3
:1014A000892B31F4E0915002F091510288E9808358
:1014B000FF91EF91BF91AF919F918F912F910F90DD
:1014C0000FBE0F901F901895FC01262F13821282D9
:1014D00048EE53E060E070E0448355836683778391
:1014E00084E491E09183808384E591E0958784870B
:1014F00080E290E097878687118A108A158A148A7D
:10150000138A128A8EE591E097AB86AB80E190E07A
:1015100091AF80AF13AE12AE17AE16AE15AE14AECD
:10152000222321F0213009F052C028C0DF01A05B46
:10153000BF4F85EC90E08D939C93DF01AE5ABF4F77
:1015400084EC90E08D939C93DF01AC5ABF4F80EC0C
:1015500090E08D939C93DF01AA5ABF4F81EC90E0FD
:101560008D939C93DF01A85ABF4F82EC90E08D933E
:101570009C93E65AFF4F86EC90E027C0DF01A05B0A
:10158000BF4F8DEC90E08D939C93DF01AE5ABF4F1F
:101590008CEC90E08D939C93DF01AC5ABF4F88ECAC
:1015A00090E08D939C93DF01AA5ABF4F89EC90E0A5
:1015B0008D939C93DF01A85ABF4F8AEC90E08D93E6
:1015C0009C93E65AFF4F8EEC90E0918380830895C0
:1015D0003F924F925F926F927F928F929F92AF92C3
:1015E000BF92CF92DF92EF92FF920F931F93CF9310
:1015F000DF93EC014A015B01122F3E2C60E072E1A7
:101600008AE790E0A50194010E941C1469017A0107
:1016100084E0C80ED11CE11CF11C83E0F694E79431
:10162000D794C7948A95D1F760E074E284EF90E094
:10163000A50194010E941C1429013A0194E0490E6D
:10164000511C611C711C93E07694679457944794E5
:101650009A95D1F7A30192014427552760E874E8D1
:101660008EE190E00E943E145901A818B908B7FE17
:1016700003C0B194A194B108A7019601442755274E
:1016800060E472E48FE090E00E943E14281939096A
:1016900037FF03C0319521953109FE01EC5AFF4F08
:1016A0000190F081E02DA216B3063CF482E0808325
:1016B000620181E0C81AD10804C0108291E0C91A01
:1016C000D1081630C1F018F4153099F405C0173060
:1016D00029F0193071F404C080E00EC084E00CC021
:1016E000FE01EA5AFF4F0190F081E02D8081846075
:1016F000808386E001C082E0023009F4886091E0D6
:10170000391621F092E0391204C002C0806301C092
:101710008062FE01E85AFF4F0190F081E02D808346
:10172000FE01E05BFF4F0190F081E02DD082FE01D1
:10173000EE5AFF4F0190F081E02DC082CA5ADF4F70
:10174000E881F98188E98083DF91CF911F910F9122
:10175000FF90EF90DF90CF90BF90AF909F908F90D1
:101760007F906F905F904F903F9008950F931F93DD
:10177000CF93DF931F92CDB7DEB78C01DC01ED91E3
:10178000FC910190F081E02D698309956981809732
:10179000D0F4F801848195810196958384838681B4
:1017A0009781E80FF91F628701968032910534F422
:1017B000D80117969C938E93169703C0F801178251
:1017C000168281E001C080E00F90DF91CF911F91E0
:1017D0000F9108951F920F920FB60F9211242F931D
:1017E0003F934F935F936F937F938F939F93AF93A9
:1017F000BF93EF93FF93E0915402F0915502608103
:1018000086E092E00E94B60BFF91EF91BF91AF91FD
:101810009F918F917F916F915F914F913F912F9108
:101820000F900FBE0F901F9018951F920F920FB63A
:101830000F9211242F933F934F935F936F937F9356
:101840008F939F93AF93BF93EF93FF93E091B00279
:10185000F091B102608182E692E00E94B60BFF91A6
:10186000EF91BF91AF919F918F917F916F915F9118
:101870004F913F912F910F900FBE0F901F90189591
:1018800060E086E592E00E94640A61E08AEF91E000
:101890000C94640A1F93CF93DF93182FEB012097CA
:1018A00021F460E00E94E10840E0143079F1153045
:1018B00029F11630E9F1173099F1133169F014313B
:1018C00009F044C011C060E001C061E0812FDF91E8
:1018D000CF911F910C94E10860E086EF92E00E94A6
:1018E0008F12AE0160E007C061E086EF92E00E94D7
:1018F0008F12AE0161E086EF92E023C060E084EDDC
:1019000092E00E948F12AE0160E007C061E084EDBA
:1019100092E00E948F12AE0161E084ED92E011C06E
:1019200060E082EB92E00E948F12AE0160E007C09F
:1019300061E082EB92E00E948F12AE0161E082EBE7
:1019400092E0DF91CF911F910C94BC12C038D10569
:1019500008F4B9CFBACFCF92DF92EF92FF920F93F4
:101960001F93CF93DF936C01EB017A01E60EF71E14
:1019700000E010E00BC06991D601ED91FC9101905F
:10198000F081E02DC6010995080F191FCE15DF055E
:1019900091F7C801DF91CF911F910F91FF90EF90C8
:1019A000DF90CF9008956115710581F0DB010D90F6
:1019B0000020E9F7AD0141505109461B570BDC01EE
:1019C000ED91FC910280F381E02D099480E090E09C
:1019D0000895DC01ED91FC910190F081E02D0994D6
:1019E000DC01ED91FC91DB0114964D915C91159712
:1019F0006D917C910280F381E02D09940F931F93E8
:101A0000CF93DF93EC016DE00E94E90C8C016AE05A
:101A1000CE010E94E90C9C01200F311FC901DF910A
:101A2000CF911F910F9108950F931F93CF93DF9341
:101A3000EC010E94F00C8C01CE010E94FE0C9C0176
:101A4000200F311FC901DF91CF911F910F91089590
:101A50000F931F93CF93DF93EC010E94D30C8C0163
:101A6000CE010E94FE0C9801280F391FC901DF9199
:101A7000CF911F910F910895FC01808191810C9469
:101A80000F15CF93DF93EC0188819981009711F0B6
:101A90000E940F15198218821D821C821B821A82D5
:101AA000DF91CF9108950F931F93CF93DF93EC01B4
:101AB0008B016F5F7F4F888199810E94AC150097E1
:101AC00031F0998388831B830A8381E001C080E021
:101AD000DF91CF911F910F910895CF93DF93EC0188
:101AE00088819981892B31F08A819B81861797079C
:101AF00008F00CC0CE010E94530D882349F08C8160
:101B00009D81892B19F4E881F981108281E001C05F
:101B100080E0DF91CF910895EF92FF920F931F9392
:101B2000CF93DF93EC017B018A01BA010E946D0D16
:101B3000811104C0CE010E94410D07C01D830C839A
:101B4000B701888199810E94BC16CE01DF91CF91A7
:101B50001F910F91FF90EF900895DC0111961C9258
:101B60001E9213961C921E92129715961C921E920C
:101B7000149716961C926115710559F0DB010D90B2
:101B80000020E9F7AD0141505109461B570B0C9459
:101B90008C0D0895CF93DF93EC01FB018617970717
:101BA00061F0608171816115710529F04481558171
:101BB0000E948C0D02C00E94410DCE01DF91CF9199
:101BC0000895FC0111821082138212821582148200
:101BD00016820C94CA0DCF93DF93D82FC92F6115AD
:101BE000710561F0DB010D900020E9F7AD01415076
:101BF0005109461B570B0E948C0D02C00E94410DDB
:101C00008D2F9C2FDF91CF9108950F931F93CF932A
:101C1000DF93CDB7DEB762970FB6F894DEBF0FBE85
:101C2000CDBF8C01CB01F801118210821382128288
:101C300015821482168250E0BE016F5F7F4F0E94B2
:101C4000D216BE016F5F7F4FC8010E94EB0D6296F6
:101C50000FB6F894DEBF0FBECDBFDF91CF911F91BD
:101C60000F910895CF93DF9300D0CDB7DEB7FC017D
:101C70001182108213821282158214821682698365
:101C80001A82BE016F5F7F4F0E94EB0D0F900F9085
:101C9000DF91CF910895EF92FF920F931F93CF930F
:101CA000DF93EC017B010C811D816115710511F43D
:101CB00080E016C04115510591F0040F151FB801C1
:101CC0000E946D0D8823A1F3288139818C819D812B
:101CD000B701820F931F0E94BC161D830C8381E005
:101CE000DF91CF911F910F91FF90EF900895CF93C7
:101CF000DF9300D0CDB7DEB769831A8241E050E0B0
:101D0000BE016F5F7F4F0E944B0E0F900F90DF91CF
:101D1000CF910895EF92FF920F931F93CF93DF938C
:101D2000CDB7DEB72E970FB6F894DEBF0FBECDBF8E
:101D30007C01CB01BA012AE030E08E010F5F1F4F1A
:101D4000A8010E94F316F80101900020E9F7AF0105
:101D500041505109401B510BB801C7010E944B0E65
:101D60002E960FB6F894DEBF0FBECDBFDF91CF9198
:101D70001F910F91FF90EF900895CF93DF93DC01B7
:101D8000ED91FC91EB01A881B981309711F010978A
:101D9000C9F4109759F0EB012C813D81232B31F0D0
:101DA0002C9130E031952195310914C0309781F0A4
:101DB000DC0114968D919C911597892B49F0208117
:101DC00030E008C0BD01CF01DF91CF910C94B31674
:101DD00020E030E0C901DF91CF910895FC014481FA
:101DE0005581FB01248135814217530729F40E9454
:101DF000BD0E21E0892B09F020E0822F0895DC013F
:101E000014962D913C911597232B39F481E061159F
:101E1000710511F0FB0108C00895DC01ED91FC9102
:101E20006115710529F481E09081992349F007C07B
:101E3000CF010E94B3169C0181E0232B09F080E0C2
:101E400008950F931F93CF93DF93EB014115510535
:101E5000E9F02097D9F0FC010481158120173107A2
:101E600008F013C041505109021B130B40175107D2
:101E700008F48A01FC0160817181620F731FA8015F
:101E8000CE010E94C316C00FD11F1882DF91CF91DF
:101E90001F910F910895CF93DF93FC018481958169
:101EA0004817590780F4C081D181772767FD709565
:101EB000CE01840F951F0E94A816009721F09C0167
:101EC0002C1B3D0B02C02FEF3FEFC901DF91CF91DB
:101ED0000895BF92CF92DF92EF92FF920F931F93DC
:101EE000CF93DF936C017B01EA0189012417350749
:101EF00020F48D2FE901042F182F66E371E0C6014D
:101F00000E94AD0DD70114968D919C9115978C1759
:101F10009D07C8F08017910708F48C01D701ED9157
:101F2000FC911197E00FF11FB08010826D917C91B0
:101F30006C0F7D1FC6010E94EB0DD701ED91FC9146
:101F4000E00FF11FB082C601DF91CF911F910F9179
:101F5000FF90EF90DF90CF90BF900895FC018081BB
:101F60009181009711F00C94781660E070E080E0A9
:101F700090E0089563E086EF92E00E94791221E0FC
:101F800046E258E060E086EF92E00E944F1264E083
:101F900086EF92E00E947C1161E084ED92E00E9465
:101FA000791264E084ED92E00E947C1161E082EBA2
:101FB00092E00E94791264E082EB92E00E947C1130
:101FC000789408951F920F920FB60F9211242F93B9
:101FD0003F934F935F936F937F938F939F93AF93B1
:101FE000BF93EF93FF93E0911003F09111033097AB
:101FF00009F00995FF91EF91BF91AF919F918F915A
:102000007F916F915F914F913F912F910F900FBEF4
:102010000F901F9018951F920F920FB60F921124D8
:102020002F933F934F935F936F937F938F939F93E0
:10203000AF93BF93EF93FF93E0911203F0911303DB
:10204000309709F00995FF91EF91BF91AF919F9162
:102050008F917F916F915F914F913F912F910F9051
:102060000FBE0F901F9018951F920F920FB60F92F0
:1020700011242F933F934F935F936F937F938F938D
:102080009F93AF93BF93EF93FF93E0910E03F09173
:102090000F03309709F00995FF91EF91BF91AF9130
:1020A0009F918F917F916F915F914F913F912F9170
:1020B0000F900FBE0F901F9018951F920F920FB6A2
:1020C0000F9211242F933F934F935F936F937F93BE
:1020D0008F939F93AF93BF93EF93FF93E091CC02C5
:1020E000F091CD02309709F00995FF91EF91BF91E2
:1020F000AF919F918F917F916F915F914F913F91A0
:102100002F910F900FBE0F901F9018951F920F9256
:102110000FB60F9211242F933F934F935F936F93BA
:102120007F938F939F93AF93BF93EF93FF93E09130
:10213000CE02F091CF02309709F00995FF91EF910F
:10214000BF91AF919F918F917F916F915F914F91CF
:102150003F912F910F900FBE0F901F9018951F92D7
:102160000F920FB60F9211242F933F934F935F93CB
:102170006F937F938F939F93AF93BF93EF93FF934F
:10218000E091CA02F091CB02309709F00995FF91D6
:10219000EF91BF91AF919F918F917F916F915F91DF
:1021A0004F913F912F910F900FBE0F901F90189558
:1021B0001F920F920FB60F9211242F933F934F93BC
:1021C0005F936F937F938F939F93AF93BF93EF939F
:1021D000FF93E091EE02F091EF02309709F009953C
:1021E000FF91EF91BF91AF919F918F917F916F91EF
:1021F0005F914F913F912F910F900FBE0F901F90C5
:1022000018951F920F920FB60F9211242F933F93A0
:102210004F935F936F937F938F939F93AF93BF93EE
:10222000EF93FF93E091F002F091F102309709F003
:102230000995FF91EF91BF91AF919F918F917F9100
:102240006F915F914F913F912F910F900FBE0F9023
:102250001F9018951F920F920FB60F9211242F9373
:102260003F934F935F936F937F938F939F93AF931E
:10227000BF93EF93FF93E091EC02F091ED02309762
:1022800009F00995FF91EF91BF91AF919F918F91C7
:102290007F916F915F914F913F912F910F900FBE62
:1022A0000F901F9018951F920F920FB60F92112446
:1022B0002F933F934F935F936F937F938F939F934E
:1022C000AF93BF93EF93FF93E091F402F091F50287
:1022D000309709F00995FF91EF91BF91AF919F91D0
:1022E0008F917F916F915F914F913F912F910F90BF
:1022F0000FBE0F901F901895DC012C916150223079
:1023000039F4673068F4E62FF0E0EC59FE4F06C070
:10231000693030F4E62FF0E0E559FE4F208101C02E
:1023200020E0DC011A96ED91FC911B978081887F5B
:10233000822B80830895CF93DF93EC016883613013
:1023400011F120F0623009F06CC048C01B821A8283
:1023500086E490E09D838C838EE690E09F838E835D
:1023600084E490E09987888785E490E09B878A875A
:102370001D861C8687E490E09F878E87198A188ABD
:1023800088E490E022C08FE690E09F838E8385E80A
:1023900090E09B838A8384E890E09D838C8380E82F
:1023A00090E09987888781E890E09B878A8789E811
:1023B00090E09D878C8788E890E09F878E878BE8E8
:1023C00090E0998B888B8AE890E09B8B8A8B1D8AA2
:1023D0001C8A1F8A1E8A82E0898323C01B821A827C
:1023E00082EB90E09D838C8380E790E09F838E83D7
:1023F00080EB90E09987888781EB90E09B878A87C4
:102400001D861C8683EB90E09F878E87198A188A29
:1024100084EB90E09B8B8A8B1D8A1C8A1F8A1E8A04
:10242000698360E0CE010E947C11EA81FB813097D4
:1024300009F01082EC81FD811082198E188E1B8E9E
:102440001A8E1D8E1C8E1F8E1E8E19A218A2DF9151
:10245000CF91089551E0411101C050E06530F0F492
:10246000E62FF0E0EC58FE4F408147FD17C0DC013D
:102470001696ED91FC911797808121E030E0042EB3
:1024800001C0220F0A94EAF720952823852F042EF5
:1024900001C0880F0A94EAF7282B20830895623040
:1024A00099F028F4662341F06130C9F409C0633023
:1024B00079F06430A1F410C0FC01518F408F0FC03F
:1024C000FC01538F428F0BC0FC01558F448F07C016
:1024D000FC01578F468F03C0FC0151A340A3452B3D
:1024E00011F440E003C0222319F041E00C942A12B9
:1024F0000895DC011896ED91FC9119973081262FF3
:1025000023703C7F232B20831A96ED91FC911B971F
:1025100080816C70660F877E682B60830895FC0154
:102520008181681740F59081992311F0923011F460
:10253000813049F0662329F0613029F0623031F4AE
:1025400004C026E003C024E001C022E00084F1853D
:10255000E02D308183E090E0022E01C0880F0A94C4
:10256000EAF7809583234370022E01C0440F0A943A
:10257000EAF7842B80830895FC0181816817F8F4C1
:10258000611109C0A485B585109709F05C93068494
:10259000F785E02D13C0613049F4A089B189109707
:1025A00009F05C930288F389E02D08C0623039F4A9
:1025B000A489B5895C930688F789E02D4083089546
:1025C00060E086EF92E00E949B1161E084ED92E072
:1025D0000E949B1162E082EB92E00C949B1140D030
:1025E00008F481E00895E89409C097FB3EF49095C3
:1025F0008095709561957F4F8F4F9F4F9923A9F0DC
:10260000F92F96E9BB279395F6958795779567956A
:10261000B795F111F8CFFAF4BB0F11F460FF1BC0AE
:102620006F5F7F4F8F4F9F4F16C0882311F096E941
:1026300011C0772321F09EE8872F762F05C06623EF
:1026400071F096E8862F70E060E02AF09A95660FA8
:10265000771F881FDAF7880F9695879597F9089561
:10266000990F0008550FAA0BE0E8FEEF16161706A3
:10267000E807F907C0F012161306E407F50798F00B
:10268000621B730B840B950B39F40A2661F0232B24
:10269000242B252B21F408950A2609F4A140A695A0
:1026A0008FEF811D811D089597F99F6780E870E085
:1026B00060E008959FEF80EC089500240A941616B8
:1026C000170618060906089500240A941216130620
:1026D000140605060895092E0394000C11F48823AE
:1026E00052F0BB0F40F4BF2B11F460FF04C06F5FCA
:1026F0007F4F8F4F9F4F089557FD9058440F551FA0
:1027000059F05F3F71F04795880F97FB991F61F073
:102710009F3F79F087950895121613061406551FEA
:10272000F2CF4695F1DF08C0161617061806991F56
:10273000F1CF86957105610508940895E894BB274B
:1027400066277727CB0197F908950BD0C4CFB5DF63
:1027500028F0BADF18F0952309F0A6CFABCF1124EB
:10276000EECFCADFA0F3959FD1F3950F50E0551F30
:10277000629FF001729FBB27F00DB11D639FAA27D6
:10278000F00DB11DAA1F649F6627B00DA11D661F25
:10279000829F2227B00DA11D621F739FB00DA11D46
:1027A000621F839FA00D611D221F749F3327A00D00
:1027B000611D231F849F600D211D822F762F6A2F9C
:1027C00011249F5750408AF0E1F088234AF0EE0F21
:1027D000FF1FBB1F661F771F881F91505040A9F72E
:1027E0009E3F510570F060CFAACF5F3FECF3983E5B
:1027F000DCF3869577956795B795F795E7959F5F95
:10280000C1F7FE2B880F911D9695879597F908952E
:1028100097FB072E16F4009407D077FD09D00E948D
:102820005A1407FC05D03EF4909581959F4F08956A
:10283000709561957F4F0895A1E21A2EAA1BBB1BCC
:10284000FD010DC0AA1FBB1FEE1FFF1FA217B3077C
:10285000E407F50720F0A21BB30BE40BF50B661F92
:10286000771F881F991F1A9469F760957095809556
:1028700090959B01AC01BD01CF010895052E97FBFA
:1028800016F4009407D057FD0DD00E941C1407FCCD
:1028900009D07EF490958095709561957F4F8F4F0C
:1028A0009F4F089550954095309521953F4F4F4F3C
:1028B0005F4F0895AA1BBB1B51E107C0AA1FBB1F96
:1028C000A617B70710F0A61BB70B881F991F5A95BC
:1028D000A9F780959095BC01CD010895EE0FFF1FDB
:1028E0000590F491E02D09940F931F93CF93DF93FC
:1028F0008230910510F482E090E0E0911A03F091AB
:102900001B0320E030E0C0E0D0E023C040815181D3
:1029100048175907A8F04817590761F48281938135
:10292000209719F09B838A832EC090931B0380937A
:102930001A0329C02115310529F04217530710F059
:10294000A90102C0BE01DF0102811381EF019A01DA
:10295000F8013097D9F62115310509F1281B390BFB
:102960002430310590F412968D919C911397611546
:10297000710521F0FB019383828304C090931B03B4
:1029800080931A03FD01329644C0FD01E20FF31F4C
:1029900081939193225031092D933C933AC0209119
:1029A000180330911903232B41F420910201309137
:1029B00003013093190320931803209100013091F3
:1029C00001012115310541F42DB73EB740910401B5
:1029D00050910501241B350BE0911803F091190368
:1029E000E217F307A0F42E1B3F0B2817390778F0E6
:1029F000AC014E5F5F4F2417350748F04E0F5F1F45
:102A000050931903409318038193919302C0E0E01F
:102A1000F0E0CF01DF91CF911F910F910895EF92D8
:102A2000FF920F931F93CF93DF93009709F48FC00A
:102A3000DC01129713961C921E921297E0901A03D3
:102A4000F0901B03E114F10489F42D913C9111974E
:102A5000280F391F8091180390911903821793074B
:102A600089F5B0931903A093180371C0E70120E022
:102A700030E001C0EA01CA17DB0738F44A815B8104
:102A80009E0141155105B1F722C0BC016250710988
:102A9000FB01D383C28300811181AC01400F511F20
:102AA0004C175D0761F448815981400F511F4E5FFB
:102AB0005F4F518340834A815B8153834283211559
:102AC000310529F4B0931B03A0931A0340C0F90108
:102AD000B383A283E90169917991C60FD71FAC171F
:102AE000BD0779F4DC015E914E91460F571F4E5F92
:102AF0005F4F5183408312968D919C9113979383DE
:102B00008283A0E0B0E002C0D7017C01F70182819E
:102B100093810097C9F7C701029620813181820F06
:102B2000931F20911803309119032817390779F45E
:102B3000109729F410921B0310921A0304C01396E5
:102B40001C921E921297F0921903E0921803CDB7CF
:102B5000DEB7E6E00C948A17A0E0B0E0E2EBF5E126
:102B60000C946817EC01009729F4CB010E947414AF
:102B7000EC01B8C0DC01A60FB71FFC013297AE17FD
:102B8000BF0718F4C0E0D0E0ADC000811181061786
:102B90001707B0F00530110508F4A4C0C801049768
:102BA0008617970708F49EC002501109061B170BE1
:102BB0000D931D9371836083CD010E940F1592C008
:102BC0007B01E01AF10A5C01A00EB11EE0911A032C
:102BD000F0911B03812C912C80E090E04CC0EA1511
:102BE000FB05F1F5408151816A0122E0C20ED11C42
:102BF000CE14DF04A8F19A012E193F097901690169
:102C000032E0C30ED11C2EEFA22EBB24BA94AC0E20
:102C1000BD1E25E0C216D10478F04281538113967F
:102C20005C934E9312971196FC92EE92F50171838C
:102C300060833A2F2B2F09C00E5F1F4F040F151F03
:102C4000D5010D931C9332812381009721F0FC0163
:102C50003283238347C030931A0320931B0342C05F
:102C6000808191818816990608F44C015281438134
:102C7000CF01E52FF42F309709F0B1CF80911803E1
:102C8000909119038A159B05F1F486169706D8F4DE
:102C90008091000190910101009741F48DB79EB79A
:102CA0002091040130910501821B930BA817B907ED
:102CB00008F068CFB0931903A0931803FE01329770
:102CC000718360830FC0CB010E9474147C01009754
:102CD00009F458CFA801BE010E949F16CE010E94A0
:102CE0000F15E701CE01CDB7DEB7ECE00C948417E9
:102CF0001F93FC0199278827BC01E8941191103299
:102D0000E9F3193010F01E30C8F31B3251F01D32B8
:102D100049F4689406C00E942717610F711D811D38
:102D2000911D119110531A30B0F33EF49095809597
:102D3000709561957F4F8F4F9F4F1F910895FB01B5
:102D4000DC0102C001900D9241505040D8F7089527
:102D5000FC018191861721F08823D9F799270895DE
:102D60003197CF010895FB01DC018D91019080190D
:102D70000110D9F3990B0895FB01DC0101900D922C
:102D80000020E1F70895FB01DC014150504048F07C
:102D900001900D920020C9F701C01D924150504092
:102DA000E0F70895FB019F01E8944230C4F04532FA
:102DB000B4F44A3029F497FB1EF4909581959F4F07
:102DC000642F77270E945A14805D8A330CF0895D46
:102DD0008193CB010097A1F716F45DE25193108225
:102DE000C9010C945217FA01CF93FF93EF9322304D
:102DF00044F1253234F5C22FE894CA3049F497FBE8
:102E00003EF490958095709561957F4F8F4F9F4FC1
:102E10002C2F332744275527FF93EF930E941C1430
:102E2000EF91FF91605D6A330CF0695D6193B901C8
:102E3000CA01605070408040904051F716F4CDE2D6
:102E4000C19310828F919F91CF910C945217592F5B
:102E5000482F372F262F660F771F881F991F660F61
:102E6000771F881F991F620F731F841F951F660F9E
:102E7000771F881F991F0895F999FECF92BD81BDD4
:102E8000F89A992780B50895262FF999FECF1FBA91
:102E900092BD81BD20BD0FB6F894FA9AF99A0FBE83
:102EA00001960895DC01FC01672F71917723E1F70A
:102EB000329704C07C916D9370836291AE17BF0707
:102EC000C8F308952F923F924F925F926F927F9234
:102ED0008F929F92AF92BF92CF92DF92EF92FF922A
:102EE0000F931F93CF93DF93CDB7DEB7CA1BDB0BD6
:102EF0000FB6F894DEBF0FBECDBF09942A8839887B
:102F000048885F846E847D848C849B84AA84B98481
:102F1000C884DF80EE80FD800C811B81AA81B9818D
:102F2000CE0FD11D0FB6F894DEBF0FBECDBFED01A1
:102F3000089510E0C2E8D0E004C0FE010E947014C1
:0C2F40002296C438D107C9F7F894FFCFDF
:102F4C0000001C03200020202020040088131516EC
:102F5C0017111213143132333435363738392A30CD
:102F6C002310000600070005000B000C00180001E0
:102F7C00013300310030004300550044440032005E
:102F8C00000000006409AB0C16091B0941092F094C
:102F9C00000000003C09BC09C20900000000370910
:102FAC00B009B6090102030405060701020003007B
:0A2FBC0004050607000102030500EA
:00000001FF
