:100000000C9441000C9469000C9469000C946900F4
:100010000C9469000C9469000C9469000C946900BC
:100020000C9469000C944E090C9477090C94A00967
:100030000C94440A0C94C9090C94F2090C941B0A00
:100040000C94D3080C94FC080C9425090C946900BA
:100050000C949F070C9452050C9469000C94690051
:100060000C9469000C9469000C9469000C9469006C
:100070000C9474070C94A0050C9469001902CA072B
:10008000D10B11241FBECFEFD0E1DEBFCDBF11E0F9
:10009000A0E0B1E0ECE4F8E102C005900D92AC37CD
:1000A000B107D9F712E0ACE7B1E001C01D92AB3C5B
:1000B000B107E1F710E0C2E8D0E004C02297FE01EA
:1000C0000E94200CCC37D107C9F70E94D4070C94AA
:1000D000240C0C94000042E00C94DB0760E070E01C
:1000E000809137010E946B006FEF70E080913501C5
:1000F0000E946B006FEF70E0809133010C946B00F5
:10010000EF920F93E12C01E028E040E855E260E037
:1001100070E089E092E00E94720661E080913B010C
:100120000E94B70360E0809139010E94B70361E04B
:10013000809137010E94B70361E0809135010E94F0
:10014000B70361E0809133010E94B70360E08091C2
:1001500031010F91EF900C94B703823579F46FEF72
:1001600070E0809137010E946B0060E070E0809148
:1001700035010E946B006FEF70E010C0873491F47E
:100180006FEF70E0809137010E946B006FEF70E0BD
:10019000809135010E946B0060E070E08091330136
:1001A0000C946B00823411F40C946E000895CF937C
:1001B00060910A0170910B012CE031E040E050E0C9
:1001C0000DC0C191D901A80FB91FAC91AC1310C0DB
:1001D000019686179707ACF381E00FC046175707C3
:1001E0002CF4E6E0F1E080E090E0F3CF80E005C0A1
:1001F0004F5F5F4F2C5F3F4FF1CFCF910895833218
:1002000029F410929C0110929B0108958A3219F4EE
:100210001092A301089520919B0130919C01F90156
:10022000EA5FFE4F80832F5F3F4F30939C01209306
:100230009B010895CF92DF92EF92FF920F931F934D
:10024000CF93809131010E94E503182F80913901ED
:100250000E94E503C82F8CE791E00E9441028823A9
:1002600009F443C00E94FF0040919B0150919C0102
:1002700020910A0130910B0142175307B1F51092FA
:100280009C0110929B010E94D7008111BCC020915B
:100290009D0130919E012330310509F0A0C0B3C00B
:1002A00020919D0130919E0123303105F1F4809120
:1002B0009A01811109C06DE371E089E092E00E942A
:1002C000970881E080939A0160911C0170911D0153
:1002D000882777FD8095982F0E947E0482E50E94F2
:1002E000AD0010929E0110929D01113091F461E0D9
:1002F00080913B010E94090480919A01811106C0FE
:100300006FE371E089E092E00E94970881E08093BA
:100310009A0160E080913B010E9409042091A101B3
:100320003091A20180911C0190911D01281739077D
:100330008CF082E50E94AD0080919A01811106C087
:1003400061E471E089E092E00E94970881E0809387
:100350009A0137C08091A301882379F187E40E9434
:10036000AD000E946C047093A00160939F016AE04D
:1003700070E080E090E00E947E040E946C04409156
:10038000A1015091A2018A01222717FD2095322F49
:10039000C0909F01D090A001EE24D7FCE094FE2CE9
:1003A0000C191D092E093F09060F171F281F391F99
:1003B0001093A2010093A10104C00E946E0010924C
:1003C0009A01C13019F4C093A3012BC00E94D70039
:1003D000882309F18091A3018823E9F022C082E5F6
:1003E0000E94AD0068EE73E080E090E00E947E0421
:1003F00020919D0130919E012F5F3F4F30939E01D0
:1004000020939D014DCF10929E0110929D0181E09D
:100410008093A30145CF1092A3011092A2011092E4
:10042000A101CF911F910F91FF90EF90DF90CF909E
:100430000895EF920F9383E0E82E04E02EE131E07F
:1004400041E251E065E271E08CE791E00E948B03AC
:100450000F91EF900895DC0118968D919C9119975A
:100460008617970769F019967C936E9318975C9698
:10047000ED91FC915D97309719F01A968C91099443
:1004800008954F925F926F927F92AF92BF92CF92F8
:10049000DF92EF92FF920F931F93CF93DF93EC01C4
:1004A000A12CA8C00A2D10E0EC81FD81E00FF11F06
:1004B00060E080810E940904B12C68018EC0EB2CA1
:1004C000F12C8F81E881F981EC0DFD1DB89EE00DC6
:1004D000F11D11249A85808198133CC00E946C0400
:1004E0004E845F846888798864197509860997093C
:1004F0004A8C5B8C612C712C6415750586059705FB
:1005000050F0EA81FB81EE0DFF1D80810E94E50322
:10051000882309F498C00E946C044E845F84688824
:1005200079886419750986099709488C598C612C5A
:10053000712C641575058605970508F493C0EA814A
:10054000FB81EB0DF11D80810E94E503813009F0F4
:1005500089C07FC00E946C044E845F84688879885B
:100560006419750986099709488C598C612C712C7E
:10057000641575058605970578F1EA81FB81EE0D16
:10058000FF1D80810E94E503811126C0EC81FD8161
:10059000E00FF11F61E080810E9409042F812E9DF0
:1005A000C0012F9D900D1124E881F981EC0DFD1DF6
:1005B000E80FF91FF0808E859F85A889B9898A8BFD
:1005C0009B8BAC8BBD8B0E946C046E877F87888B66
:1005D000998BF11015C005C0B3948E81B81608F43C
:1005E0006ECFEC81FD81E00FF11F61E080810E9400
:1005F0000904A3948F81A81608F454CF80E040C06A
:100600008B85F81239C00E946C040A891B892C89D9
:100610003D89601B710B820B930B0E891F8920E0B3
:1006200030E0061717072807390710F525C081E0C5
:1006300090E09D878C87FA8661E070E0CE010E9491
:100640002B028A851DC063E070E0CE010E942B0260
:1006500062CF62E070E0CE010E942B028A858B8718
:100660001A86BFCF88859985039709F0B5CFB9CF92
:100670008C859D850196DDCF8A85F812D8CFBECFB7
:10068000DF91CF911F910F91FF90EF90DF90CF906E
:10069000BF90AF907F906F905F904F900895FF92C2
:1006A0000F931F93CF93DF93EC01F12C13C00F2D09
:1006B00010E0EA81FB81E00FF11F60E080810E9481
:1006C000B703EA81FB81E00FF11F61E080810E94A6
:1006D0000904F3948E81F81650F3F12C13C00F2DFA
:1006E00010E0EC81FD81E00FF11F61E080810E944C
:1006F000B703EC81FD81E00FF11F61E080810E9472
:100700000904F3948F81F81650F3DF91CF911F9174
:100710000F91FF900895EF920F93FC015383428352
:10072000358324830683E782718360831686178668
:10073000108A118A128A138A148A158A8CE291E02F
:10074000978B868B82E390E0918F808F88EE93E089
:10075000938F828F158E148E1286138611861086C3
:1007600015861486CF010F91EF900C944F03982FAC
:10077000977021E030E0092E01C0220F0A94EAF7B9
:1007800086958695869581F0813089F0823091F04A
:100790008330D1F412C080812095822302C08081F1
:1007A000822B80839FBF0895EAE2F0E008C0E7E271
:1007B000F0E005C0E4E2F0E002C0E1E2F0E09FB763
:1007C000F894662341F3EBCF0895982F977021E0BA
:1007D00030E001C0220F9A95EAF7869586958695B6
:1007E00039F0813041F0823049F0833051F0089582
:1007F000E9E2F0E008C0E6E2F0E005C0E3E2F0E0A4
:1008000002C0E0E2F0E09081922381E009F480E010
:100810000895982F977021E030E0092E01C0220F33
:100820000A94EAF786958695869581F0813089F05D
:10083000823091F08330D1F412C0808120958223E0
:1008400002C08081822B80839FBF0895EBE2F0E09D
:1008500008C0E8E2F0E005C0E5E2F0E002C0E2E254
:10086000F0E09FB7F894662341F3EBCF08958091B1
:10087000A5019091A601A091A701B091A801309186
:10088000A401232F2D5F2D3720F40196A11DB11D4A
:1008900005C0232F2A570296A11DB11D2093A40144
:1008A0008093A5019093A601A093A701B093A801FE
:1008B0008091A9019091AA01A091AB01B091AC01E6
:1008C0000196A11DB11D8093A9019093AA01A09347
:1008D000AB01B093AC0108950F931F938FB7F894B9
:1008E0000091A5011091A6012091A7013091A801C6
:1008F0008FBFB801C9011F910F9108958F929F92E8
:10090000AF92BF92CF92DF92EF92FF926B017C0188
:100910000E946C044B015C010E946C046819790907
:100920008A099B096C157D058E059F05A8F3FF902C
:10093000EF90DF90CF90BF90AF909F908F900895F1
:10094000FC0120893189C9010895DC0150962D915F
:100950003C915197232B49F05496ED91FC9155977A
:10096000E80FF91F268930E002C02FEF3FEFC901E1
:100970000895FC01118A108A158A148A138A128A32
:100980000895FC0124813581C9010895FC01248169
:100990003581C9010895FC0180899189892BD1F0A5
:1009A0003FB7F894808991890197918B808B8489D6
:1009B0009589DF01A80FB91F56962C9101968032B8
:1009C00091051CF4958B848B02C0158A148A3FBF55
:1009D00030E002C02FEF3FEFC9010895EF92FF9280
:1009E0001F93CF93DF931F92CDB7DEB77C01D70162
:1009F000DA968D919C91DB974097C8F71FB7F894D2
:100A0000D696ED91FC91D7970190F081E02DC7012A
:100A1000C6966983099569814097C8F4F70182AD4C
:100A200093AD019693AF82AF84AD95ADE80FF91FFA
:100A3000E05CFF4F60830196D701DD969C938E9317
:100A4000DC97409724F0DD961C921E92DC97F7010C
:100A5000EA5AFF4F0190F081E02D8081806280830F
:100A60001FBF81E090E00F90DF91CF911F91FF9029
:100A7000EF900895665F7F4F680F791FCB0108954F
:100A8000665F7F4F680F791FCB010895665F7F4FC8
:100A9000680F791FCB010895665F7F4F680F791F3C
:100AA000CB0108951F920F920FB60F9211242F932E
:100AB0008F939F93AF93BF93EF93FF9380914302E4
:100AC00090914402892B21F1E0916302F09164023C
:100AD0008091430290914402019790934402809345
:100AE00043028091470290914802DC01A15CBD4F16
:100AF0001A962C910196803191052CF4909348021E
:100B00008093470204C0109248021092470220834B
:100B10008091430290914402892B31F4E0915F026D
:100B2000F091600288E98083FF91EF91BF91AF91CE
:100B30009F918F912F910F900FBE0F901F9018953E
:100B40001F920F920FB60F9211242F938F939F93A2
:100B5000AF93BF93EF93FF938091E7019091E801EA
:100B6000892B21F1E0910702F09108028091E701C1
:100B70009091E80101979093E8018093E7018091BB
:100B8000EB019091EC01DC01AD51BE4F1A962C9116
:100B90000196803191052CF49093EC018093EB0148
:100BA00004C01092EC011092EB0120838091E701C8
:100BB0009091E801892B31F4E0910302F091040255
:100BC00088E98083FF91EF91BF91AF919F918F91C1
:100BD0002F910F900FBE0F901F901895FC01262F9C
:100BE0001382128248EE53E060E070E04483558344
:100BF0006683778387E491E09183808387E591E042
:100C00009587848780E290E097878687118A108A8B
:100C1000158A148A138A128A81E691E097AB86AB13
:100C200080E190E091AF80AF13AE12AE17AE16AE7A
:100C300015AE14AE222321F0213009F052C028C095
:100C4000DF01A05BBF4F85EC90E08D939C93DF01AB
:100C5000AE5ABF4F84EC90E08D939C93DF01AC5A69
:100C6000BF4F80EC90E08D939C93DF01AA5ABF4F59
:100C700081EC90E08D939C93DF01A85ABF4F82ECEA
:100C800090E08D939C93E65AFF4F86EC90E027C04E
:100C9000DF01A05BBF4F8DEC90E08D939C93DF0153
:100CA000AE5ABF4F8CEC90E08D939C93DF01AC5A11
:100CB000BF4F88EC90E08D939C93DF01AA5ABF4F01
:100CC00089EC90E08D939C93DF01A85ABF4F8AEC8A
:100CD00090E08D939C93E65AFF4F8EEC90E09183C9
:100CE000808308953F924F925F926F927F928F928E
:100CF0009F92AF92BF92CF92DF92EF92FF920F93AB
:100D00001F93CF93DF93EC014A015B01122F3E2C1E
:100D100060E072E18AE790E0A50194010E94E00B97
:100D200069017A0184E0C80ED11CE11CF11C83E04A
:100D3000F694E794D794C7948A95D1F760E074E26B
:100D400084EF90E0A50194010E94E00B29013A0193
:100D500094E0490E511C611C711C93E076946794D9
:100D6000579447949A95D1F7A301920144275527A8
:100D700060E874E88EE190E00E94020C5901A81826
:100D8000B908B7FE03C0B194A194B108A7019601B8
:100D90004427552760E472E48FE090E00E94020C43
:100DA0002819390937FF03C0319521953109FE0112
:100DB000EC5AFF4F0190F081E02DA216B3063CF4EF
:100DC00082E08083620181E0C81AD10804C01082E9
:100DD00091E0C91AD1081630C1F018F4153099F411
:100DE00005C0173029F0193071F404C080E00EC03E
:100DF00084E00CC0FE01EA5AFF4F0190F081E02D23
:100E000080818460808386E001C082E0023009F442
:100E1000886091E0391621F092E0391204C002C0D6
:100E2000806301C08062FE01E85AFF4F0190F081AB
:100E3000E02D8083FE01E05BFF4F0190F081E02D0B
:100E4000D082FE01EE5AFF4F0190F081E02DC0826A
:100E5000CA5ADF4FE881F98188E98083DF91CF9119
:100E60001F910F91FF90EF90DF90CF90BF90AF90C8
:100E70009F908F907F906F905F904F903F900895DC
:100E80000F931F93CF93DF931F92CDB7DEB78C01E3
:100E9000DC01ED91FC910190F081E02D69830995D1
:100EA00069818097D0F4F8018481958101969583BA
:100EB000848386819781E80FF91F628701968032CB
:100EC000910534F4D80117969C938E93169703C01E
:100ED000F8011782168281E001C080E00F90DF9157
:100EE000CF911F910F9108951F920F920FB60F92FD
:100EF00011242F933F934F935F936F937F938F931F
:100F00009F93AF93BF93EF93FF93E0910702F0910C
:100F10000802608189EB91E00E944007FF91EF9108
:100F2000BF91AF919F918F917F916F915F914F9101
:100F30003F912F910F900FBE0F901F9018951F9209
:100F40000F920FB60F9211242F933F934F935F93FD
:100F50006F937F938F939F93AF93BF93EF93FF9381
:100F6000E0916302F0916402608185E192E00E9469
:100F70004007FF91EF91BF91AF919F918F917F912A
:100F80006F915F914F913F912F910F900FBE0F90F6
:100F90001F90189560E089E092E00E94EE0561E004
:100FA0008DEA91E00C94EE050E94AB080E9480004F
:100FB0000E941A01FDCF1F93CF93DF93182FEB01EF
:100FC000209721F460E00E94090440E0143079F198
:100FD000153029F11630E9F1173099F1133169F024
:100FE000143109F044C011C060E001C061E0812FFC
:100FF000DF91CF911F910C94090460E089EA92E09F
:101000000E94800BAE0160E007C061E089EA92E0D7
:101010000E94800BAE0161E089EA92E023C060E0AB
:1010200087E892E00E94800BAE0160E007C061E0BB
:1010300087E892E00E94800BAE0161E087E892E0D1
:1010400011C060E085E692E00E94800BAE0160E096
:1010500007C061E085E692E00E94800BAE0161E08E
:1010600085E692E0DF91CF911F910C94AD0BC038D3
:10107000D10508F4B9CFBACFCF92DF92EF92FF92A9
:101080000F931F93CF93DF936C01EB017A01E60E70
:10109000F71E00E010E00BC06991D601ED91FC91C4
:1010A0000190F081E02DC6010995080F191FCE159A
:1010B000DF0591F7C801DF91CF911F910F91FF904C
:1010C000EF90DF90CF9008956115710581F0DB01FD
:1010D0000D900020E9F7AD0141505109461B570B17
:1010E000DC01ED91FC910280F381E02D099480E018
:1010F00090E00895DC01ED91FC910190F081E02DEC
:1011000009940F931F93CF93DF93EC016DE00E943E
:101110007A088C016AE0CE010E947A089C01200FB7
:10112000311FC901DF91CF911F910F9108950F9346
:101130001F93CF93DF93EC010E9464088C01CE01D2
:101140000E9481089801280F391FC901DF91CF91B2
:101150001F910F91089563E089EA92E00E946A0B63
:1011600021E047E354E060E089EA92E00E94400B0E
:1011700064E089EA92E00E946D0A61E087E892E00B
:101180000E946A0B64E087E892E00E946D0A61E0C9
:1011900085E692E00E946A0B64E085E692E00E9498
:1011A0006D0A789408951F920F920FB60F92112432
:1011B0002F933F934F935F936F937F938F939F935F
:1011C000AF93BF93EF93FF93E091C302F091C402FA
:1011D000309709F00995FF91EF91BF91AF919F91E1
:1011E0008F917F916F915F914F913F912F910F90D0
:1011F0000FBE0F901F9018951F920F920FB60F926F
:1012000011242F933F934F935F936F937F938F930B
:101210009F93AF93BF93EF93FF93E091C502F0913B
:10122000C602309709F00995FF91EF91BF91AF91F8
:101230009F918F917F916F915F914F913F912F91EE
:101240000F900FBE0F901F9018951F920F920FB620
:101250000F9211242F933F934F935F936F937F933C
:101260008F939F93AF93BF93EF93FF93E091C1024E
:10127000F091C202309709F00995FF91EF91BF916B
:10128000AF919F918F917F916F915F914F913F911E
:101290002F910F900FBE0F901F9018951F920F92D5
:1012A0000FB60F9211242F933F934F935F936F9339
:1012B0007F938F939F93AF93BF93EF93FF93E091AF
:1012C0007F02F0918002309709F00995FF91EF912C
:1012D000BF91AF919F918F917F916F915F914F914E
:1012E0003F912F910F900FBE0F901F9018951F9256
:1012F0000F920FB60F9211242F933F934F935F934A
:101300006F937F938F939F93AF93BF93EF93FF93CD
:10131000E0918102F0918202309709F00995FF91E6
:10132000EF91BF91AF919F918F917F916F915F915D
:101330004F913F912F910F900FBE0F901F901895D6
:101340001F920F920FB60F9211242F933F934F933A
:101350005F936F937F938F939F93AF93BF93EF931D
:10136000FF93E0917D02F0917E02309709F009959C
:10137000FF91EF91BF91AF919F918F917F916F916D
:101380005F914F913F912F910F900FBE0F901F9043
:1013900018951F920F920FB60F9211242F933F931F
:1013A0004F935F936F937F938F939F93AF93BF936D
:1013B000EF93FF93E091A102F091A202309709F020
:1013C0000995FF91EF91BF91AF919F918F917F917F
:1013D0006F915F914F913F912F910F900FBE0F90A2
:1013E0001F9018951F920F920FB60F9211242F93F2
:1013F0003F934F935F936F937F938F939F93AF939D
:10140000BF93EF93FF93E091A302F091A402309772
:1014100009F00995FF91EF91BF91AF919F918F9145
:101420007F916F915F914F913F912F910F900FBEE0
:101430000F901F9018951F920F920FB60F921124C4
:101440002F933F934F935F936F937F938F939F93CC
:10145000AF93BF93EF93FF93E0919F02F091A002AF
:10146000309709F00995FF91EF91BF91AF919F914E
:101470008F917F916F915F914F913F912F910F903D
:101480000FBE0F901F9018951F920F920FB60F92DC
:1014900011242F933F934F935F936F937F938F9379
:1014A0009F93AF93BF93EF93FF93E091A702F091C7
:1014B000A802309709F00995FF91EF91BF91AF9184
:1014C0009F918F917F916F915F914F913F912F915C
:1014D0000F900FBE0F901F901895DC012C9161505A
:1014E000223039F4673068F4E62FF0E0E959FE4F16
:1014F00006C0693030F4E62FF0E0E259FE4F20815B
:1015000001C020E0DC011A96ED91FC911B978081CF
:10151000887F822B80830895CF93DF93EC016883CB
:10152000613011F120F0623009F06CC048C01B82BC
:101530001A8286E490E09D838C838EE690E09F8300
:101540008E8384E490E09987888785E490E09B8788
:101550008A871D861C8687E490E09F878E87198A7C
:10156000188A88E490E022C08FE690E09F838E8303
:1015700085E890E09B838A8384E890E09D838C8358
:1015800080E890E09987888781E890E09B878A8748
:1015900089E890E09D878C8788E890E09F878E8718
:1015A0008BE890E0998B888B8AE890E09B8B8A8B04
:1015B0001D8A1C8A1F8A1E8A82E0898323C01B829F
:1015C0001A8282EB90E09D838C8380E790E09F837A
:1015D0008E8380EB90E09987888781EB90E09B87F2
:1015E0008A871D861C8683EB90E09F878E87198AE9
:1015F000188A84EB90E09B8B8A8B1D8A1C8A1F8A39
:101600001E8A698360E0CE010E946D0AEA81FB8137
:10161000309709F01082EC81FD811082198E188EAE
:101620001B8E1A8E1D8E1C8E1F8E1E8E19A218A246
:10163000DF91CF91089551E0411101C050E0653034
:10164000F0F4E62FF0E0E958FE4F408147FD17C067
:10165000DC011696ED91FC911797808121E030E036
:10166000042E01C0220F0A94EAF720952823852F23
:10167000042E01C0880F0A94EAF7282B20830895CE
:10168000623099F028F4662341F06130C9F409C052
:10169000633079F06430A1F410C0FC01518F408FA9
:1016A0000FC0FC01538F428F0BC0FC01558F448F3C
:1016B00007C0FC01578F468F03C0FC0151A340A314
:1016C000452B11F440E003C0222319F041E00C94B3
:1016D0001B0B0895DC011896ED91FC911997308150
:1016E000262F23703C7F232B20831A96ED91FC91AB
:1016F0001B9780816C70660F877E682B60830895CE
:10170000FC018181681740F59081992311F0923096
:1017100011F4813049F0662329F0613029F06230FC
:1017200031F404C026E003C024E001C022E00084BC
:10173000F185E02D308183E090E0022E01C0880F1A
:101740000A94EAF7809583234370022E01C0440F68
:101750000A94EAF7842B80830895FC01818168173D
:10176000F8F4611109C0A485B585109709F05C9360
:101770000684F785E02D13C0613049F4A089B18952
:10178000109709F05C930288F389E02D08C062305D
:1017900039F4A489B5895C930688F789E02D4083E4
:1017A000089560E089EA92E00E948C0A61E087E88F
:1017B00092E00E948C0A62E085E692E00C948C0A2A
:1017C000A1E21A2EAA1BBB1BFD010DC0AA1FBB1F45
:1017D000EE1FFF1FA217B307E407F50720F0A21BB7
:1017E000B30BE40BF50B661F771F881F991F1A9424
:1017F00069F760957095809590959B01AC01BD014E
:10180000CF010895052E97FB16F4009407D057FDDD
:101810000DD00E94E00B07FC09D07EF490958095D6
:10182000709561957F4F8F4F9F4F089550954095CC
:10183000309521953F4F4F4F5F4F0895EE0FFF1F9B
:0C1840000590F491E02D0994F894FFCF7E
:10184C000000CB0220002020202004003132333451
:10185C00303030303139393631313131E803151609
:10186C0017111213143132333435363738392A30D4
:10187C002310000600070005000B000C003000319F
:10188C0000320000000000EE043C08A004A504CBCC
:10189C0004B90400000000C60446054C0500000015
:1018AC0000C1043A054005010203040506070102C4
:0C18BC00000300040506070001020305FC
:00000001FF
